:100000000C9475050C949D050C949D050C949D0510
:100010000C949D050C949D050C949D050C949D05D8
:100020000C949D050C949D050C949D050C949D05C8
:100030000C949D050C949D050C949D050C949D05B8
:100040000C9458280C949D050C949D050C949D05CA
:100050000C949D050C949D050C949D050C949D0598
:100060000C948F1B0C949D05353E204241434B2040
:1000700000343E2053434F50452000333E20535020
:10008000454354415445204D4F44452000323E20C5
:100090005345542046494C544552204C204D20484D
:1000A00000313E20515541442053454152434820A0
:1000B0005241444152200020203C3C2053454C45B5
:1000C0004354204D4F4445203E3E000000000000B8
:1000D0000000000000000000000000000000000020
:1000E000000000000000000000000000000003000D
:1000F00000000000000003FFFFF00000000003B05C
:10010000000000000000018000000000000003C0AB
:1001100000000000000003C000000000000003C059
:1001200000000000000003C000000000000003C049
:1001300000000000000003C000000000000003C039
:1001400000000000000003C000000000000003C029
:1001500000000000000007C0000000000003FFFFD7
:10016000C00000000003FFFFC000000000020FE01D
:100170004000000000027FFC4000000000027FFE03
:100180004020000004027FFE402000000007FFFF27
:10019000C000000007FFBFFFFFE0000007FFFFFBFC
:1001A000FFE000000F3DFFF7BDF000000F18FFFF5C
:1001B00018F000001F18FFFF18F000001FBDFFFF20
:1001C000BDF800001FFFFFFFFFF800001F83FFFFC7
:1001D000C3F800001F38FEFF18F800001EFE7D7EE9
:1001E0007E7800001DFF7E7CFF3800001D01AFED12
:1001F00000B800001911A7ED01B800001BFFBFFDFA
:10020000FFB800001911A7ED99B800001901A7ED7A
:1002100000B800001DFF7C3CFF3800001EFE7DBEC4
:100220007E7800001F38FDBF3CF800001F83FDFFF3
:1002300081F800001FFFFC7FFFF800001FD3FC7F48
:10024000DBF800001FDFFFFFDBF800001FFFFFFFF0
:10025000FFF800001FFF8021FFF800001F9F000132
:10026000F9F800001F1F0001F8F000001F3700011F
:10027000E8F000000F230001CCF000000F23000184
:10028000C5F000000FFF0001FFE0000007FF0001C4
:10029000FFE0000003FFBFFDFFC0000001FFFFFF04
:1002A000FF000000001DFFFF200000000000000014
:1002B000000000000000000000000000000000003E
:1002C0000000000000000000000000000008000026
:1002D00000000000001800000000000000180000EE
:1002E0000000000000180000000000000008000FDF
:1002F000F7F7C0000008000FE6F780000008000FC5
:10030000E66300000008000FE6C300000008000FCD
:10031000FDF7C000000C000F39E78000000C000062
:100320000000000000070000000000000001800045
:10033000000000000000C00000000000008070000D
:100340000000000000FC30000000000003FE300050
:1003500000000000017E30000000000003FE3000BD
:10036000001C000003C4703E00FC000007CDF87FB5
:10037000FF8000FF87CFFCE07C0000F9C3FF9DC039
:1003800000000000618CC7FF000000003018660309
:10039000E000000018183A003C0000000C3E3F004E
:1003A0000380000007FB9FF000E0000001F8EF076A
:1003B00000380000003C7FC0700E0000002F7FF06E
:1003C000060300000007FF9C00C1C000000EFF876D
:1003D00000186000001C7F81C0063000003C57C040
:1003E00070009000007C53E018003800006451F069
:1003F0000600180000C458FC0180380000C448FE04
:10040000007F180000C4487FC000300000444C79D1
:10041000FC00F00000446433C7FFE00000442427E0
:1004200081FFC0000044263F80F0000000C4221F6E
:10043000001C000000C4231D0003F0000184211CE7
:1004400000007000030621980000000006022098BA
:10045000000000000C02208800000000180210CCF0
:10046000000000003003108F000000000001108B1E
:1004700080000000000111198000000000019119A6
:1004800080000000000091198000000F7B60C11106
:100490008000001F7F60CA308000001FFB406A2080
:1004A0008000001EF3C02A6080000010C3803EC0A0
:1004B0008000001083801F80800000000000020187
:1004C0008000000000000001800000E916D516C180
:1004D00016AD169916851671165D16651678168B6B
:1004E000169E16B116C416D716EA164916351621E9
:1004F000160D16FD161117251739176C1680169450
:1005000016A816BC16D016E416F8161A163F16646E
:10051000168916AE16D316F8161D17F21417153CC9
:100520001561158615AB15D015F515052A9B299172
:100530002987291D29132909299F2803290C2916F0
:10054000291F29892992299C29052A95288B2881E8
:100550002817280F2A192A832A8D2A062910291AD2
:100560002984298E299829022A0C2A1D288F2802DD
:10057000291429872999290C2A1E2A09261C268E26
:100580002601271327862798270B28000000000044
:100590003E5B4F5B3E3E6B4F6B3E1C3E7C3E1C18F1
:1005A0003C7E3C181C577D571C1C5E7F5E1C00184F
:1005B0003C1800FFE7C3E7FF0018241800FFE7DB43
:1005C000E7FF30483A060E2629792926407F05059F
:1005D00007407F05253F5A3CE73C5A7F3E1C1C08DC
:1005E000081C1C3E7F14227F22145F5F005F5F06A1
:1005F000097F017F006689956A606060606094A2EF
:10060000FFA29408047E040810207E201008082A07
:100610001C08081C2A08081E101010100C1E0C1EA6
:100620000C30383E3830060E3E0E0600000000004A
:1006300000005F00000007000700147F147F1424EF
:100640002A7F2A1223130864623649562050000874
:10065000070300001C2241000041221C002A1C7FCD
:100660001C2A08083E0808008070300008080808A6
:1006700008000060600020100804023E5149453E19
:1006800000427F400072494949462141494D331893
:1006900014127F1027454545393C4A4949314121CB
:1006A0001109073649494936464949291E000014AF
:1006B00000000040340000000814224114141414F7
:1006C00014004122140802015909063E415D594EA9
:1006D0007C1211127C7F494949363E414141227FBB
:1006E0004141413E7F494949417F090909013E4154
:1006F0004151737F0808087F00417F41002040413D
:100700003F017F081422417F404040407F021C028D
:100710007F7F0408107F3E4141413E7F0909090661
:100720003E4151215E7F0919294626494949320334
:10073000017F01033F4040403F1F2040201F3F40BA
:1007400038403F6314081463030478040361594973
:100750004D43007F414141020408102000414141C6
:100760007F040201020440404040400003070800AB
:1007700020545478407F284444383844444428382E
:100780004444287F385454541800087E090218A4A1
:10079000A49C787F0804047800447D4000204040F9
:1007A0003D007F1028440000417F40007C04780415
:1007B000787C080404783844444438FC182424180D
:1007C00018242418FC7C08040408485454542404B5
:1007D000043F44243C4040207C1C2040201C3C40E2
:1007E00030403C44281028444C9090907C44645401
:1007F0004C440008364100000077000000413608F4
:100800000002010204023C2623263C1EA1A1611223
:100810003A4040207A38545455592155557941224F
:1008200054547842215554784020545579400C1E38
:1008300052721239555555593954545459395554E1
:1008400054580000457C410002457D420001457C32
:10085000407D1211127DF0282528F07C545545006A
:100860002054547C547C0A097F4932494949323A20
:100870004444443A324A4848303A4141217A3A4263
:10088000402078009DA0A07D3D4242423D3D404039
:10089000403D3C24FF2424487E4943662B2FFC2FF7
:1008A0002BFF0929F620C0887E0903205454794182
:1008B0000000447D413048484A32384040227A00A6
:1008C0007A0A0A727D0D19317D2629292F282629B9
:1008D00029292630484D402038080808080808080B
:1008E00008382F10C8ACBA2F102834FA00007B004B
:1008F0000008142A142222142A1408550055005501
:10090000AA55AA55AAFF55FF55FF000000FF001089
:100910001010FF00141414FF001010FF00FF10103F
:10092000F010F0141414FC001414F700FF0000FF82
:1009300000FF1414F404FC141417101F10101F10DF
:100940001F1414141F00101010F0000000001F10DE
:100950001010101F10101010F010000000FF1010E9
:1009600010101010101010FF10000000FF140000F5
:10097000FF00FF00001F10170000FC04F414141700
:1009800010171414F404F40000FF00F714141414E6
:10099000141414F700F7141414171410101F101F58
:1009A000141414F4141010F010F000001F101F00A5
:1009B00000001F14000000FC140000F010F01010E4
:1009C000FF10FF141414FF141010101F000000007B
:1009D000F010FFFFFFFFFFF0F0F0F0F0FFFFFF006F
:1009E00000000000FFFF0F0F0F0F0F384444384482
:1009F000FC4A4A4A347E02020606027E027E0263F6
:100A0000554941633844443C04407E201E20060280
:100A10007E020299A5E7A5991C2A492A1C4C72015D
:100A2000724C304A4D4D303048784830BC625A469E
:100A30003D3E494949007E0101017E2A2A2A2A2A8F
:100A400044445F444440514A444040444A51400079
:100A500000FF0103E080FF000008086B6B083612FE
:100A6000362436060F090F06000018180000001083
:100A700010003040FF0101001F01011E00191D1769
:100A800012003C3C3C3C000000000000000008005C
:100A90000201000003040700000000000000000144
:100AA0000204081020408001020408102001020402
:100AB00008102004040404040404040202020202D4
:100AC00002030303030303000000002300260029A0
:100AD0000000000000250028002B0000000000247A
:100AE0000027002A0000251AED1A11241FBECFEF9F
:100AF000D8E0DEBFCDBF17E0A0E0B1E0EEE4FEE558
:100B000002C005900D92AC32B107D9F728E0ACE2F3
:100B1000B7E001C01D92AC35B207E1F71AE0CAEEAA
:100B2000DAE004C02297FE010E94F72EC63ED107EC
:100B3000C9F70E946A2C0C94252F0C940000ACE29B
:100B4000B7E020E0FC013491332331F02E3121F065
:100B50003D9301962F5FF6CFE22FF0E0E45DF84F72
:100B600030838CE297E0089560E08CE00E94C42915
:100B700081E090E00E94FF2861E08AE00E94C429A1
:100B800081E090E00E94FF2861E08CE00E94C4298F
:100B900081E090E00E94FF2860E08CE00E94C42980
:100BA00081E090E00C94FF2860E08CE00E94C42972
:100BB00081E090E00E94FF2860E08AE00E94C42962
:100BC00081E090E00E94FF2861E08CE00E94C4294F
:100BD00081E090E00E94FF2860E08CE00E94C42940
:100BE00081E090E00C94FF2881E090E00E94FF28D3
:100BF00060E08BE00E94C42981E090E00C94FF2823
:100C000081E090E00E94FF2861E08BE00E94C4290F
:100C100081E090E00C94FF281F93CF93DF936091C5
:100C20000A01E62FF0E0EE0FFF1FE55DFA4FC591D8
:100C3000D49181E090E00E94172F0E94000681E08D
:100C400090E00E94FF280E94F4050E94D4050E94B3
:100C5000D4050E94D4050E94B4050E94D40514E175
:100C60000E94D4051150E1F70E94000662E070E096
:100C700080E090E00E94C52881E090E00E94FF287B
:100C80000E94F4050E9400060E94F4050E94B4052B
:100C90000E94D4050E94D4050E94D4050E94B40588
:100CA00010E1C0FF03C00E94B40502C00E94D40539
:100CB000D695C7951150A9F70E94D4050E94D40576
:100CC0000E94D4050E94D4050E94000681E090E0B5
:100CD0000E94FF2860E08BE00E94C42960E08CE065
:100CE0000E94C42960E08AE0DF91CF911F910C94AB
:100CF000C4298F929F92AF92BF92CF92DF92EF92D0
:100D0000FF9280914F079091500701969093500762
:100D100080934F0780914D0790914E0701969093D5
:100D20004E0780934D0784E10E944529BC01882726
:100D300077FD8095982F0E947E2D60938B0770938E
:100D40008C0780938D0790938E0769E170E080E0B7
:100D500090E00E94C52885E10E944529BC018827B2
:100D600077FD8095982F0E947E2D6B017C0160930A
:100D70008707709388078093890790938A078090EC
:100D80008B0790908C07A0908D07B0908E072091D4
:100D900018013091190140911A0150911B01C501B0
:100DA000B4010E942E2E181644F4809218019092DD
:100DB0001901A0921A01B0921B01209110013091EB
:100DC00011014091120150911301C701B6010E9417
:100DD0002E2E181644F4C0921001D0921101E09208
:100DE0001201F092130120911C0130911D014091DC
:100DF0001E0150911F01C501B4010E94DF2C87FF25
:100E000008C080921C0190921D01A0921E01B09218
:100E10001F0120911401309115014091160150914C
:100E20001701C701B6010E94DF2C87FF08C0C092DE
:100E30001401D0921501E0921601F0921701A7015A
:100E40009601C501B4010E942E2E181624F41092AA
:100E50004E0710924D07A7019601C501B4010E94EB
:100E6000DF2C87FF04C01092500710924F0780912B
:100E7000200190E020914F0730915007821793078F
:100E800010F41092510720914D0730914E078217B0
:100E9000930718F481E080935107809151078111E5
:100EA0003BC060E08FE00E94C4296091210170E0A6
:100EB00080E090E00E94C52861E08EE00E94C42995
:100EC00060E08DE00E94C42948E250E068E470E0F0
:100ED00089E597E00E948B2280910C018823C1F064
:100EE00080910E018530A1F463E375E089E597E018
:100EF0000E94612A4AE350E06BE470E089E597E0E4
:100F00000E948B226BE375E089E597E00E94612ADD
:100F100089E597E00E949B2780915107813009F075
:100F200043C060E08EE00E94C4296091210170E01E
:100F300080E090E00E94C52861E08FE00E94C42913
:100F400061E08DE00E94C42948E250E068E470E06E
:100F500089E597E00E948B2280910C018823C1F0E3
:100F600080910E018530A1F460E475E089E597E099
:100F70000E94612A4AE350E062E670E089E597E06A
:100F80000E948B2268E475E089E597E00E94612A5F
:100F900089E597E0FF90EF90DF90CF90BF90AF9002
:100FA0009F908F900C949B27FF90EF90DF90CF90B5
:100FB000BF90AF909F908F90089560E086E00E9470
:100FC000C42920918B0730918C0740918D07509157
:100FD0008E0760E070E088EA91E40E94E32C0E94B2
:100FE000502D0E94C52861E086E00C94C4292F9200
:100FF0003F924F925F926F927F928F929F92AF92A9
:10100000BF92CF92DF92EF92FF920F931F93CF93F5
:10101000DF9300D000D0CDB7DEB784E10E94452930
:10102000BC01882777FD8095982F0E947E2D6093C4
:101030008B0770938C0780938D0790938E0769E1DF
:1010400070E080E090E00E94C52885E10E9445297B
:10105000BC01882777FD8095982F0E947E2D8B01FB
:101060001C01B0908B07C0908C07D0908D07F0903A
:101070008E07209118013091190140911A01509169
:101080001B016B2D7C2D8D2D9F2D0E942E2E181651
:1010900064F48B2D9C2DAD2DBF2D80931801909362
:1010A0001901A0931A01B0931B01209110013091F6
:1010B00011014091120150911301B801C1010E9428
:1010C0002E2E181654F4C801D1018093100190936C
:1010D0001101A0931201B093130120911C013091D2
:1010E0001D0140911E0150911F016B2D7C2D8D2DF6
:1010F0009F2D0E94DF2C87FF0CC08B2D9C2DAD2DCA
:10110000BF2D80931C0190931D01A0931E01B093ED
:101110001F01209114013091150140911601509149
:101120001701B801C1010E94DF2C87FF0AC0C80166
:10113000D1018093140190931501A0931601B093EF
:10114000170180901C0190901D01A0901E01E0905D
:101150001F0194014A2D5E2D6B2D7C2D8D2D9F2D11
:101160000E94DF2C87FD17C0409018015090190194
:1011700060901A0170901B019201A3016B2D7C2DD0
:101180008D2D9F2D0E942E2E18164CF4B42CC52C9C
:10119000D62CF72C04C0B82CC92CDA2CFE2C8B2DA5
:1011A0009C2DAD2DBF2D80938B0790938C07A09322
:1011B0008D07B0938E0740901401509015016090F8
:1011C0001601709017019201A301B801C1010E949C
:1011D000DF2C87FD12C040901001509011016090EB
:1011E0001201709013019201A301B801C1010E9484
:1011F0002E2E181614F028013101C201D30180935C
:10120000870790938807A0938907B0938A07B40152
:101210008A2D9E2D0E944B2D2B013C0160911801BF
:101220007091190180911A0190911B010E944B2D20
:101230009B01AC016B2D7C2D8D2D9F2D29833A8335
:101240004B835C830E944B2D1F921F921F9222E0C2
:10125000922E9F9232E3A32EB12CC12CD12C83016C
:10126000720129813A814B815C810E94202C0E946D
:101270007E2D60938B0770938C0780938D079093DE
:101280008E07609114017091150180911601909163
:1012900017010E944B2D2B013C01609110017091B0
:1012A000110180911201909113010E944B2D9B011D
:1012B000AC016091870770918807809189079091B0
:1012C0008A0729833A834B835C830E944B2D1F92AC
:1012D0001F921F929F928301720129813A814B8153
:1012E0005C810E94202C0E947E2D6B017C0160930A
:1012F0008707709388078093890790938A070FB6B2
:10130000F894DEBF0FBECDBF20E030E040EA51E4EC
:1013100060918B0770918C0780918D0790918E075B
:101320000E94DF2C87FD0AC020E030E040EA51E453
:10133000C701B6010E94DF2C87FF18C00F900F90E5
:101340000F900F90DF91CF911F910F91FF90EF9031
:10135000DF90CF90BF90AF909F908F907F906F90D5
:101360005F904F903F902F900C94DD070F900F905F
:101370000F900F90DF91CF911F910F91FF90EF9001
:10138000DF90CF90BF90AF909F908F907F906F90A5
:101390005F904F903F902F900895EF92FF920F93A0
:1013A0001F93CF93DF9310924C0710920E0189E5A3
:1013B00097E00E94EB2580914C078F3608F0DEC045
:1013C00061E086E00E94C42980914C078F5F809382
:1013D0004C070E94F707E0915907F0915A070684DD
:1013E000F785E02DEE24E394F12C02E010E02CE7E9
:1013F00030E04EE350E060E070E089E597E0099569
:10140000E0915907F0915A070684F785E02D0FE324
:1014100010E021E030E040E050E061E070E089E57C
:1014200097E00995C0915907D0915A0760918B07B1
:1014300070918C0780918D0790918E070E944B2DA3
:10144000EE85FF850AE010E02AE030E0AB0162E0C3
:1014500070E089E597E00995E0915907F0915A0706
:101460000684F785E02D0FE310E021E030E040E056
:1014700050E06CE070E089E597E00995E09159074C
:10148000F0915A070684F785E02D21E030E040E036
:1014900050E060E770E089E597E00995C091590751
:1014A000D0915A07609187077091880780918907CA
:1014B00090918A070E944B2DEE85FF850AE010E08F
:1014C0002AE030E0AB0161E770E089E597E009953B
:1014D000E0915907F0915A070684F785E02D0FE354
:1014E00010E021E030E040E050E06BE770E089E59B
:1014F00097E0099510914C071C30A8F1C09159074D
:10150000D0915A0760918B0770918C0780918D075D
:1015100090918E070E944B2DA12FB0E0EE85FF85A4
:1015200001E010E021E030E0AB01BD0189E597E08A
:101530000995C0915907D0915A076091870770911A
:1015400088078091890790918A070E944B2DA0916E
:101550004C07B0E0EE85FF8521E030E0AB01BD0136
:1015600089E597E0099589E597E00E949B2765E06A
:1015700070E080E090E00E94C5281DCFDF91CF9100
:101580001F910F91FF90EF9008958F929F92AF92CD
:10159000BF92CF92DF92EF92FF920F931F93CF9360
:1015A000DF9310925607C0E000E8902ED8E20E9428
:1015B0000C0662E370E080E090E00E94C528C093D2
:1015C0000A0184E10E944529BC01882777FD8095A6
:1015D000982F0E947E2D60938B0770938C078093C9
:1015E0008D0790938E0762E370E080E090E00E94A8
:1015F000C528C0908B07D0908C07E0908D07F090A5
:101600008E076091560770E080E090E00E947E2D8A
:101610009B01AC01C701B6010E942E2E1816D4F40E
:1016200020E030E040EA50E4C701B6010E947A2C85
:101630000E94502D6093560761E08DE00E94C429FE
:101640006EE170E080E090E00E94C52880910A0180
:101650008093550760910A0170E080E090E01F924E
:101660001F921F929F92A12CB12C650110E3E12ED5
:10167000F12C00E010E020E030E0A9010E94202CD5
:10168000862E60918B0770918C0780918D079091C9
:101690008E070E944B2D1F921F921F92DF93EFE344
:1016A000AE2EB12CC12CD12C1CE2E12EFF24F394E0
:1016B00000E010E024E630E040E050E00E94202C02
:1016C0000E947E2D60938B0770938C0780938D070B
:1016D00090938E0789E597E00E94EB2561E089E50C
:1016E00097E00E94912244E150E067E170E089E5D3
:1016F00097E00E948B226DE475E089E597E00E94F7
:10170000612A48E250E060E470E089E597E00E94D9
:101710008B224AE050E060910A0189E597E00E943F
:10172000262BE0905907F0905A0760918B07709133
:101730008C0780918D0790918E070E944B2DA82DCC
:10174000B0E0F701C684D784EE24E394F12C0EE0D8
:1017500010E022E030E0AB01BD0189E597E0F60141
:10176000099589E597E00E949B276AE070E080E098
:1017700090E00E94C52860E08DE00E94C429CF5F00
:101780008DB79EB708960FB6F8949EBF0FBE8DBF5B
:10179000C13309F00CCF62E370E080E090E00E947A
:1017A000C52880915507815080930A010E940C063C
:1017B00089E597E00E94EB2544E150E067E170E0A5
:1017C00089E597E00E948B226CE575E089E597E05A
:1017D0000E94612A62E089E597E00E94912248E236
:1017E00050E064E170E089E597E00E948B224AE0D6
:1017F00050E060910A0189E597E00E94262B61E0A4
:1018000089E597E00E94912240E350E068E470E0AF
:1018100089E597E00E948B2262E370E080E090E02F
:101820000E94C52880910A01883230F08752809347
:1018300055076CE675E022C0803230F08F518093FE
:10184000550762E775E01AC0883130F08751809300
:10185000550769E775E012C0803130F08F508093F2
:10186000550763E875E00AC0883030F087508093F0
:10187000550765E875E002C067E875E089E597E01F
:101880000E94612A48E250E068E470E089E597E050
:101890000E948B224AE050E06091550789E597E06D
:1018A0000E94262B89E597E00E949B2764E175E062
:1018B00080E090E0DF91CF911F910F91FF90EF902A
:1018C000DF90CF90BF90AF909F908F900C94C528E1
:1018D000CF92DF92EF92FF920F931F9361E08DE022
:1018E0000E948B2961E08EE00E948B2961E08FE0ED
:1018F0000E948B2961E086E00E948B2960E086E0EF
:101900000E94C42961E086E00E94C42961E08BE066
:101910000E948B2961E08AE00E948B2961E08CE0C3
:101920000E948B2961E08DE00E94C42921E04CE3F4
:1019300062E089E597E00E94662689E597E00E94CB
:10194000EB25CC24C394D12C90E4E92EF12C00E4B7
:1019500010E02BEC32E040E050E06EE170E089E511
:1019600097E00E94821F89E597E00E949B2760ED27
:1019700077E080E090E00E94C52889E597E00E942A
:10198000EB2561E070E089E597E00E94972261E035
:1019900089E597E00E94912244E150E06AE070E01E
:1019A00089E597E00E948B2269E875E089E597E078
:1019B0000E94612A48E250E06CE070E089E597E01F
:1019C0000E948B226AE975E089E597E00E94612A0E
:1019D00089E597E00E949B2761E089E597E00E94F6
:1019E00091226CED75E080E090E00E94C52889E5C9
:1019F00097E00E94EB2561E08DE00E94C42964E13C
:101A000070E080E090E00E94C52881E090E00E94B4
:101A10000F2F80930A0182E090E00E940F2F8093A5
:101A200020016AE070E080E090E00E94C52861E05B
:101A30008EE00E94C42960E08FE00E94C42964E621
:101A400070E080E090E00E94C5280E940C066AE0E9
:101A500070E080E090E00E94C52860E082E00E9493
:101A60008B2962E082E00E94C42960E083E00E944A
:101A70008B2962E083E00E94C42960E084E00E9438
:101A80008B2962E084E00E94C42982E00E94FA2946
:101A900021E0892B09F420E020930D0183E00E94CE
:101AA000FA2921E0892B09F420E020930C0184E03D
:101AB0000E94FA2921E0892B09F420E020930B01F0
:101AC00080910C01811130C089E597E00E94EB25DF
:101AD00062E089E597E00E94912244E150E060E0F5
:101AE00070E089E597E00E948B226AEA75E089E55B
:101AF00097E00E94612A89E597E00E949B2768ECA5
:101B000070E080E090E00E94C52861E089E597E000
:101B10000E949122109256071F910F91FF90EF9013
:101B2000DF90CF900C94C50A1F910F91FF90EF901A
:101B3000DF90CF9008958F929F92AF92BF92CF92F5
:101B4000DF92EF92FF920F931F93CF93DF9389E57C
:101B500097E00E94EB2582E00E94FA2921E0892B80
:101B600009F420E020930D0183E00E94FA2921E08E
:101B7000892B09F420E020930C0184E00E94FA29CB
:101B800021E0892B09F420E020930B0180910C01C6
:101B9000811110924B0780910D0181114AC060E0C4
:101BA00086E00E94C42962E370E080E090E00E9439
:101BB000C52861E086E00E94C42980910A018F5FF8
:101BC0008F3208F08FE280930A0189E597E00E9446
:101BD000EB2564E089E597E00E94912244E150E022
:101BE00060E070E089E597E00E948B2266EB75E08B
:101BF00089E597E00E94612A89E597E00E949B278A
:101C000068EC70E080E090E00E94C52861E089E522
:101C100097E00E9491220E940C068FE590E090933D
:101C20005307809352076AE070E080E090E00E94E2
:101C3000C52880910B01811147C060E086E00E94B9
:101C4000C42962E370E080E090E00E94C52861E072
:101C500086E00E94C42980910A01815080930A0184
:101C600089E597E00E94EB2564E089E597E00E9412
:101C7000912244E150E060E070E089E597E00E9445
:101C80008B226EEB75E089E597E00E94612A89E579
:101C900097E00E949B2768EC70E080E090E00E9453
:101CA000C52861E089E597E00E9491220E940C0618
:101CB0008FE590E090935307809352076AE070E0BD
:101CC00080E090E00E94C52880910C01811188C2BB
:101CD00060E086E00E94C42961E086E00E94C42999
:101CE00080914B078F5F80934B0710924C07C091F8
:101CF0004C07CA3008F5CF5FC0934C0789E597E0E1
:101D00000E94A4222C2F30E0220F331F97FD019652
:101D1000AC015595479501E010E06FE370E089E56F
:101D200097E00E94641E89E597E00E949B2761E08E
:101D30008DE00E94C429DBCF80914B07853010F0E5
:101D400010924B0780914B07813009F0ACC089E5B8
:101D500097E00E94EB2562E089E597E00E949122DE
:101D600044E150E060E070E089E597E00E948B225A
:101D700067EC75E089E597E00E94612A89E597E0C4
:101D80000E949B2760E086E00E94C42962E370E025
:101D900080E090E00E94C52861E086E00E94C429AE
:101DA00062E370E080E090E00E94C52860E086E099
:101DB0000E94C42962E370E080E090E00E94C528A0
:101DC00061E086E00E94C42968E572E080E090E06E
:101DD0000E94C52861E089E597E00E94912289E58B
:101DE00097E00E94EB2564E670E080E090E00E94BE
:101DF000C52883E00E94FA2921E0892B09F420E01C
:101E000020930C01222309F4DDC410924B0789E5CD
:101E100097E00E94EB2562E089E597E00E9491221D
:101E200044E150E060E070E089E597E00E948B2299
:101E300060ED75E089E597E00E94612A89E597E009
:101E40000E949B2780910A01885F8F3208F08FE201
:101E500080930A010E940C0680E590E0909353075E
:101E60008093520760E471E080E090E00E94C52812
:101E700061E089E597E00E94912289E597E00E9460
:101E8000EB2560E471E080E090E0DF91CF911F915D
:101E90000F91FF90EF90DF90CF90BF90AF909F9009
:101EA0008F900C94C528823009F09AC089E597E09C
:101EB0000E94EB2562E089E597E00E94912244E1CF
:101EC00050E060E070E089E597E00E948B2265EDCC
:101ED00075E089E597E00E94612A89E597E00E9414
:101EE0009B2760E086E00E94C42964E670E080E001
:101EF00090E00E94C52861E086E00E94C42964E663
:101F000070E080E090E00E94C52860E086E00E94DA
:101F1000C42966E970E080E090E00E94C52861E095
:101F200086E00E94C42968E572E080E090E00E94AB
:101F3000C52861E089E597E00E94912289E597E054
:101F40000E94EB2583E00E94FA2921E0892B09F405
:101F500020E020930C01222309F434C410924B0793
:101F600089E597E00E94EB2562E089E597E00E9411
:101F7000912244E150E060E070E089E597E00E9442
:101F80008B2260ED75E089E597E00E94612A89E582
:101F900097E00E949B2780910A01885080930A0154
:101FA0000E940C0680E590E09093530780935207BF
:101FB00060E471E080E090E00E94C52861E089E57E
:101FC00097E00E94912289E597E00E94EB2560E46A
:101FD00071E080E090E00E94C52810924A07F2C3A9
:101FE000833009F084C089E597E00E94EB2562E028
:101FF00089E597E00E94912244E150E060E070E0C2
:1020000089E597E00E948B226EED75E089E597E007
:102010000E94612A89E597E00E949B2760E086E0A4
:102020000E94C42966E970E080E090E00E94C52823
:1020300061E086E00E94C42966E970E080E090E0FB
:102040000E94C52860E086E00E94C42968EC70E028
:1020500080E090E00E94C52861E086E00E94C429EB
:1020600089E597E00E94EB2583E00E94FA2921E0B0
:10207000892B09F420E020930C01222309F4A2C348
:1020800010924B0789E597E00E94EB2562E089E515
:1020900097E00E94912244E150E060E070E089E521
:1020A00097E00E948B2260ED75E089E597E00E9441
:1020B000612A89E597E00E949B2760E471E080E057
:1020C00090E00E94C52861E089E597E00E94912296
:1020D00089E597E00E94EB2560E471E080E090E004
:1020E0000E94C5280E94C50A85E080930E01809158
:1020F0004B07843009F065C089E597E00E94EB2525
:1021000062E089E597E00E94912244E150E060E0BE
:1021100070E089E597E00E948B2269EE75E089E521
:1021200097E00E94612A89E597E00E949B2768E575
:1021300072E080E090E00E94C52889E597E00E9467
:10214000EB2583E00E94FA2921E0892B09F420E0A5
:1021500020930C01222309F435C310924B0789E523
:1021600097E00E94EB2562E089E597E00E949122CA
:1021700044E150E060E070E089E597E00E948B2246
:1021800060ED75E089E597E00E94612A89E597E0B6
:102190000E949B2760E471E080E090E00E94C528E7
:1021A00061E089E597E00E94912289E597E00E942D
:1021B000EB2560E471E080E090E00E94C528109279
:1021C0000E0161E089E597E00E94912289E597E0A0
:1021D0000E94EB2560E471E080E090E00E94C52859
:1021E0008FE00E944529909358078093570764E138
:1021F00070E080E090E00E94C5280E94F70780917F
:10220000520790915307019690935307809352077A
:1022100089E597E00E94EB25809152079091530742
:10222000889708F046C0CC24C394D12C70E4E72EE4
:10223000F12C00E410E02BEC30E041E050E061E0F4
:1022400070E089E597E00E94821F20E030E040E8DE
:102250005EE360918707709188078091890790916C
:102260008A070E94322E0E944B2D01E010E09B0154
:1022700046E050E064E370E089E597E00E94641E68
:1022800020E030E040E85EE360918B0770918C07BE
:1022900080918D0790918E070E94322E0E944B2DC7
:1022A0009B0146E050E064E370E089E597E00E941E
:1022B000641E80915207909153078997879708F081
:1022C000CEC08FE00E94452990935807809357070E
:1022D000BC0180E090E01F921F921F921F9242E388
:1022E000A42EB12CC12CD12CE12CF12C870120E0A3
:1022F00034E040E050E00E94202C70935807609337
:1023000057076AE070E080E090E00E94C528E09105
:102310005907F0915A070684F785E02DEE24E394DF
:10232000F12C0FE310E021E030E040E050E06EE1FE
:1023300070E089E597E00995E0915907F0915A0717
:1023400040915707509158070684F785E02D2EE1FC
:1023500030E061E270E089E597E00995E091590786
:10236000F0915A070684F785E02D21E030E040E047
:1023700050E060E470E089E597E00995E091590745
:10238000F0915A070684F785E02DE12CF12C08E244
:1023900010E025E030E045E250E06DE270E089E5D4
:1023A00097E00995E0915907F0915A070684F7855F
:1023B000E02D0FE310E02FE030E048E250E068E26B
:1023C00070E089E597E0099542E350E060E070E055
:1023D00089E597E00E948B2260EF75E089E597E040
:1023E0000E94612A409157075091580768E070E0B9
:1023F00089E597E00E948B228FE00E944529909307
:10240000580780935707BC0180E090E01F921F920D
:102410001F922CE32F93A12CB12C6501E12CF12C00
:10242000870120E034E040E050E00E94202C7093CF
:102430005807609357074AE050E089E597E00E940B
:102440002D2B6CE176E089E597E00E94612A8DB73B
:102450009EB708960FB6F8949EBF0FBE8DBF8091B1
:10246000520790915307815591090E97D0F445E09A
:1024700050E06AE070E089E597E00E948B2268E016
:1024800089E597E00E9491224AE050E0609155076B
:1024900089E597E00E94262B61E089E597E00E949C
:1024A0009122809152079091530780369105D0F187
:1024B0004AE050E06AE070E089E597E00E948B22F4
:1024C00062E089E597E00E949122E0910A01F0E044
:1024D000EE0FFF1FE553FB4F659174914AE050E00A
:1024E00089E597E00E942D2B43E250E06AE070E01E
:1024F00089E597E00E948B226BE776E089E597E01B
:102500000E94612A61E089E597E00E949122809112
:102510005207909153078437910520F0109253078A
:102520001092520780908B0790908C07A0908D0797
:10253000B0908E0720E030E040EA51E4C501B401DC
:102540000E94DF2C87FD12C0C0908707D0908807BB
:10255000E0908907F0908A0720E030E040EA51E4FB
:10256000C701B6010E94DF2C87FF0BC04DE050E091
:1025700067E470E089E597E00E948B2265EF75E0E3
:102580001EC020E030E04CE052E4C501B4010E94DE
:102590002E2E1816F4F420E030E04CE052E4C7018F
:1025A000B6010E942E2E1816A4F44DE050E067E408
:1025B00070E089E597E00E948B226FEF75E089E576
:1025C00097E00E94612A6AE070E080E090E00E945B
:1025D000C52861E070E089E597E00E94972261E0FC
:1025E00089E597E00E94912240E050E062E070E0CF
:1025F00089E597E00E948B2269E076E089E597E023
:102600000E94612A4AE050E06091550789E597E011
:102610000E94262B6BE176E089E597E00E94612A13
:102620006AE070E080E090E00E94C528E0915907E0
:10263000F0915A070684F785E02DEE24E394F12CFF
:1026400002E010E027E330E04BE150E068E470E0A6
:1026500089E597E00995C0915907D0915A07609193
:102660008B0770918C0780918D0790918E070E9447
:102670004B2DEE85FF859B014DE150E068E470E055
:1026800089E597E00995C0915907D0915A07609163
:102690008707709188078091890790918A070E9427
:1026A0004B2DEE85FF859B0142E250E068E470E02F
:1026B00089E597E00995E0915907F0915A0706845A
:1026C000F785E02D27E330E044E250E068E470E075
:1026D00089E597E00995E0915907F0915A07209113
:1026E0004F07309150070684F785E02DE12CF12C3F
:1026F00003E010E04DE150E068E470E089E597E028
:102700000995E0915907F0915A0720914D073091B2
:102710004E070684F785E02D42E250E068E470E061
:1027200089E597E0099540E350E068E470E089E5C9
:1027300097E00E948B2280910A01883230F0875204
:10274000809355076CE675E022C0803230F08F51DF
:102750008093550762E775E01AC0883130F08751E1
:102760008093550769E775E012C0803130F08F50D3
:102770008093550763E875E00AC0883030F08750D1
:102780008093550765E875E002C067E875E089E564
:1027900097E00E94612A89E597E00E949B276AE002
:1027A00070E080E090E00E94C52880910A018033AB
:1027B00010F010920A0180910A01811103C08FE28A
:1027C00080930A01DF91CF911F910F91FF90EF90BD
:1027D000DF90CF90BF90AF909F908F900895DF9241
:1027E000EF92FF920F931F93CF93DF9300D000D00F
:1027F000CDB7DEB7DD24D394809154078111BBC1DE
:102800000E94F70783E00E94FA2921E0892B09F44E
:1028100020E020930C0164E170E080E090E00E94F1
:10282000C52880910C01811102C0D092540745E364
:1028300050E06DE270E089E597E00E948B224091C4
:102840008B0750918C0760918D0770918E0722E065
:1028500030E089E597E00E941E2C60918B07709113
:102860008C0780918D0790918E070E944B2D9B01C4
:10287000AC0189E597E029833A834B835C830E940E
:10288000A42229813A8197FD01969595879501E0CB
:1028900010E0AC0169E170E089E597E00E94641EF8
:1028A00020E030E040E05FE360918B0770918C079F
:1028B00080918D0790918E070E94322E0E944B2DA1
:1028C0009B01AC0189E597E029833A834B835C83C4
:1028D0000E94A42229813A8197FD019695958795BA
:1028E00001E010E0AC0169E170E089E597E00E9449
:1028F000641E20E030E040EA50E460918B07709164
:102900008C0780918D0790918E070E94E32C0E9486
:102910004B2D9B01AC0189E597E029833A834B83DA
:102920005C830E94A42229813A8197FD01969595A6
:10293000879501E010E0AC0169E170E089E597E07E
:102940000E94641E89E597E00E949B276FE070E07B
:1029500080E090E00E94C52889E597E00E94EB2581
:1029600045E350E06DE270E089E597E00E948B223C
:1029700040918B0750918C0760918D0770918E0765
:1029800022E030E089E597E00E941E2C60918707E5
:10299000709188078091890790918A070E944B2D3A
:1029A0009B01AC0189E597E029833A834B835C83E3
:1029B0000E94A42229813A8197FD019695958795D9
:1029C00001E010E0AC0166E670E089E597E00E9466
:1029D000641E20E030E040E05FE360918707709183
:1029E00088078091890790918A070E94322E0E9461
:1029F0004B2D9B01AC0189E597E029833A834B83FA
:102A00005C830E94A42229813A8197FD01969595C5
:102A1000879501E010E0AC0166E670E089E597E09B
:102A20000E94641E20E030E040EA50E46091870795
:102A3000709188078091890790918A070E94E32C02
:102A40000E944B2D9B01AC0189E597E029833A83D5
:102A50004B835C830E94A42229813A8197FD0196D1
:102A60009595879501E010E0AC0166E670E089E598
:102A700097E00E94641E89E597E00E949B276FE023
:102A800070E080E090E00E94C52889E597E00E9410
:102A9000EB2545E350E06DE270E089E597E00E94A8
:102AA0008B2240918B0750918C0760918D0770911C
:102AB0008E0722E030E089E597E00E941E2C00910D
:102AC000590710915A072091870730918807409144
:102AD000890750918A0760918B0770918C078091CC
:102AE0008D0790918E070E947A2C0E944B2DD80161
:102AF0001E96ED91FC911F97EE24E394F12C06E0D5
:102B000010E025E030E0AB0167E170E089E597E097
:102B100009950091590710915A0720918B07309120
:102B20008C0740918D0750918E07609187077091B7
:102B300088078091890790918A070E947A2C0E94C9
:102B40004B2DD8011E96ED91FC911F9706E010E0E9
:102B500025E030E0AB0164E670E089E597E0099597
:102B600089E597E00E949B276FE070E080E090E0AD
:102B70000E94C52841CE1092540710920E010F906A
:102B80000F900F900F90DF91CF911F910F91FF90B9
:102B9000EF90DF900895AF92BF92CF92DF92EF92C5
:102BA000FF920F931F9380910A018F5F80930A0118
:102BB00082E00E94FA2921E0892B09F420E0209389
:102BC0000D0183E00E94FA2921E0892B09F420E01D
:102BD00020930C0184E00E94FA2921E0892B09F45A
:102BE00020E020930B01222321F080910D0181111F
:102BF00067C080910F018F5F80930F0161E08DE0CE
:102C00000E94C42980910F01853018F081E08093E3
:102C10000F0180910F01811103C081E080930F01AA
:102C200089E597E00E94EB2561E089E597E00E9445
:102C3000912244E150E060E270E089E597E00E9473
:102C40008B226EE176E089E597E00E94612A48E2F6
:102C500050E06EE170E089E597E00E948B22809160
:102C60000F01813019F469E276E00EC0823019F468
:102C700063E376E009C0833019F46DE376E004C0C5
:102C8000843031F468E476E089E597E00E94612AB7
:102C900089E597E00E949B2768EE73E080E090E072
:102CA0000E94C52860E086E00E94C4296CE271E0C1
:102CB00080E090E00E94C52861E086E00E94C4297F
:102CC00080910C01811143C089E597E00E94EB25BA
:102CD00061E089E597E00E94912244E150E060E2E2
:102CE00070E089E597E00E948B2263E576E089E554
:102CF00097E00E94612A89E597E00E949B2768EE91
:102D000073E080E090E00E94C52889E597E00E948A
:102D1000EB2561E089E597E00E94912260E086E082
:102D20000E94C4296CE271E080E090E00E94C52816
:102D300061E086E00E94C42910920E011F910F915C
:102D4000FF90EF90DF90CF90BF90AF90089580916B
:102D50000F01813039F480910A018033F8F010922C
:102D60000A011CC0823039F480910A0180528830F7
:102D7000A8F080E211C0833039F480910A018851B3
:102D8000883060F088E108C0843041F480910A0105
:102D90008852883018F088E280930A0160E08DE064
:102DA0000E94C42984E10E944529BC01882777FD3F
:102DB0008095982F1F921F921F9224E62F93A12C8B
:102DC000B12C65011CE2E12EFF24F39400E010E039
:102DD00020E530E040E050E00E94202C0E947E2D53
:102DE0006B017C010F900F900F900F9020E030E06E
:102DF00046E952E40E942E2E18160CF06FC061E0D6
:102E00008DE00E94C42989E597E00E94EB2562E0ED
:102E100089E597E00E94912240E050E065E070E093
:102E200089E597E00E948B226EE576E089E597E0E0
:102E30000E94612A49E150E064E170E089E597E091
:102E40000E948B2269E676E089E597E00E94612A7C
:102E50004AE050E060910A0189E597E00E94262B44
:102E600061E089E597E00E94912242E350E064E14D
:102E700070E089E597E00E948B226FE676E089E5B5
:102E800097E00E94612A80910A01883218F065E774
:102E900076E016C0803218F062E775E011C0883124
:102EA00018F069E775E00CC0803118F063E875E050
:102EB00007C0883018F065E875E002C067E875E083
:102EC00089E597E00E94612A89E597E00E949B27A7
:102ED00068EB7BE080E090E00E94C5280E940C0631
:102EE00089E597E00E94EB2561E089E597E00E9483
:102EF000912261E070E089E597E00E94972240E02E
:102F000050E064E170E089E597E00E948B226FE772
:102F100076E089E597E00E946E2A4DE050E060E29D
:102F200070E089E597E00E948B226FE876E089E502
:102F300097E00E94612A22E030E0B701A60189E50E
:102F400097E00E941E2C4EE150E060E270E089E5BF
:102F500097E00E948B2267E976E089E597E00E947E
:102F6000612A62E089E597E00E94912242E350E005
:102F700067E370E089E597E00E948B224AE050E029
:102F800060910A0189E597E00E94262B89E597E088
:102F90001F910F91FF90EF90DF90CF90BF90AF9077
:102FA0000C949B2782E00E94FA2921E0892B09F4E6
:102FB00020E020930D0183E00E94FA2921E0892B73
:102FC00009F420E020930C0184E00E94FA2921E01A
:102FD000892B09F420E020930B0180910D018111D0
:102FE00013C08091200181508093200160E086E031
:102FF0000E94C42964E670E080E090E00E94C52849
:1030000061E086E00E94C42980910C01811110C00A
:1030100010920E0160E086E00E94C42964E670E030
:1030200080E090E00E94C52861E086E00E94C4290B
:1030300080910B01811113C0809120018F5F8093DB
:10304000200160E086E00E94C42964E670E080E030
:1030500090E00E94C52861E086E00E94C42980912A
:1030600020018A3118F085E08093200180912001B1
:10307000853018F485E0809320016091200182E082
:1030800090E00E94172F89E597E00E94EB2561E010
:1030900089E597E00E94912240E050E062E070E014
:1030A00089E597E00E948B2262EA76E089E597E065
:1030B0000E94612A44E150E06DE370E089E597E009
:1030C0000E948B224AE050E06091200189E597E060
:1030D0000E94262B48E250E060E270E089E597E02C
:1030E0000E948B22809120018B3030F465EB76E0DA
:1030F00089E597E00E94612A809120018B508430FD
:1031000030F460EC76E089E597E00E94612A8091D6
:1031100020018F3030F06EEC76E089E597E00E9478
:10312000612A89E597E00E949B2760E08DE00C947E
:10313000C429EF92FF920F931F93CF93DF930E94C6
:10314000790680910E01813041F4DF91CF911F917A
:103150000F91FF90EF900C94EF13823041F4DF91C8
:10316000CF911F910F91FF90EF900C94D217833065
:1031700041F4DF91CF911F910F91FF90EF900C944C
:10318000CB15843041F4DF91CF911F910F91FF90C7
:10319000EF900C94CD09853041F4DF91CF911F91D0
:1031A0000F91FF90EF900C949B0D82E00E94FA2902
:1031B00021E0892B09F420E020930D0183E00E9497
:1031C000FA2921E0892B09F420E020930C0184E006
:1031D0000E94FA2921E0892B09F420E020930B01B9
:1031E00080910D01811113C080910F018150809356
:1031F0000F0160E086E00E94C42964E670E080E090
:1032000090E00E94C52861E086E00E94C429809178
:103210000C01811112C080910F0180930E0160E0BA
:1032200086E00E94C42964E670E080E090E00E949D
:10323000C52861E086E00E94C42980910B018111BC
:1032400013C080910F018F5F80930F0160E086E0D3
:103250000E94C42964E670E080E090E00E94C528E6
:1032600061E086E00E94C42980910F01863018F049
:1032700085E080930F0180910F01811103C081E0EF
:1032800080930F0189E597E00E94EB2561E089E5D5
:1032900097E00E949122E0915907F0915A07C68564
:1032A000D78589E597E00E94A02240910F012AE08E
:1032B000429FA00111244D5F5F4FEE24E394F12C57
:1032C0000AE010E09C0160E070E089E597E0FE0113
:1032D000099561E070E080910F01811102C060E00A
:1032E00070E089E597E00E94972240E050E060E0BE
:1032F00070E089E597E00E948B2287EB90E00E94C6
:103300009F05BC0189E597E00E94612A61E070E0B9
:1033100080910F01813011F460E070E089E597E061
:103320000E9497224FE050E062E070E089E597E06C
:103330000E948B2281EA90E00E949F05BC0189E5F2
:1033400097E00E94612A61E070E080910F01823075
:1033500011F460E070E089E597E00E94972249E16E
:1033600050E062E070E089E597E00E948B228DE8F2
:1033700090E00E949F05BC0189E597E00E94612AC8
:1033800061E070E080910F01833011F460E070E043
:1033900089E597E00E94972243E250E062E070E006
:1033A00089E597E00E948B228BE790E00E949F05C1
:1033B000BC0189E597E00E94612A61E070E080919C
:1033C0000F01843011F460E070E089E597E00E941D
:1033D00097224DE250E062E070E089E597E00E94BC
:1033E0008B2281E790E00E949F05BC0189E597E070
:1033F0000E94612A61E070E080910F01853011F434
:1034000060E070E089E597E00E94972247E350E092
:1034100062E070E089E597E00E948B2288E690E008
:103420000E949F05BC0189E597E00E94612A89E519
:1034300097E00E949B2760E08DE0DF91CF911F9184
:103440000F91FF90EF900C94C42964E089E597E018
:103450000C94D2258091BF0790E02091C007821B79
:10346000910908952091C0078091BF07281750F453
:10347000E22FF0E0EF53F84F808190E02F5F209330
:10348000C00708958FEF9FEF0895E091C0078091E6
:10349000BF07E81730F4F0E0EF53F84F808190E079
:1034A00008958FEF9FEF08950895CF92DF92EF92E6
:1034B000FF920F931F93CF93DF937C01CB018A017F
:1034C00020919B07222389F0EB016B01C40ED51ECE
:1034D000CC15DD0569F06991D701ED91FC91019062
:1034E000F081E02DC7010995F3CF642F0E94661B80
:1034F000C801DF91CF911F910F91FF90EF90DF9066
:10350000CF900895CF93DF931F92CDB7DEB7698335
:1035100020919B072223D1F020919C07203240F07C
:1035200021E030E0FC013383228380E090E015C08D
:1035300080919D07E82FF0E0E256F84F9981908343
:103540008F5F80939D0780939C0705C061E0CE014B
:1035500001960E94661B81E090E00F90DF91CF9171
:103560000895FC011382128248EE53E060E070E09F
:1035700044835583668377838EED96E091838083C1
:1035800008951092C0071092BF0710929D071092E5
:103590009C070C94F11A81E080939B076093BE070F
:1035A00010929D0710929C0708950C94CB1A0F93CC
:1035B000062F21E040919C076EE977E08091BE07DD
:1035C0000E940F1B10929D0710929C0710929B0760
:1035D0000F91089561E00C94D71A8FE897E00C944E
:1035E000B11A10924E0881E080934C0810924B085B
:1035F00061E082E10E94C42961E083E10E94C42964
:10360000E9EBF0E080818E7F808380818D7F8083F5
:1036100088E48093B80085E48093BC0008950F93FC
:10362000413208F04AC090914E089111FCCF92E0CF
:1036300090934E0800934C089FEF9093E1071092EF
:10364000260840932508FB0167E278E0DB019A2F0A
:10365000961B941718F491919D93F9CF10924D08F1
:1036600090914D08880F892B80934D0880914B08CD
:10367000813061F410924B0880914D088093BB001B
:103680008091BC0083FDF8CF85EC01C085EE80936E
:10369000BC00222321F080914E088230E1F380911A
:1036A000E1078F3F61F08091E107803251F0809116
:1036B000E107803341F483E007C081E005C080E08A
:1036C00003C082E001C084E00F910895613298F454
:1036D00020914E08243089F460930308FC0185E0B2
:1036E00098E0DC012A2F281B261718F421912D932E
:1036F000F9CF80E0089581E0089582E0089585ED96
:103700008093BC008091BC0084FDFCCF10924E08D9
:10371000089585EC8093BC0010924E0808951F9286
:103720000F920FB60F9211242F933F934F935F93F5
:103730006F937F938F939F93AF93BF93EF93FF9379
:103740008091B900887F803609F49EC078F5883270
:1037500009F45DC090F4803109F456C038F4882330
:1037600009F4F5C0883009F44FC0F5C0883109F478
:103770004EC0803209F45FC0EEC0803409F46AC0E4
:1037800058F4803309F457C0883309F0E4C08093BB
:10379000E1070E94891BDFC0803509F44FC08835DE
:1037A00009F45DC0883409F0D6C0D3C0883909F463
:1037B000C4C0A8F4883709F467C038F4883609F41F
:1037C00063C0803709F460C0C6C0883809F4B5C04A
:1037D000803909F45FC0803809F0BDC05BC0803B10
:1037E00009F483C038F4803A09F466C0883A09F4D1
:1037F0007CC0B1C0803C09F4A4C0883C09F4A1C0DD
:10380000883B09F487C0A7C080914D0810C09091F3
:10381000260880912508981770F5E091260881E028
:103820008E0F80932608F0E0E95DF74F808180934A
:10383000BB0085EC83C08093E1078BC0E091260834
:1038400081E08E0F809326088091BB00F0E0E95D57
:10385000F74F808390912608809125086BC0E091F6
:10386000260881E08E0F809326088091BB00F0E04F
:10387000E95DF74F808380914C0881116AC081E037
:1038800080934B0884EA5EC083E080934E081092D8
:10389000E207CFCF8091E207803208F04EC0E0917E
:1038A000E20781E08E0F8093E2078091BB00F0E099
:1038B000ED51F84F8083BDCF0E94891B8091E207B4
:1038C000803230F4E091E207F0E0ED51F84F1082E1
:1038D0006091E20770E0E0914708F091480883EEBC
:1038E00097E009951092E20736C084E080934E0875
:1038F0001092040810920308E0914908F0914A08D8
:10390000099580910308811105C081E08093030827
:1039100010920508E091040881E08E0F809304085E
:10392000F0E0EB5FF74F80818093BB00909104083B
:1039300080910308981708F47CCF85E88093BC0039
:103940000AC085EC8093BC0010924E0804C010920F
:10395000E1070E947F1BFF91EF91BF91AF919F9173
:103960008F917F916F915F914F913F912F910F9028
:103970000FBE0F901F9018952F923F924F925F921B
:103980006F927F928F929F92AF92BF92CF92DF926F
:10399000EF92FF920F931F93CF93DF9300D000D04D
:1039A000CDB7DEB74C017C836B836A015901C80136
:1039B0008701AC014C195D0957FF03C05195419532
:1039C000510995016B817C81261B370B37FF03C0A2
:1039D00031952195310922242394312C2417350760
:1039E00014F0212C312C2114310459F03A2D2B2DB7
:1039F0005C01832F922F3B812C81DC82CB82C32EF2
:103A0000D22EAB81BC81AA16BB065CF43C2D2D2DB9
:103A10006C01832F922F3B812C81BC82AB82A32E21
:103A2000B22E2501EB81FC814E1A5F0A3C016C1815
:103A30007D0877FE03C0719461947108720157FE8E
:103A400003C0FFEFEF1AFF0AF594E794C816D906F2
:103A50002CF421E030E03A83298324C06FEF7FEF1C
:103A60007A8369831FC0D401ED91FC910480F581B4
:103A7000E02D980121143104D9F04B815C81B6010D
:103A8000C4010995E618F708F7FE06C0E981FA8136
:103A9000CE0EDF1EE40CF51C2B813C812F5F3F4FC7
:103AA0003C832B836B817C81A616B706E4F604C0A9
:103AB000A6016B817C81E4CF0F900F900F900F9047
:103AC000DF91CF911F910F91FF90EF90DF90CF90FA
:103AD000BF90AF909F908F907F906F905F904F902E
:103AE0003F902F9008956F927F928F929F92AF9206
:103AF000BF92CF92DF92EF92FF920F931F93CF93DB
:103B0000DF93EC015B016A0139014801E881F98129
:103B10000284F385E02D87010995E881F981A601EA
:103B2000480D591D415051090284F385E02D930140
:103B3000B501CE010995E881F9810084F185E02D78
:103B40009401A601B501CE010995E881F981B5017D
:103B5000660D771D615071090084F185E02D940197
:103B6000A601CE010995DF91CF911F910F91FF9092
:103B7000EF90DF90CF90BF90AF909F908F907F900D
:103B80006F900895EF92FF920F931F93DC01ED91D8
:103B9000FC91240F351F215031090680F781E02D5B
:103BA000780189019B0109951F910F91FF90EF907A
:103BB0000895EF92FF920F931F93DC01ED91FC911A
:103BC000260F371F215031090680F781E02D78013B
:103BD0008A0109951F910F91FF90EF9008956F92C0
:103BE0007F928F929F92AF92BF92CF92DF92EF928D
:103BF000FF920F931F93CF93DF935C014A016901FA
:103C00003801EB01C60ED71ECC15DD0574F4D501C5
:103C1000ED91FC910084F185E02D87019301A401D1
:103C2000BE01C50109952196EFCFDF91CF911F917C
:103C30000F91FF90EF90DF90CF90BF90AF909F904B
:103C40008F907F906F900895EF92FF920F931F9344
:103C5000DC01ED91FC9111971A960D911C911B9727
:103C600018962D913C9119970684F785E02D7B01DC
:103C700040E050E060E070E009951F910F91FF90E7
:103C8000EF9008950895FC01138212828EEE96E063
:103C900091838083758364835783468371876087AC
:103CA00053874287158A158614861786168621E063
:103CB000248B8FEF9FEF938B828B918B808B268B46
:103CC000178A118E108E08952F923F924F925F9215
:103CD0006F927F928F929F92AF92BF92CF92DF921C
:103CE000EF92FF920F931F93CF93DF9300D000D0FA
:103CF00000D0CDB7DEB79E838D836B015A01790169
:103D000066246394712C621A730A44245524421A5F
:103D1000530A440C551CDC01ED91FC91420F531FDA
:103D20000480F581E02D98010995AD81BE81ED916A
:103D3000FC911197A5014E195F090480F581E02DD2
:103D40009801B601CD010995AD81BE81ED91FC913F
:103D50001197B6016E0D7F1D0480F581E02D98014D
:103D6000A501CD010995AD81BE81ED91FC91119721
:103D7000B6016E197F090480F581E02D9801A50137
:103D8000CD010995812C912C8E149F040CF0A1C0BB
:103D900077FC08C0B1E0EB1AF108E2E04E0E511CCE
:103DA000640C751CFFEF8F1A9F0AC401880F991FBE
:103DB0000196680E791EC4018C0D9D1D9C838B831A
:103DC000AD81BE81ED91FC9111970480F581E02DCC
:103DD000980115012E0C3F1CA101BC01CD010995D4
:103DE000F601E819F909FA83E983AD81BE81ED9105
:103DF000FC9111970480F581E02D9801A101698162
:103E00007A81CD010995AD81BE81ED91FC9111972B
:103E10000480F581E02D980115012E183F08A101BD
:103E20006B817C81CD010995AD81BE81ED91FC91C5
:103E300011970480F581E02D9801A10169817A81B3
:103E4000CD01099514012A0C3B1CAD81BE81ED9179
:103E5000FC9111970480F581E02D9801A101C60124
:103E60008E0D9F1D9C838B83BC01CD010995AD8177
:103E7000BE81ED91FC9111970480F581E02D9801B0
:103E8000A101C6018E199F099A838983BC01CD01C6
:103E90000995150128183908AD81BE81ED91FC9175
:103EA00011970480F581E02D9801A1016B817C813F
:103EB000CD010995AD81BE81ED91FC9111970480F2
:103EC000F581E02D9801A10169817A81CD010995E3
:103ED0005BCF26960FB6F894DEBF0FBECDBFDF9145
:103EE000CF911F910F91FF90EF90DF90CF90BF90F7
:103EF000AF909F908F907F906F905F904F903F908A
:103F00002F9008952F923F924F925F926F927F92DF
:103F10009F92AF92BF92CF92DF92EF92FF920F9358
:103F20001F93CF93DF93CDB7DEB72A970FB6F894E0
:103F3000DEBF0FBECDBF5C017C836B835E834D8390
:103F4000190127013601C801079697FD07969C01C4
:103F500093E0359527959A95E1F73A832983C12C0B
:103F6000D12CE12CF12CE414F5040CF044C01A8699
:103F700019868D819E818E0D9F1D98878F83E9857F
:103F8000FA85E017F1077CF589859A85877099276E
:103F9000892B11F0990C0EC0E985FA85F7FD37964B
:103FA00083E0F595E7958A95E1F7EC0DFD1DE20DAF
:103FB000F31D949097FE11C0D501ED91FC91048002
:103FC000F581E02D93014F8158856B817C81898536
:103FD0009A85680F791FC5010995A985BA8511963B
:103FE000BA87A987CCCFFFEFEF1AFF0A29813A8160
:103FF000C20ED31EB8CF2A960FB6F894DEBF0FBEFE
:10400000CDBFDF91CF911F910F91FF90EF90DF9087
:10401000CF90BF90AF909F907F906F905F904F90A8
:104020003F902F9008952F923F924F925F926F9200
:104030007F928F929F92AF92BF92CF92DF92EF9238
:10404000FF920F931F93CF93DF93CDB7DEB76A979D
:104050000FB6F894DEBF0FBECDBF1C0158874F834B
:104060001C870B87FA86E986CC82DC0158964D9135
:104070005C9159974115510509F0A6C018968D918C
:104080009C911997681779070CF056C11A968D9173
:104090009C911B97EF81F885E817F9070CF04CC14C
:1040A000D12CCB013C81F6E03F9F800D911D112466
:1040B000181619060CF040C1C60103E0880F991FBD
:1040C0000A95E1F74F815885840F951F1816190638
:1040D0000CF032C157968C91811103C0203B08F03F
:1040E0002F5F7E876D874B0119821BE8A12E15E09B
:1040F000B12EA61AB70A55E0259FA00CB11C1124B9
:104100008981853039F0ED85FE85EA0DFB1D94919E
:104110009A8301C01A826F8078842301A8E0AD835E
:10412000BA81B0FF12C0D101ED91FC91BC81B130D8
:1041300031F40480F581E02D2B853C8518C0068480
:10414000F785E02DEB84FC841DC0E985FA852B857D
:104150003C85E217F307E1F0D101ED91FC91BC81C0
:10416000B13059F40480F581E02D29853A85A2010A
:104170006D857E85C10109950BC00684F785E02D0C
:10418000E984FA8486019601A301B401C10109956D
:10419000EA81E695EA83FD81F150FD836C0C7D1C7C
:1041A0002FEF421A520AF111BBCF39813F5F398399
:1041B0008C0C9D1C4D855E854F5F5F4F5E874D87E4
:1041C000363009F09DCFB8C0FA0134963491329759
:1041D00085919491231BA7E02A9F800D911D1124A6
:1041E000FA0125913491398B288BFC01459154912A
:1041F0005A8F498FFC013296549159873196A49178
:10420000AF873196E491FC013596249131968491E3
:10421000BC81B23050F0622E772467FC7094E82F96
:10422000FF27E7FDF095FE87ED87FC81CF2ED12C8F
:104230006C9C40016D9C900C7C9C900C1124860E13
:10424000971EA12C1982DE8ACD8AAB01420F511D27
:1042500027FD5A955E834D83AF81B885A80FB11DA8
:1042600087FDBA95B88FAF8B59818F85581708F0A5
:1042700063C0852F90E02D853E85280F391F2C9D2A
:10428000D0012D9DB00D3C9DB00D1124EF81F8851E
:10429000EA0FFB1FFB83EA836D807E802401FA2DE9
:1042A0002D81F21BFA8B4F89588D480F591F5C8B5B
:1042B0004B8B9A89960D862D2D81821B398583170C
:1042C000B0F5977061F4898D9A8D0196E889F98926
:1042D000298D3A8DE20FF31FB4909A8F898FB7FE24
:1042E0001DC0D101ED91FC91BC81B13059F4048025
:1042F000F581E02D2B853C854B895C89B301C1019B
:1043000009950CC00684F785E02DEB84FC848601BA
:1043100096014A815B81B201C1010995BB0CED890F
:10432000FE894E0E5F1EFFEF6F1A7F0AC2CFA30EEB
:1043300049814F5F498398CF6A960FB6F894DEBFE4
:104340000FBECDBFDF91CF911F910F91FF90EF90E6
:10435000DF90CF90BF90AF909F908F907F906F90A5
:104360005F904F903F902F900895AF92BF92CF9261
:10437000EF92FF920F931F93CF93DF93EC01262FC1
:10438000888D998D009709F042C06A3069F42C89B4
:104390008E859F8538E0239F800D911D11249F8776
:1043A0008E871D861C86ABC06D3009F4A8C08E892F
:1043B0008823C1F03C898C859D8546E0349F800D23
:1043C000911D112448855985841795075CF01D8639
:1043D0001C868E859F85E8E03E9F800D911D1124EF
:1043E0009F878E87EA88FB88088919894E855F85B3
:1043F0006C857D85CC88CE010E9413202C898C850C
:104400009D85F6E02F9F800D911D112441C06A30DB
:1044100079F41D861C864C89FC01369684912E8584
:104420003F85489F200D311D11243F872E8767C08F
:104430006D3009F464C0AC014C5F5F4FFA013491F8
:10444000631708F45CC03196E491E61708F457C08E
:10445000FA014491362F341BFC013296A590B4909A
:10446000F7E03F9FA00CB11C1124F5013296A491F6
:104470003196E491AA2311F0E1110DC0F5013496B3
:10448000A4902C898C859D85A29E800D911D112460
:104490009D878C8734C0F5013596E4913E8933239E
:1044A00009F13C89B0E0AE0FB11DE7FDBA953A9F26
:1044B000A0013B9F500D11246C857D85460F571F31
:1044C00068857985461757076CF01D861C86FC01A8
:1044D000369684914E855F85389F400D511D11247D
:1044E0005F874E87EA88FB88088919894E855F8532
:1044F0006C857D85CC88CE010E941320BFCF81E0E2
:1045000090E0DF91CF911F910F91FF90EF90CF90AE
:10451000BF90AF900895FC017587648757874687E1
:104520000895611101C061E0FC01648B0895FC01F4
:10453000738B628B718B608B0895FC018589089564
:10454000FC01808591850895FC01828593850895FD
:104550000F931F93CF93DF93EC018D89823061F02D
:104560008330D9F0813009F0C8C0EC81FD81E41BB3
:10457000F50B3197DB0118C08C819D81DC01A61BF6
:10458000B70BBD018E819F81FC01E41BF50BAF01D0
:1045900041505109621B730BB0C0AE81BF81A61B95
:1045A000B70BA21BB30BFA01F7FD05C18C819D81EE
:1045B000E817F9070CF0FFC0B7FF04C02A0F3B1F34
:1045C000A0E0B0E08E819F81AD01420F531F8417A0
:1045D00095071CF49C012A1B3B0B121613060CF0CA
:1045E000EAC0422F8A2F86958695869590E8899F06
:1045F000E00DF11D1124EE5CFE4FA77069F158E04B
:104600005A1B852F90E0EC01C65DDE4F68812517AF
:1046100060F4DC01A21BB1098FEF90E00A2E02C00A
:10462000959587950A94E2F768230130110539F0D2
:1046300048F00230110551F48081862706C0808140
:10464000862B03C06095808186238083451708F4FC
:10465000B2C0451BE058FF4F4830A0F102301105B1
:10466000A9F4DF01842F9C9190959C93A058BF4F93
:1046700088508830C0F788EF840F86958695869598
:10468000B0E88B9FE00DF11D112419C081E00130CD
:10469000110509F080E0982F9195EF01842F988300
:1046A000C058DF4F88508830D0F788EF840F869548
:1046B0008695869590E8899FE00DF11D1124E058BC
:1046C000FF4F4770442309F476C0A42FB0E0AE5DDD
:1046D000BE4F9C910130110541F050F002301105A0
:1046E00009F069C08081892706C08081892B03C0B9
:1046F00090958081892380835EC057FD5CC08E8148
:104700009F81481759070CF056C077FF04C0260F49
:10471000371F60E070E08C819D81FB01E20FF31F89
:104720008E179F071CF49C01261B370B12161306CD
:104730000CF041C0CA0157FD0796E3E095958795B7
:10474000EA95E1F79695982F8827979587958E5C3F
:104750009E4F860F971F4770552761E070E001C09C
:10476000660F4A95EAF7462F0130110541F088F0AF
:104770000230110501F5FC01280F391F15C0FC019D
:10478000280F391FE217F307B1F08081842B819342
:10479000F9CF6095FC01280F391FE217F30759F094
:1047A000808186238193F9CFE217F30721F080817E
:1047B00084278193F9CFDF91CF911F910F910895B5
:1047C0000F931F93CF93DF93FC018589823069F0AB
:1047D0008330E1F0813009F082C0C481D581C41BEF
:1047E000D50BC21BD30BDB0117C084819581DC0183
:1047F000A61BB70BBD016150710986819781DC0151
:10480000A41BB50BAD01421B530B69C0A681B78138
:10481000A61BB70B1197EA01B7FD08C186819781E6
:10482000A817B9070CF002C1D7FF04C02C0F3D1F19
:10483000C0E0D0E084819581AE01420F531F841700
:1048400095071CF49C012C1B3D0B121613060CF053
:10485000EDC0CD01B7FD079643E0959587954A9544
:10486000E1F79695982F8827979587958E5C9E4FB0
:104870008C0F9D1FA770BB2741E050E00A2E01C09E
:10488000440F0A94EAF7642F0130110549F098F0BB
:104890000230110509F0CAC0FC01280F391F17C0EA
:1048A000FC01280F391FE217F30709F4BFC080810C
:1048B000862B8193F8CF4095FC01280F391FE21712
:1048C000F30709F4B3C0808184238193F8CFE21702
:1048D000F30709F4ABC0808186278193F8CF77FD79
:1048E000A5C084819581681779070CF09FC057FF98
:1048F00004C0240F351F40E050E086819781FA0103
:10490000E20FF31F8E179F071CF49C01241B350B2D
:10491000121613060CF08AC0522F842F86958695A6
:104920008695FB01B0E88B9FE00DF11D1124EE5C34
:10493000FE4F477069F168E0641B862F90E0EC0140
:10494000C65DDE4F4881261760F4DC01A21BB10969
:104950008FEF90E00A2E02C0959587950A94E2F7B2
:1049600048230130110539F048F00230110551F4A7
:104970008081842706C08081842B03C0409580817C
:1049800084238083561708F451C0561BE058FF4F0C
:104990005830A0F102301105A9F4DF01852F9C9158
:1049A00090959C93A058BF4F88508830C0F788EFEF
:1049B000850F869586958695B0E88B9FE00DF11D55
:1049C000112419C081E00130110509F080E0982F11
:1049D0009195EF01852F9883C058DF4F885088301C
:1049E000D0F788EF850F86958695869590E8899F04
:1049F000E00DF11D1124E058FF4F57705523B1F021
:104A0000A52FB0E0AE5DBE4F9C910130110539F08D
:104A100048F00230110551F48081892706C0808159
:104A2000892B03C09095808189238083DF91CF916A
:104A30001F910F910895CF92DF92EF92FF920F9303
:104A40001F93CF93DF937C018B01EA01690177FD0E
:104A5000A0C00E94A022081719070CF09AC0D7FD29
:104A600098C0C7010E94A422C817D9070CF091C0B2
:104A7000C7010E949D22823009F07FC0F701848126
:104A800095819C01201B310B890101501109868100
:104A90009781FC01EC1BFD0BEF0121970BC08130CE
:104AA00049F4F701848195818C1B9D0BE8018C01F1
:104AB00001501109F1E0CF16D10431F010F132E0CC
:104AC000C316D104E1F165C0FE01D7FD379683E03E
:104AD000F595E7958A95E1F7F695FE2FEE27F79580
:104AE000E795E00FF11FEE5CFE4FC770DD2781E018
:104AF00090E00C2E01C0880F0A94EAF79081982B61
:104B00003AC0FE01D7FD3796A3E0F595E795AA9543
:104B1000E1F7F695FE2FEE27F795E795E00FF11FE9
:104B2000EE5CFE4FC770DD2781E090E00C2E01C0E7
:104B3000880F0A94EAF78095908198231CC0FE01A3
:104B4000D7FD379663E0F595E7956A95E1F7F69519
:104B5000FE2FEE27F795E795E00FF11FEE5CFE4F75
:104B6000C770DD2781E090E00C2E01C0880F0A9409
:104B7000EAF79081982790830CC0833009F08FCF9B
:104B8000F70186819781801B910B8E01EC012197A3
:104B900091CFDF91CF911F910F91FF90EF90DF9018
:104BA000CF9008951F93CF93DF93EC01162F40E42D
:104BB00050E060E870E00E94431E86E097E0998331
:104BC00088838FEF8C8F88A38E8F8D8F1F8FDF91BF
:104BD000CF911F91089580E094E0E2E3F1E0DF01DE
:104BE0009C011D9221503040E1F70895FC0181A104
:104BF000882339F06EBD00000DB407FEFDCF8EB5E1
:104C0000089588E090E030E8A4A1B5A14C9123A5D7
:104C1000209524232C93A2A1B3A122A5432F4623A0
:104C200021F04C91422B4C9304C04C9120952423AD
:104C30002C93A4A1B5A12C9143A5242B2C9336959C
:104C4000019711F708951F93CF93DF93EC01162F6F
:104C50008C8D8F3F09F1EEA1FFA180819CA5892B4E
:104C60008083E8A5F9A590818DA58095892380830F
:104C7000EEA1FFA190818CA5809589238083CE0130
:104C80000E94F625EEA1FFA180819CA5892B80833F
:104C9000DF91CF911F9108958A8D682F772767FD47
:104CA00070958FE897E00E94D51A60E08FE897E052
:104CB0000E94821A612F8FE897E00E94821A8FE883
:104CC00097E0DF91CF911F910C94EA1A0F931F93F5
:104CD000CF93DF93EC01162F022F6B8F4A8F8C8DB1
:104CE0008F3F09F48CC061E08E8D0E948B2961E0BA
:104CF00088A10E948B2988A1992787FD9095FC01A6
:104D0000ED54F54FE491F0E0EE0FFF1FEF52F54F39
:104D1000259134913FA32EA3FC01E156F54F8491D8
:104D20008CA78E8D992787FD9095FC01ED54F54F4A
:104D3000E491F0E0EE0FFF1FEF52F54F2591349113
:104D400039A728A7FC01E156F54F84918DA789A1C9
:104D5000811134C061E08C8D0E948B2961E08D8DC2
:104D60000E948B298D8D992787FD9095FC01ED542C
:104D7000F54FE491F0E0EE0FFF1FEF52F54F259154
:104D800034913DA32CA3FC01E156F54F84918BA7F0
:104D90008C8D992787FD9095FC01ED54F54FE4919A
:104DA000F0E0EE0FFF1FEF52F54F259134913BA33A
:104DB0002AA3FC01E156F54F84918AA789A1882393
:104DC00011F10E94222880915108882399F09FB701
:104DD000F89480915108813059F48DB380934F0835
:104DE0002DB380915008809582238DBB9FBF02C058
:104DF00090934F0880E58CBD81E08DBD04C08FE8A5
:104E000097E00E94C11A0023F1F08F8D87FD1BC02F
:104E100061E00E948B2961E08F8D0E94C42961E0CE
:104E200070E080E090E00E94C52860E08F8D0E94D5
:104E3000C4296AE070E080E090E00E94C52861E04B
:104E40008F8D0E94C4296EEACE010E94232665ED53
:104E5000CE010E94232660E8CE010E94232668EA44
:104E6000CE010E9423266FE3CE010E94232663ED2C
:104E7000CE010E94232660E0CE010E94232660E43A
:104E8000CE010E9423266DE8CE010E942326113018
:104E900011F460E101C064E1CE010E94232660E2CA
:104EA000CE010E94232660E0CE010E94232661EA03
:104EB000CE010E94232668ECCE010E9423266AEDD3
:104EC000CE010E94232662E1CE010E94232661E8E2
:104ED000CE010E942326113011F46FE901C06FEC5E
:104EE000CE010E94232669EDCE010E9423261130B7
:104EF00011F462E201C061EFCE010E9423266BED46
:104F0000CE010E94232660E4CE010E94232664EA9B
:104F1000CE010E94232666EACE010E9423266EE27D
:104F2000CE010E9423266FEACE01DF91CF911F911F
:104F30000F910C942326DF92EF92FF920F931F9311
:104F4000CF93DF93EC0161E20E94232660E0CE0163
:104F50000E9423266FE7CE010E94232662E2CE0143
:104F60000E94232660E0CE010E94232667E0CE0146
:104F70000E9423268C8D8F3F31F1EEA1FFA180810D
:104F80009CA5892B8083E8A5F9A580819DA5892B07
:104F90008083EEA1FFA190818CA5809589238083D9
:104FA00002E311E0F80161918F01CE010E94F62524
:104FB000F5E002331F07B1F7EEA1FFA180819CA5A8
:104FC000892B808337C0D090B8008CE08093B800E4
:104FD00002E311E06A8D772767FD70958FE897E00F
:104FE0000E94D51AE0918F07F09190070190F0810F
:104FF000E02D60E48FE897E00995E12CF12CF801B1
:10500000EE0DFF1D60818FE897E00E94821A8FEFFE
:10501000E81AF80AE0E1EE16F10489F78FE897E064
:105020000E94EA1A005F1F4FF5E002331F0791F656
:10503000D092B800DF91CF911F910F91FF90EF9028
:10504000DF900895CF93CFB7F894809152088111E3
:1050500027C0EDEBFAE08491E9EAFAE09491E82FB9
:10506000F0E0EE0FFF1FE552F54FA591B4918C9142
:10507000892321F461E08AE00E94C42961E08AE08A
:105080000E948B298CB580618CBD8CB580648CBDF1
:1050900061E08DE00E948B2961E08BE00E948B290A
:1050A000809152088F5F80935208CFBFCF910895AF
:1050B0001F920F920FB60F9211242F933F938F934D
:1050C0009F93AF93BF938091540890915508A091FE
:1050D0005608B09157083091530823E0230F2D371D
:1050E00020F40196A11DB11D05C026E8230F0296EC
:1050F000A11DB11D20935308809354089093550827
:10510000A0935608B0935708809158089091590879
:10511000A0915A08B0915B080196A11DB11D809322
:10512000580890935908A0935A08B0935B08BF9110
:10513000AF919F918F913F912F910F900FBE0F9044
:105140001F9018953FB7F89480915808909159088E
:10515000A0915A08B0915B0826B5A89B05C02F3FC7
:1051600019F00196A11DB11D3FBF6627782F892F29
:105170009A2F620F711D811D911D42E0660F771FEE
:10518000881F991F4A95D1F708958F929F92AF92E9
:10519000BF92CF92DF92EF92FF926B017C010E944F
:1051A000A2284B015C01C114D104E104F104F1F027
:1051B0000E94792C0E94A228681979098A099B0902
:1051C000683E73408105910570F321E0C21AD10851
:1051D000E108F10888EE880E83E0981EA11CB11C3E
:1051E000C114D104E104F10429F7DDCFFF90EF9061
:1051F000DF90CF90BF90AF909F908F9008958230B6
:10520000910538F0880F991F880F991F059701970E
:10521000F1F70895789484B5826084BD84B5816087
:1052200084BD85B5826085BD85B5816085BDEEE6AE
:10523000F0E0808181608083E1E8F0E0108280818D
:1052400082608083808181608083E0E8F0E08081FB
:1052500081608083E1EBF0E0808184608083E0EB1B
:10526000F0E0808181608083EAE7F0E08081846003
:10527000808380818260808380818160808380815F
:10528000806880831092C10008958E3008F08E509F
:1052900087702091320590E4299F90011124822B80
:1052A00080937C0080917A00806480937A00809162
:1052B0007A0086FDFCCF809178002091790090E003
:1052C000922B0895833081F028F4813099F0823058
:1052D000A1F008958730A9F08830B9F08430D1F476
:1052E000809180008F7D03C0809180008F778093B4
:1052F0008000089584B58F7702C084B58F7D84BD0A
:1053000008958091B0008F7703C08091B0008F7DA9
:105310008093B0000895CF93DF9390E0FC01E156B5
:10532000F54F2491FC01ED54F54F8491882349F108
:1053300090E0880F991FFC01E552F54FA591B491BB
:105340008F52954FFC01C591D4919FB7611108C050
:10535000F8948C91209582238C93888182230AC0B3
:10536000623051F4F8948C91322F309583238C93D2
:105370008881822B888304C0F8948C91822B8C9333
:105380009FBFDF91CF9108950F931F93CF93DF932A
:105390001F92CDB7DEB7282F30E0F901E557F54F62
:1053A0008491F901E156F54F1491F901ED54F54F4F
:1053B00004910023C9F0882321F069830E946229A7
:1053C0006981E02FF0E0EE0FFF1FEF52F54FA5913E
:1053D000B4919FB7F8948C91611103C0109581230B
:1053E00001C0812B8C939FBF0F90DF91CF911F91B4
:1053F0000F910895CF93DF93282F30E0F901E557FF
:10540000F54F8491F901E156F54FD491F901ED542E
:10541000F54FC491CC2391F081110E946229EC2FA9
:10542000F0E0EE0FFF1FE953F54FA591B4912C91D9
:105430002D2381E090E021F480E002C080E090E044
:10544000DF91CF910895CF92DF92EF92FF920F9369
:105450001F93CF93DF937C016A01EB0100E010E022
:105460000C151D0571F06991D701ED91FC9101902A
:10547000F081E02DC7010995892B19F00F5F1F4FAF
:10548000EFCFC801DF91CF911F910F91FF90EF9067
:10549000DF90CF9008956115710581F0DB010D90CB
:1054A0000020E9F7AD0141505109461B570BDC01C3
:1054B000ED91FC910280F381E02D099480E090E071
:1054C00008950C944B2ADC01ED91FC910190F08140
:1054D000E02D09946AE177E00C944B2A0F931F9317
:1054E000CF93DF93EC010E944B2A8C01CE010E94E6
:1054F0006A2A800F911FDF91CF911F910F9108951C
:105500008F929F92AF92BF92DF92EF92FF920F9392
:105510001F93CF93DF93CDB7DEB7A1970FB6F89463
:10552000DEBF0FBECDBF7C01F42FD52ECB0119A25B
:10553000223008F42AE08E010F5D1F4F822E912C3D
:10554000A12CB12C6F2F7D2DA50194010E94A92EB5
:10555000F22FD32ECA01015011096A3014F4E0E38E
:1055600001C0E7E3E60FD801EC93232B242B252B76
:1055700049F7B801C7010E944B2AA1960FB6F894CB
:10558000DEBF0FBECDBFDF91CF911F910F91FF9076
:10559000EF90DF90BF90AF909F908F900895CF9243
:1055A000DF92EF92FF920F931F93CF93DF93EC0163
:1055B0006A017B012115310579F4E881F9810190B7
:1055C000F081E02D642FDF91CF911F910F91FF901B
:1055D000EF90DF90CF9009942A303105E9F477FFFE
:1055E0001AC06DE20E94632A8C0144275527BA0134
:1055F0004C195D096E097F092AE0CE010E94802ABC
:10560000800F911FDF91CF911F910F91FF90EF902D
:10561000DF90CF9008952AE0B701A601CE01DF9177
:10562000CF911F910F91FF90EF90DF90CF900C944E
:10563000802A2115310541F4DC01ED91FC910190A6
:10564000F081E02D642F09940C94802A9A01462F52
:1056500050E060E070E00C94192B9A01AB0160E01F
:1056600070E00C94192B4F925F926F927F928F9201
:105670009F92AF92BF92CF92DF92EF92FF920F93E1
:105680001F93CF93DF93EC016A017B01B22E9A0145
:10569000AB01C701B6010E94952E882319F06DE178
:1056A00077E027C026013701E89477F82FEF3FEF26
:1056B0004FE75FE7C301B2010E94952E81110DC033
:1056C0002FEF3FEF4FE75FE7C301B2010E94DF2CEE
:1056D00018161CF461E277E00CC02FEF3FEF4FE7A4
:1056E0005FE4C701B6010E942E2E1816ACF465E2E5
:1056F00077E0CE01DF91CF911F910F91FF90EF9056
:10570000DF90CF90BF90AF909F908F907F906F90E1
:105710005F904F900C944B2A2FEF3FEF4FE75FECD9
:10572000C701B6010E94DF2C87FDE1CF20E030E009
:10573000A901C701B6010E94DF2C87FF0AC06DE2F4
:10574000CE010E94632A8C01F7FAF094F7F8F094E6
:1057500002C000E010E0A12C60E070E080E09FE378
:10576000AB1441F020E030E040E251E40E94E32C31
:10577000A394F6CF9B01AC01C701B6010E947B2C1C
:105780006B017C010E94502D2B013C010E947C2D5D
:105790009B01AC01C701B6010E947A2C6B017C0110
:1057A0002AE0B301A201CE010E94802A080F191F2E
:1057B000BB2039F069E277E0CE010E944B2A080F46
:1057C000191F7B2C772041F120E030E040E251E4CA
:1057D000C701B6010E94322E6B017C010E944B2D45
:1057E0004B01AA2497FCA094BA2C2AE030E0B50122
:1057F000A401CE010E94CF2A080F191FC501B401D0
:105800000E947E2D9B01AC01C701B6010E947A2C3B
:105810006B017C017A94D6CFC801DF91CF911F91A3
:105820000F91FF90EF90DF90CF90BF90AF909F903F
:105830008F907F906F905F904F9008950C94332BD2
:105840004F925F926F927F92AF92BF92CF92DF9210
:10585000EF92FF920F931F93CF93DF93CDB7DEB7F5
:1058600029013A01621B730B840B950B29893A8934
:105870004B895C892A193B094C095D09298B3A8BB4
:105880004B8B5C8B9B01AC0169897A898B899C89E4
:105890000E94992EE418F50806091709A801970136
:1058A0000E94CB2E2A0D3B1D4C1D5D1DCA01B90166
:1058B000DF91CF911F910F91FF90EF90DF90CF90EC
:1058C000BF90AF907F906F905F904F9008950E942F
:1058D0000A2F08950E940A290E94692C0E94680CD0
:1058E000C0E0D0E00E9499182097E1F30E940000E8
:1058F000F9CF08955058BB27AA270ED075C166D19D
:1059000030F06BD120F031F49F3F11F41EF45BC1F5
:105910000EF4E095E7FB51C1E92F77D180F3BA1778
:10592000620773078407950718F071F49EF58FC11D
:105930000EF4E0950B2EBA2FA02D0B01B9019001AA
:105940000C01CA01A0011124FF27591B99F0593FEE
:1059500050F4503E68F11A16F040A22F232F342F36
:105960004427585FF3CF469537952795A795F04084
:105970005395C9F77EF41F16BA0B620B730B840B99
:10598000BAF09150A1F0FF0FBB1F661F771F881F51
:10599000C2F70EC0BA0F621F731F841F48F48795A9
:1059A00077956795B795F7959E3F08F0B3CF939598
:1059B000880F08F09927EE0F979587950895D9D00D
:1059C00008F481E008950CD00FC107D140F0FED05B
:1059D00030F021F45F3F19F0F0C0511139C1F3C02C
:1059E00014D198F39923C9F35523B1F3951B550BA3
:1059F000BB27AA2762177307840738F09F5F5F4FA2
:105A0000220F331F441FAA1FA9F333D00E2E3AF0E2
:105A1000E0E830D091505040E695001CCAF729D0FC
:105A2000FE2F27D0660F771F881FBB1F261737074B
:105A30004807AB07B0E809F0BB0B802DBF01FF277B
:105A400093585F4F2AF09E3F510568F0B6C000C1E1
:105A50005F3FECF3983EDCF3869577956795B795B5
:105A6000F7959F5FC9F7880F911D9695879597F9D0
:105A70000895E1E0660F771F881FBB1F6217730749
:105A80008407BA0720F0621B730B840BBA0BEE1F5E
:105A900088F7E095089504D06894B111D9C00895AD
:105AA000BCD088F09F5790F0B92F9927B751A0F03C
:105AB000D1F0660F771F881F991F1AF0BA95C9F7A2
:105AC00012C0B13081F0C3D0B1E00895C0C0672FDB
:105AD000782F8827B85F39F0B93FCCF38695779552
