:100000000C9466040C948E040C948E040C948E0450
:100010000C948E040C948E040C948E040C948E0418
:100020000C948E040C948E040C948E040C948E0408
:100030000C948E040C948E040C948E040C948E04F8
:100040000C940B270C948E040C941B2A0C944D2AB0
:100050000C948E040C948E040C948E040C948E04D8
:100060000C94421A0C948E04353E204241434B209E
:1000700000343E2053434F50452000333E20535020
:10008000454354415445204D4F44452000323E20C5
:100090005345542046494C544552204C204D20484D
:1000A00000313E20515541442053454152434820A0
:1000B0005241444152200020203C3C2053454C45B5
:1000C0004354204D4F4445203E3E000000000000B8
:1000D0000000000000000000000000000000000020
:1000E000000000000000000000000000000001808F
:1000F00000000000000001800000000000000180FE
:10010000000000000000F99F000000000003F99FBC
:10011000E0000000000FF99FF0000000003FF38FA7
:10012000FC000000007F83C1FF00000001FE000012
:100130003F80000003E0FFFF07C0000007C1FFFF92
:1001400083E000000FC3FFFFC1F000000F83FFFF3B
:10015000E1F800003F0FFFFFF0FC00003C1FFFFF35
:10016000F83C0000783FFFFFFC1E0000F83FFFFF57
:10017000FC0F0000F87FFFFFFE0F0001F07FFFFF84
:10018000FE0F8001E07FFFFFFE078001E07FFFFFA1
:10019000FE07C001C07FFFFFFE03C001C07FFFFF5D
:1001A000FE03C003C07FFFFFFE03C003807FFFFF8D
:1001B000FE01C003807FFFFFFF01C00383FFFFFF3D
:1001C000FF81C00383FFFFFFFF81C00783F0FFFFB4
:1001D0000F81E00783F001800F81E00383F00000CE
:1001E0000F81C00380F000000F01C00380000000F9
:1001F0000001C003806000000601C003807C018014
:100200003F01C003C07E03C03F03C001C07FFFFFAA
:10021000FE03C001C3BFFFFFFDC3C001EFFFFFFF2F
:10022000FDFFC0011FC3FE7FE1F980007F80FE7FDC
:1002300001FE0000FE007C3E007F0001F8003FFC54
:10024000001F8001EC007FFE0037C0001E007FFE13
:10025000007800001F00FFFF00F800000F80FFFF84
:1002600001F800000FC07FFE01F0000007F03FFC26
:100270000FE0000001F802401F80000000FE0000B7
:100280003F000000007F8001FE000000003FF81FDB
:10029000FC000000000FFFFFF00000000000FFFF67
:1002A0000000000000001FF8000000000000000037
:1002B000000000000000000000000000000000003E
:1002C0000000000000000000000000E916D516C183
:1002D00016AD169916851671165D16651678168B6D
:1002E000169E16B116C416D716EA164916351621EB
:1002F000160D16FD161117251739176C1680169452
:1003000016A816BC16D016E416F8161A163F166470
:10031000168916AE16D316F8161D17052A9B2991B5
:100320002987291D29132909299F2803290C291602
:10033000291F29892992299C29052A95288B2881FA
:100340002817280F2A192A832A8D2A062910291AE4
:100350002984298E299829022A0C2A1D288F2802EF
:10036000291429782999290C2A1E2A000000000046
:100370003E5B4F5B3E3E6B4F6B3E1C3E7C3E1C1813
:100380003C7E3C181C577D571C1C5E7F5E1C001871
:100390003C1800FFE7C3E7FF0018241800FFE7DB65
:1003A000E7FF30483A060E2629792926407F0505C1
:1003B00007407F05253F5A3CE73C5A7F3E1C1C08FE
:1003C000081C1C3E7F14227F22145F5F005F5F06C3
:1003D000097F017F006689956A606060606094A211
:1003E000FFA29408047E040810207E201008082A2A
:1003F0001C08081C2A08081E101010100C1E0C1EC9
:100400000C30383E3830060E3E0E0600000000006C
:1004100000005F00000007000700147F147F142411
:100420002A7F2A1223130864623649562050000896
:10043000070300001C2241000041221C002A1C7FEF
:100440001C2A08083E0808008070300008080808C8
:1004500008000060600020100804023E5149453E3B
:1004600000427F400072494949462141494D3318B5
:1004700014127F1027454545393C4A4949314121ED
:100480001109073649494936464949291E000014D1
:100490000000004034000000081422411414141419
:1004A00014004122140802015909063E415D594ECB
:1004B0007C1211127C7F494949363E414141227FDD
:1004C0004141413E7F494949417F090909013E4176
:1004D0004151737F0808087F00417F41002040415F
:1004E0003F017F081422417F404040407F021C02B0
:1004F0007F7F0408107F3E4141413E7F0909090684
:100500003E4151215E7F0919294626494949320356
:10051000017F01033F4040403F1F2040201F3F40DC
:1005200038403F6314081463030478040361594995
:100530004D43007F414141020408102000414141E8
:100540007F040201020440404040400003070800CD
:1005500020545478407F2844443838444444283850
:100560004444287F385454541800087E090218A4C3
:10057000A49C787F0804047800447D40002040401B
:100580003D007F1028440000417F40007C04780437
:10059000787C080404783844444438FC182424182F
:1005A00018242418FC7C08040408485454542404D7
:1005B000043F44243C4040207C1C2040201C3C4004
:1005C00030403C44281028444C9090907C44645423
:1005D0004C44000836410000007700000041360816
:1005E0000002010204023C2623263C1EA1A1611246
:1005F0003A4040207A385454555921555579412272
:1006000054547842215554784020545579400C1E5A
:100610005272123955555559395454545939555403
:1006200054580000457C410002457D420001457C54
:10063000407D1211127DF0282528F07C545545008C
:100640002054547C547C0A097F4932494949323A42
:100650004444443A324A4848303A4141217A3A4285
:10066000402078009DA0A07D3D4242423D3D40405B
:10067000403D3C24FF2424487E4943662B2FFC2F19
:100680002BFF0929F620C0887E09032054547941A4
:100690000000447D413048484A32384040227A00C8
:1006A0007A0A0A727D0D19317D2629292F282629DB
:1006B00029292630484D402038080808080808082D
:1006C00008382F10C8ACBA2F102834FA00007B006D
:1006D0000008142A142222142A1408550055005523
:1006E000AA55AA55AAFF55FF55FF000000FF0010AC
:1006F0001010FF00141414FF001010FF00FF101062
:10070000F010F0141414FC001414F700FF0000FFA4
:1007100000FF1414F404FC141417101F10101F1001
:100720001F1414141F00101010F0000000001F1000
:100730001010101F10101010F010000000FF10100B
:1007400010101010101010FF10000000FF14000017
:10075000FF00FF00001F10170000FC04F414141722
:1007600010171414F404F40000FF00F71414141408
:10077000141414F700F7141414171410101F101F7A
:10078000141414F4141010F010F000001F101F00C7
:1007900000001F14000000FC140000F010F0101006
:1007A000FF10FF141414FF141010101F000000009D
:1007B000F010FFFFFFFFFFF0F0F0F0F0FFFFFF0091
:1007C00000000000FFFF0F0F0F0F0F3844443844A4
:1007D000FC4A4A4A347E02020606027E027E026318
:1007E000554941633844443C04407E201E200602A3
:1007F0007E020299A5E7A5991C2A492A1C4C720180
:10080000724C304A4D4D303048784830BC625A46C0
:100810003D3E494949007E0101017E2A2A2A2A2AB1
:1008200044445F444440514A444040444A5140009B
:1008300000FF0103E080FF000008086B6B08361220
:10084000362436060F090F060000181800000010A5
:1008500010003040FF0101001F01011E00191D178B
:1008600012003C3C3C3C000000000000000008007E
:100870000201000003040700000000000000000166
:100880000204081020408001020408102001020424
:1008900008102004040404040404040202020202F6
:1008A00002030303030303000000002300260029C2
:1008B0000000000000250028002B0000000000249C
:1008C0000027002A0000D818A0197D2A11241FBE75
:1008D000CFEFD8E0DEBFCDBF17E0A0E0B1E0E8E8A1
:1008E000FFE502C005900D92A432B107D9F728E0C8
:1008F000A4E2B7E001C01D92A13FB207E1F718E002
:10090000CCECD8E004C02297FE010E94942FC63C94
:10091000D107C9F70E94072D0C94C22F0C94000038
:10092000A4E2B7E020E0FC013491332331F02E3112
:1009300021F03D9301962F5FF6CFE22FF0E0EC5DC2
:10094000F84F308384E297E0089560E08CE00E94E5
:10095000772881E090E00E94B22761E08AE00E945F
:10096000772881E090E00E94B22761E08CE00E944D
:10097000772881E090E00E94B22760E08CE00E943E
:10098000772881E090E00C94B22760E08CE00E9430
:10099000772881E090E00E94B22760E08AE00E9420
:1009A000772881E090E00E94B22761E08CE00E940D
:1009B000772881E090E00E94B22760E08CE00E94FE
:1009C000772881E090E00C94B22781E090E00E94CB
:1009D000B22760E08BE00E94772881E090E00C94E1
:1009E000B22781E090E00E94B22761E08BE00E9494
:1009F000772881E090E00C94B2271F93CF93DF9388
:100A000060910A01E62FF0E0EE0FFF1FE55EFC4F5C
:100A1000C591D49181E090E00E94B42F0E94F1042E
:100A200081E090E00E94B2270E94E5040E94C50484
:100A30000E94C5040E94C5040E94A5040E94C5042A
:100A400014E10E94C5041150E1F70E94F10462E034
:100A500070E080E090E00E94782781E090E00E94C2
:100A6000B2270E94E5040E94F1040E94E5040E945E
:100A7000A5040E94C5040E94C5040E94C5040E94EA
:100A8000A50410E1C0FF03C00E94A50402C00E949B
:100A9000C504D695C7951150A9F70E94C5040E94B8
:100AA000C5040E94C5040E94C5040E94F10481E0AF
:100AB00090E00E94B22760E08BE00E94772860E01F
:100AC0008CE00E94772860E08AE0DF91CF911F914F
:100AD0000C9477288F929F92AF92BF92CF92DF9221
:100AE000EF92FF928091470790914807019690936B
:100AF00048078093470780914507909146070196E4
:100B0000909346078093450784E10E94F827BC0133
:100B1000882777FD8095982F0E941B2E609383076E
:100B200070938407809385079093860769E170E04E
:100B300080E090E00E94782785E10E94F827BC01C0
:100B4000882777FD8095982F0E941B2E6B017C01D2
:100B500060937F077093800780938107909382074B
:100B60008090830790908407A0908507B0908607B7
:100B7000209118013091190140911A0150911B01E7
:100B8000C501B4010E94CB2E181644F480921801BE
:100B900090921901A0921A01B0921B0120911001AC
:100BA000309111014091120150911301C701B6011A
:100BB0000E94CB2E181644F4C0921001D09211015D
:100BC000E0921201F092130120911C0130911D015D
:100BD00040911E0150911F01C501B4010E947C2D5E
:100BE00087FF08C080921C0190921D01A0921E01F7
:100BF000B0921F012091140130911501409116010E
:100C000050911701C701B6010E947C2D87FF08C0D3
:100C1000C0921401D0921501E0921601F0921701D2
:100C2000A7019601C501B4010E94CB2E181624F429
:100C30001092460710924507A7019601C501B4011D
:100C40000E947C2D87FF04C010924807109247072E
:100C50008091200190E0209147073091480782174A
:100C6000930710F4109249072091450730914607E9
:100C70008217930718F481E0809349078091490710
:100C800081113BC060E08FE00E94772860912101D4
:100C900070E080E090E00E94782761E08EE00E94A2
:100CA000772860E08DE00E94772848E250E068E411
:100CB00070E081E597E00E943E2180910C0188233D
:100CC000C1F080910E018530A1F463E375E081E508
:100CD00097E00E94FE2A4AE350E06BE470E081E571
:100CE00097E00E943E216BE375E081E597E00E946A
:100CF000FE2A81E597E00E944E26809149078130C7
:100D000009F043C060E08EE00E94772860912101E5
:100D100070E080E090E00E94782761E08FE00E9420
:100D2000772861E08DE00E94772848E250E068E48F
:100D300070E081E597E00E943E2180910C018823BC
:100D4000C1F080910E018530A1F460E475E081E589
:100D500097E00E94FE2A4AE350E062E670E081E5F7
:100D600097E00E943E2168E475E081E597E00E94EB
:100D7000FE2A81E597E0FF90EF90DF90CF90BF9043
:100D8000AF909F908F900C944E26FF90EF90DF9045
:100D9000CF90BF90AF909F908F90089560E086E0D5
:100DA0000E9477286091830770918407809185075E
:100DB000909186070E94ED2D0E94782761E086E0E1
:100DC0000C9477282F923F924F925F926F927F926E
:100DD0008F929F92AF92BF92CF92DF92EF92FF924B
:100DE0000F931F93CF93DF9300D000D0CDB7DEB722
:100DF00084E10E94F827BC01882777FD8095982F11
:100E00000E941B2E6093830770938407809385074D
:100E10009093860769E170E080E090E00E94782777
:100E200085E10E94F827BC01882777FD8095982FDF
:100E30000E941B2E8B011C01B0908307C090840779
:100E4000D0908507F0908607209118013091190104
:100E500040911A0150911B016B2D7C2D8D2D9F2DE2
:100E60000E94CB2E181664F48B2D9C2DAD2DBF2D1A
:100E70008093180190931901A0931A01B0931B015C
:100E800020911001309111014091120150911301F4
:100E9000B801C1010E94CB2E181654F4C801D1012B
:100EA0008093100190931101A0931201B09313014C
:100EB00020911C0130911D0140911E0150911F0194
:100EC0006B2D7C2D8D2D9F2D0E947C2D87FF0CC0BE
:100ED0008B2D9C2DAD2DBF2D80931C0190931D015A
:100EE000A0931E01B0931F012091140130911501B0
:100EF0004091160150911701B801C1010E947C2D4B
:100F000087FF0AC0C801D101809314019093150195
:100F1000A0931601B093170180901C0190901D01C1
:100F2000A0901E01E0901F0194014A2D5E2D6B2DB3
:100F30007C2D8D2D9F2D0E947C2D87FD17C040900C
:100F400018015090190160901A0170901B019201D4
:100F5000A3016B2D7C2D8D2D9F2D0E94CB2E18165D
:100F60004CF4B42CC52CD62CF72C04C0B82CC92CAE
:100F7000DA2CFE2C8B2D9C2DAD2DBF2D809383075D
:100F800090938407A0938507B0938607409014013F
:100F90005090150160901601709017019201A30105
:100FA000B801C1010E947C2D87FD12C04090100144
:100FB0005090110160901201709013019201A301F1
:100FC000B801C1010E94CB2E181614F0280131017E
:100FD000C201D30180937F0790938007A09381077C
:100FE000B0938207B4018A2D9E2D0E94E82D2B011B
:100FF0003C01609118017091190180911A01909142
:101000001B010E94E82D9B01AC016B2D7C2D8D2DC9
:101010009F2D29833A834B835C830E94E82D1F9286
:101020001F921F9222E0922E9F9232E3A32EB12CA8
:10103000C12CD12C8301720129813A814B815C81C1
:101040000E94BD2C0E941B2E60938307709384071F
:101050008093850790938607609114017091150124
:1010600080911601909117010E94E82D2B013C01FF
:101070006091100170911101809112019091130102
:101080000E94E82D9B01AC0160917F077091800761
:10109000809181079091820729833A834B835C83F7
:1010A0000E94E82D1F921F921F929F92830172014E
:1010B00029813A814B815C810E94BD2C0E941B2EAC
:1010C0006B017C0160937F07709380078093810799
:1010D000909382070FB6F894DEBF0FBECDBF20E01D
:1010E00030E040E751E4609183077091840780917C
:1010F0008507909186070E947C2D87FD0AC020E01D
:1011000030E040E751E4C701B6010E947C2D87FF23
:1011100018C00F900F900F900F90DF91CF911F91FB
:101120000F91FF90EF90DF90CF90BF90AF909F9086
:101130008F907F906F905F904F903F902F900C9486
:10114000CE060F900F900F900F90DF91CF911F91CF
:101150000F91FF90EF90DF90CF90BF90AF909F9056
:101160008F907F906F905F904F903F902F90089559
:10117000EF92FF920F931F93CF93DF931092440748
:1011800010920E0181E597E00E949E248091440711
:101190008F3608F0DEC061E086E00E9477288091FB
:1011A00044078F5F809344070E94E206E091510755
:1011B000F09152070684F785E02DEE24E394F12C9C
:1011C00002E010E02CE730E04EE350E060E070E039
:1011D00081E597E00995E0915107F0915207068467
:1011E000F785E02D0FE310E021E030E040E050E033
:1011F00061E070E081E597E00995C0915107D091D9
:1012000052076091830770918407809185079091C0
:1012100086070E94E82DEE85FF850AE010E02AE0AF
:1012200030E0AB0162E070E081E597E00995E09184
:101230005107F09152070684F785E02D0FE310E087
:1012400021E030E040E050E06CE070E081E597E0C4
:101250000995E0915107F09152070684F785E02D3A
:1012600021E030E040E050E060E770E081E597E0A9
:101270000995C0915107D091520760917F077091F5
:10128000800780918107909182070E94E82DEE856A
:10129000FF850AE010E02AE030E0AB0161E770E092
:1012A00081E597E00995E0915107F0915207068496
:1012B000F785E02D0FE310E021E030E040E050E062
:1012C0006BE770E081E597E00995109144071C30C9
:1012D000A8F1C0915107D091520760918307709196
:1012E000840780918507909186070E94E82DA12FA1
:1012F000B0E0EE85FF8501E010E021E030E0AB01D9
:10130000BD0181E597E00995C0915107D091520741
:1013100060917F077091800780918107909182078B
:101320000E94E82DA0914407B0E0EE85FF8523E000
:1013300030E0AB01BD0181E597E0099581E597E0DB
:101340000E944E2665E070E080E090E00E947827E1
:101350001DCFDF91CF911F910F91FF90EF900895D6
:101360003F924F925F926F927F928F929F92AF9235
:10137000BF92CF92DF92EF92FF920F931F93CF9382
:10138000DF9310924E07C0E0D0E8B8E23B2E0E94F7
:10139000FD0462E370E080E090E00E947827C09353
:1013A0000A0184E10E94F8278C0162E370E080E08A
:1013B00090E00E94782780914E0790E08017910777
:1013C0008CF4055000934E0761E08DE00E94772871
:1013D0006EE170E080E090E00E94782780910A0141
:1013E00080934D0760910A0170E080E090E01F92C9
:1013F0001F921F92DF93A12CB12C650118E2E12E00
:10140000F12C00E010E020E030E0A9010E94BD2CAA
:101410002B013C0184E10E94F827BC01882777FD5D
:101420008095982F1F921F921F923F92EFE3AE2E4E
:10143000B12CC12CD12C1CE2E12EFF24F39400E04E
:1014400010E024E630E040E050E00E94BD2C4B016B
:101450005C0181E597E00E949E2461E081E597E0D0
:101460000E94442144E150E067E170E081E597E0AB
:101470000E943E216DE475E081E597E00E94FE2A1E
:1014800048E250E060E470E081E597E00E943E2190
:101490004AE050E060910A0181E597E00E94C32B89
:1014A000E0915107F09152070684F785E02DEE2474
:1014B000E394F12C0EE010E022E030E0A401B20150
:1014C00081E597E0099581E597E00E944E266AE064
:1014D00070E080E090E00E94782760E08DE00E945C
:1014E0007728CF5F8DB79EB708960FB6F8949EBF4A
:1014F0000FBE8DBFC83209F04ACF62E370E080E0D2
:1015000090E00E94782780914D07815080930A01D6
:101510000E94FD0481E597E00E949E2444E150E092
:1015200067E170E081E597E00E943E216CE575E09F
:1015300081E597E00E94FE2A62E081E597E00E9443
:10154000442148E250E064E170E081E597E00E94C8
:101550003E214AE050E060910A0181E597E00E9457
:10156000C32B61E081E597E00E94442140E350E015
:1015700068E470E081E597E00E943E2180910A01D5
:10158000803230F08F5180934D076CE675E01AC0C1
:10159000883130F0875180934D0763E775E012C0C2
:1015A000803130F08F5080934D076DE775E00AC0B1
:1015B000883030F0875080934D076FE775E002C0A8
:1015C00061E875E081E597E00E94FE2A48E250E07C
:1015D00068E470E081E597E00E943E214AE050E037
:1015E00060914D0781E597E00E94C32B81E597E06C
:1015F0000E944E2664E175E080E090E0DF91CF919B
:101600001F910F91FF90EF90DF90CF90BF90AF9020
:101610009F908F907F906F905F904F903F900C9431
:1016200078278F929F92AF92BF92CF92DF92EF92E4
:10163000FF920F931F93CF93DF9381E597E00E9472
:101640009E2482E00E94AD2821E0892B09F420E04D
:1016500020930D0183E00E94AD2821E0892B09F43D
:1016600020E020930C0184E00E94AD2821E0892B2A
:1016700009F420E020930B0180910C01811110925C
:10168000430780910D0181113CC080910A018F5F59
:10169000873208F087E280930A0181E597E00E9493
:1016A0009E2464E081E597E00E94442144E150E0FB
:1016B00060E070E081E597E00E943E2163E875E01C
:1016C00081E597E00E94FE2A81E597E00E944E2680
:1016D00068EC70E080E090E00E94782761E081E5AE
:1016E00097E00E9444210E94FD048BE290E09093D9
:1016F0004B0780934A076AE070E080E090E00E9428
:10170000782780910B01811139C080910A018150A5
:1017100080930A0181E597E00E949E2464E081E5C0
:1017200097E00E94442144E150E060E070E081E5F0
:1017300097E00E943E216BE875E081E597E00E940A
:10174000FE2A81E597E00E944E2668EC70E080E07A
:1017500090E00E94782761E081E597E00E944421B3
:101760000E94FD048BE290E090934B0780934A0720
:101770006AE070E080E090E00E94782780910C01A0
:10178000811120C2809143078F5F8093430710929D
:101790004407C0914407CA3008F5CF5FC09344079F
:1017A00081E597E00E9457212C2F30E0220F331F54
:1017B00097FD0196AC015595479501E010E06FE368
:1017C00070E081E597E00E94171D81E597E00E9497
:1017D0004E2661E08DE00E947728DBCF80914307A1
:1017E000853010F01092430780914307813009F053
:1017F0008AC081E597E00E949E2462E081E597E03F
:101800000E94442144E150E060E070E081E597E00F
:101810000E943E2164E975E081E597E00E94FE2A7E
:1018200081E597E00E944E2668E572E080E090E056
:101830000E94782761E081E597E00E94442181E5DC
:1018400097E00E949E2464E670E080E090E00E94B1
:10185000782783E00E94AD2821E0892B09F420E05D
:1018600020930C01222309F437C51092430781E528
:1018700097E00E949E2462E081E597E00E94442167
:1018800044E150E060E070E081E597E00E943E2195
:101890006DE975E081E597E00E94FE2A81E597E019
:1018A0000E944E2680910A01885F873208F087E205
:1018B00080930A010E94FD0480E590E090934B071D
:1018C00080934A0760E471E080E090E00E9478270E
:1018D00061E081E597E00E94442181E597E00E9464
:1018E0009E2460E471E080E090E0DF91CF911F9151
:1018F0000F91FF90EF90DF90CF90BF90AF909F90AF
:101900008F900C947827823009F078C081E597E0B9
:101910000E949E2462E081E597E00E94442144E118
:1019200050E060E070E081E597E00E943E2162EACD
:1019300075E081E597E00E94FE2A81E597E00E942C
:101940004E2668E572E080E090E00E94782761E032
:1019500081E597E00E94442181E597E00E949E2462
:1019600083E00E94AD2821E0892B09F420E0209338
:101970000C01222309F4B0C41092430781E597E0DB
:101980000E949E2462E081E597E00E94442144E1A8
:1019900050E060E070E081E597E00E943E216DE953
:1019A00075E081E597E00E94FE2A81E597E00E94BC
:1019B0004E2680910A01885080930A010E94FD04FE
:1019C00080E590E090934B0780934A0760E471E0D4
:1019D00080E090E00E94782761E081E597E00E9436
:1019E000442181E597E00E949E2460E471E080E05C
:1019F00090E00E947827109242076EC4833009F06D
:101A000068C081E597E00E949E2462E081E597E04E
:101A10000E94442144E150E060E070E081E597E0FD
:101A20000E943E216BEA75E081E597E00E94FE2A64
:101A300081E597E00E944E2668E572E080E090E044
:101A40000E94782781E597E00E949E2483E00E940F
:101A5000AD2821E0892B09F420E020930C012223FA
:101A600009F43AC41092430781E597E00E949E244E
:101A700062E081E597E00E94442144E150E060E0AB
:101A800070E081E597E00E943E216DE975E081E517
:101A900097E00E94FE2A81E597E00E944E2660E4CE
:101AA00071E080E090E00E94782761E081E597E0B6
:101AB0000E94442181E597E00E949E2460E471E049
:101AC00080E090E00E9478270E94B00985E0809332
:101AD0000E0180914307843009F065C081E597E0ED
:101AE0000E949E2462E081E597E00E94442144E147
:101AF00050E060E070E081E597E00E943E2166EBF7
:101B000075E081E597E00E94FE2A81E597E00E945A
:101B10004E2668E572E080E090E00E94782781E53B
:101B200097E00E949E2483E00E94AD2821E0892B4B
:101B300009F420E020930C01222309F4CDC3109274
:101B4000430781E597E00E949E2462E081E597E0EB
:101B50000E94442144E150E060E070E081E597E0BC
:101B60000E943E216DE975E081E597E00E94FE2A22
:101B700081E597E00E944E2660E471E080E090E00D
:101B80000E94782761E081E597E00E94442181E589
:101B900097E00E949E2460E471E080E090E00E9463
:101BA000782710920E0161E081E597E00E944421C0
:101BB00081E597E00E949E2460E471E080E090E07F
:101BC0000E9478278FE00E94F82790935007809317
:101BD0004F0764E170E080E090E00E9478270E9467
:101BE000E20680914A0790914B07019690934B072C
:101BF00080934A0781E597E00E949E2480914A07DE
:101C000090914B07889708F00EC1CC24C394D12C37
:101C100090E4E92EF12C00E410E02BEC30E041E000
:101C200050E061E070E081E597E00E94351E20E021
:101C300030E040E85EE360917F077091800780911B
:101C40008107909182070E94CF2E0E94E82D01E02B
:101C500010E09B014FE050E061E270E081E597E029
:101C60000E94171D20E030E040E85EE360918307AA
:101C70007091840780918507909186070E94CF2EEE
:101C80000E94E82D9B014FE050E061E270E081E5A9
:101C900097E00E94171D20E030E040E85EE360918D
:101CA00083077091840780918507909186070E9431
:101CB000CF2E0E94E82D9B014AE250E061E170E0E6
:101CC00081E597E00E94171D20E030E040E85EE3E8
:101CD00060918307709184078091850790918607B2
:101CE0000E94CF2E0E94E82D9B014AE250E060E363
:101CF00070E081E597E00E94171D20E030E040E0B1
:101D00005FE360917F0770918007809181079091D8
:101D100082070E94CF2E0E94E82D9B0141E250E0F5
:101D200061E270E081E597E00E94171D20E030E05D
:101D300040E05FE36091830770918407809185079D
:101D4000909186070E94CF2E0E94E82D9B0141E2D0
:101D500050E061E270E081E597E00E94171D20E00D
:101D600030E040EC50E460917F07709180078091F3
:101D70008107909182070E94802D0E94E82D9B018F
:101D80004FE050E061E270E081E597E00E94171DAE
:101D900020E030E040EC50E46091830770918407CC
:101DA00080918507909186070E94802D0E94E82DE2
:101DB0009B014FE050E061E270E081E597E00E9416
:101DC000171D20E030E040EC50E4609183077091F3
:101DD000840780918507909186070E94802D0E943C
:101DE000E82D9B014AE250E061E170E081E597E077
:101DF0000E94171D20E030E040EC50E46091830722
:101E00007091840780918507909186070E94802DAC
:101E10000E94E82D9B014AE250E060E370E081E51A
:101E200097E00E94171D80914A0790914B07899770
:101E3000879708F0CEC08FE00E94F8279093500754
:101E400080934F07BC0180E090E01F921F921F9289
:101E50001F9212E3A12EB12CC12CD12CE12CF12C1C
:101E6000870120E034E040E050E00E94BD2C7093F8
:101E7000500760934F076AE070E080E090E00E94B6
:101E80007827E0915107F09152070684F785E02DFD
:101E9000EE24E394F12C0FE310E021E030E040E089
:101EA00050E06EE170E081E597E00995E09151071F
:101EB000F091520740914F07509150070684F785E3
:101EC000E02D2EE130E061E270E081E597E00995D8
:101ED000E0915107F09152070684F785E02D21E04B
:101EE00030E040E050E060E470E081E597E0099583
:101EF000E0915107F09152070684F785E02DE12C1F
:101F0000F12C08E210E025E030E045E250E06DE21F
:101F100070E081E597E00995E0915107F091520753
:101F20000684F785E02D0FE310E02FE030E048E273
:101F300050E068E270E081E597E0099542E350E007
:101F400060E070E081E597E00E943E216DEB75E076
:101F500081E597E00E94FE2A40914F07509150077B
:101F600068E070E081E597E00E943E218FE00E94EA
:101F7000F8279093500780934F07BC0180E090E0D2
:101F80001F921F921F922CE32F93A12CB12C65015D
:101F9000E12CF12C870120E034E040E050E00E9489
:101FA000BD2C7093500760934F074AE050E081E5E5
:101FB00097E00E94CA2B6DEE75E081E597E00E94E4
:101FC000FE2A8DB79EB708960FB6F8949EBF0FBE37
:101FD0008DBF80914A0790914B07815591090E97CB
:101FE000D0F445E050E06AE070E081E597E00E94BF
:101FF0003E2168E081E597E00E9444214AE050E0FC
:1020000060914D0781E597E00E94C32B61E081E577
:1020100097E00E94442180914A0790914B078036B7
:102020009105D0F14AE050E06AE070E081E597E088
:102030000E943E2162E081E597E00E944421E09108
:102040000A01F0E0EE0FFF1FE553FD4F659174911B
:102050004AE050E081E597E00E94CA2B43E250E05D
:102060006AE070E081E597E00E943E2162EC75E055
:1020700081E597E00E94FE2A61E081E597E00E94F9
:10208000442180914A0790914B078437910520F0B5
:1020900010924B0710924A07809083079090840714
:1020A000A0908507B090860720E030E040EA51E438
:1020B000C501B4010E947C2D87FD12C0C0907F072E
:1020C000D0908007E0908107F090820720E030E018
:1020D00040EA51E4C701B6010E947C2D87FF0BC086
:1020E0004DE050E067E470E081E597E00E943E211A
:1020F00066EC75E01EC020E030E04CE052E4C50123
:10210000B4010E94CB2E1816F4F420E030E04CE02D
:1021100052E4C701B6010E94CB2E1816A4F44DE07C
:1021200050E067E470E081E597E00E943E2160EDB9
:1021300075E081E597E00E94FE2A6AE070E080E0A9
:1021400090E00E94782761E070E081E597E00E94CE
:102150004A2161E081E597E00E94442140E050E09F
:1021600062E070E081E597E00E943E216AED75E053
:1021700081E597E00E94FE2A4AE050E060914D0719
:1021800081E597E00E94C32B6CEE75E081E597E056
:102190000E94FE2A6AE070E080E090E00E947827CA
:1021A000E0915107F09152070684F785E02DEE2467
:1021B000E394F12C02E010E027E330E04BE150E043
:1021C00068E470E081E597E00995C0915107D091EE
:1021D00052076091830770918407809185079091E1
:1021E00086070E94E82DEE85FF859B014DE150E0BA
:1021F00068E470E081E597E00995C0915107D091BE
:10220000520760917F0770918007809181079091BC
:1022100082070E94E82DEE85FF859B0142E250E097
:1022200068E470E081E597E00995E0915107F0914D
:1022300052070684F785E02D27E330E044E250E0C2
:1022400068E470E081E597E0099540E350E068E4D8
:1022500070E081E597E00E943E2180910A01803282
:1022600030F08F5180934D076CE675E01AC08831CD
:1022700030F0875180934D0763E775E012C08031DD
:1022800030F08F5080934D076DE775E00AC08830BD
:1022900030F0875080934D076FE775E002C061E82A
:1022A00075E081E597E00E94FE2A81E597E00E94B3
:1022B0004E266AE070E080E090E00E9478278091EE
:1022C0000A01883210F010920A0180910A018111EE
:1022D00003C087E280930A01DF91CF911F910F9194
:1022E000FF90EF90DF90CF90BF90AF909F908F9036
:1022F0000895DF92EF92FF920F931F93CF93DF9396
:1023000000D000D0CDB7DEB7DD24D39480914C0748
:102310008111BBC10E94E20683E00E94AD2821E04A
:10232000892B09F420E020930C0164E170E080E047
:1023300090E00E94782780910C01811102C0D09218
:102340004C0745E350E06DE270E081E597E00E94C4
:102350003E214091830750918407609185077091D9
:10236000860722E030E081E597E00E94BB2C609177
:1023700083077091840780918507909186070E945A
:10238000E82D9B01AC0181E597E029833A834B83DB
:102390005C830E94572129813A8197FD019695958A
:1023A000879501E010E0AC0169E170E081E597E01C
:1023B0000E94171D20E030E040E05FE3609183075A
:1023C0007091840780918507909186070E94CF2E97
:1023D0000E94E82D9B01AC0181E597E029833A83B7
:1023E0004B835C830E94572129813A8197FD019696
:1023F0009595879501E010E0AC0169E170E081E519
:1024000097E00E94171D20E030E040EA50E4609120
:1024100083077091840780918507909186070E94B9
:10242000802D0E94E82D9B01AC0181E597E0298376
:102430003A834B835C830E94572129813A8197FD1F
:1024400001969595879501E010E0AC0169E170E097
:1024500081E597E00E94171D81E597E00E944E26D6
:102460006FE070E080E090E00E94782781E597E0DF
:102470000E949E2445E350E06DE270E081E597E024
:102480000E943E2140918307509184076091850707
:102490007091860722E030E081E597E00E94BB2C36
:1024A00060917F07709180078091810790918207EA
:1024B0000E94E82D9B01AC0181E597E029833A83D6
:1024C0004B835C830E94572129813A8197FD0196B5
:1024D0009595879501E010E0AC0166E670E081E536
:1024E00097E00E94171D20E030E040E05FE360913C
:1024F0007F077091800780918107909182070E94E9
:10250000CF2E0E94E82D9B01AC0181E597E0298345
:102510003A834B835C830E94572129813A8197FD3E
:1025200001969595879501E010E0AC0166E670E0B4
:1025300081E597E00E94171D20E030E040EA50E47A
:1025400060917F0770918007809181079091820749
:102550000E94802D0E94E82D9B01AC0181E597E04F
:1025600029833A834B835C830E94572129813A81D6
:1025700097FD01969595879501E010E0AC0166E620
:1025800070E081E597E00E94171D81E597E00E94C9
:102590004E266FE070E080E090E00E94782781E5B1
:1025A00097E00E949E2445E350E06DE270E081E5F3
:1025B00097E00E943E2140918307509184076091EB
:1025C00085077091860722E030E081E597E00E9460
:1025D000BB2C009151071091520720917F07309139
:1025E0008007409181075091820760918307709125
:1025F000840780918507909186070E94172D0E947D
:10260000E82DD8011E96ED91FC911F97EE24E394DE
:10261000F12C06E010E025E030E0AB0167E170E06E
:1026200081E597E00995009151071091520720919B
:102630008307309184074091850750918607609108
:102640007F077091800780918107909182070E9497
:10265000172D0E94E82DD8011E96ED91FC911F9731
:1026600006E010E025E030E0AB0164E670E081E5D3
:1026700097E0099581E597E00E944E266FE070E0B3
:1026800080E090E00E94782741CE10924C07109293
:102690000E010F900F900F900F90DF91CF911F912F
:1026A0000F91FF90EF90DF900895CF92DF92EF921D
:1026B000FF920F931F9326E040E855E260E070E040
:1026C00084E598E00E94B92961E08DE00E943E28EF
:1026D00061E08EE00E943E2861E08FE00E943E288B
:1026E00061E086E00E943E2860E086E00E94772854
:1026F00061E086E00E94772861E08BE00E943E283E
:1027000061E08AE00E943E2861E08CE00E943E2861
:1027100061E08DE00E94772821E04CE362E081E5F2
:1027200097E00E94192581E597E00E949E24CC2421
:10273000C394D12C70E4E72EF12C00E410E02BECD4
:1027400030E040E050E06EE170E081E597E00E940B
:10275000351E81E597E00E944E266CED75E080E025
:1027600090E00E94782781E597E00E949E2461E036
:1027700070E081E597E00E944A2161E081E597E001
:102780000E94442144E150E06AE070E081E597E076
:102790000E943E216FEE75E081E597E00E94FE2ADF
:1027A00048E250E06CE070E081E597E00E943E2155
:1027B00060E076E081E597E00E94FE2A81E597E0FF
:1027C0000E944E2661E081E597E00E9444216CED75
:1027D00075E080E090E00E94782781E597E00E9414
:1027E0009E2461E08DE00E94772864E170E080E043
:1027F00090E00E94782781E090E00E94AC2F8093C7
:102800000A0182E090E00E94AC2F809320016AE0F0
:1028100070E080E090E00E94782761E08EE00E9406
:10282000772860E08FE00E94772864E670E080E01F
:1028300090E00E9478270E94FD046AE070E080E04A
:1028400090E00E94782760E082E00E943E2862E0EB
:1028500082E00E94772860E083E00E943E2862E0E8
:1028600083E00E94772860E084E00E943E2862E0D6
:1028700084E00E94772882E00E94AD2821E0892B25
:1028800009F420E020930D0183E00E94AD2821E0AF
:10289000892B09F420E020930C0184E00E94AD28EC
:1028A00021E0892B09F420E020930B0180910C0199
:1028B000811130C081E597E00E949E2462E081E5AD
:1028C00097E00E94442144E150E060E070E081E53F
:1028D00097E00E943E2160E176E081E597E00E946A
:1028E000FE2A81E597E00E944E2668EC70E080E0C9
:1028F00090E00E94782761E081E597E00E94442102
:1029000010924E071F910F91FF90EF90DF90CF90A4
:102910000C9479111F910F91FF90EF90DF90CF9061
:102920000895AF92BF92CF92DF92EF92FF920F93F2
:102930001F9380910A018F5F80930A0182E00E94B9
:10294000AD2821E0892B09F420E020930D0183E0DC
:102950000E94AD2821E0892B09F420E020930C018E
:1029600084E00E94AD2821E0892B09F420E0209327
:102970000B01222321F080910D01811162C0809111
:102980000F018F5F80930F0161E08DE00E94772837
:1029900080910F01843018F081E080930F018091C5
:1029A0000F01811103C081E080930F0181E597E061
:1029B0000E949E2461E081E597E00E94442144E169
:1029C00050E060E270E081E597E00E943E216CE11A
:1029D00076E081E597E00E94FE2A48E250E06EE151
:1029E00070E081E597E00E943E2180910F018130E7
:1029F00019F467E276E009C0823019F461E376E009
:102A000004C0833031F46BE376E081E597E00E9407
:102A1000FE2A81E597E00E944E2668EE73E080E092
:102A200090E00E94782760E086E00E9477286CE2C0
:102A300071E080E090E00E94782761E086E00E94EB
:102A4000772880910C01811143C081E597E00E94B5
:102A50009E2461E081E597E00E94442144E150E03A
:102A600060E270E081E597E00E943E2166E476E056
:102A700081E597E00E94FE2A81E597E00E944E26BC
:102A800068EE73E080E090E00E94782781E597E0AF
:102A90000E949E2461E081E597E00E94442160E06D
:102AA00086E00E9477286CE271E080E090E00E946E
:102AB000782761E086E00E94772810920E011F912E
:102AC0000F91FF90EF90DF90CF90BF90AF9008955F
:102AD00080910F01813039F480910A018832B0F081
:102AE00010920A0113C0823039F480910A01805299
:102AF000883060F080E208C0833041F480910A01A0
:102B00008851883018F088E180930A0160E08DE0F8
:102B10000E94772884E10E94F827BC01882777FD6E
:102B20008095982F1F921F921F9224E62F93A12C1D
:102B3000B12C65011CE2E12EFF24F39400E010E0CB
:102B400020E530E040E050E00E94BD2C0E941B2EAA
:102B50006B017C010F900F900F900F9020E030E000
:102B600046E952E40E94CB2E18160CF06AC061E0D0
:102B70008DE00E94772881E597E00E949E2462E024
:102B800081E597E00E94442140E050E065E070E07C
:102B900081E597E00E943E2161E576E081E597E0DE
:102BA0000E94FE2A49E150E064E170E081E597E08F
:102BB0000E943E216CE576E081E597E00E94FE2AC6
:102BC0004AE050E060910A0181E597E00E94C32B42
:102BD00061E081E597E00E94442142E350E064E136
:102BE00070E081E597E00E943E2162E676E081E5B3
:102BF00097E00E94FE2A80910A01803218F06CE66C
:102C000075E011C0883118F063E775E00CC08031C1
:102C100018F06DE775E007C0883018F06FE775E0D1
:102C200002C061E875E081E597E00E94FE2A81E537
:102C300097E00E944E2668EB7BE080E090E00E94E7
:102C400078270E94FD0481E597E00E949E2461E0C0
:102C500081E597E00E94442161E070E081E597E022
:102C60000E944A2140E050E064E170E081E597E095
:102C70000E943E2168E676E081E597E00E940B2BFA
:102C80004DE050E060E270E081E597E00E943E2177
:102C900068E776E081E597E00E94FE2A22E030E0D6
:102CA000B701A60181E597E00E94BB2C4EE150E000
:102CB00060E270E081E597E00E943E2160E876E006
:102CC00081E597E00E94FE2A62E081E597E00E949C
:102CD000442142E350E067E370E081E597E00E9421
:102CE0003E214AE050E060910A0181E597E00E94B0
:102CF000C32B81E597E01F910F91FF90EF90DF903C
:102D0000CF90BF90AF900C944E2682E00E94AD28E9
:102D100021E0892B09F420E020930D0183E00E943B
:102D2000AD2821E0892B09F420E020930C0184E0F8
:102D30000E94AD2821E0892B09F420E020930B01AB
:102D400080910D01811113C08091200181508093E9
:102D5000200160E086E00E94772864E670E080E071
:102D600090E00E94782761E086E00E9477288091B9
:102D70000C01811110C010920E0160E086E00E94EB
:102D8000772864E670E080E090E00E94782761E0B8
:102D900086E00E94772880910B01811113C08091F9
:102DA00020018F5F8093200160E086E00E947728F9
:102DB00064E670E080E090E00E94782761E086E0C1
:102DC0000E947728809120018A3118F085E0809355
:102DD000200180912001853018F485E08093200146
:102DE0006091200182E090E00E94B42F81E597E09D
:102DF0000E949E2461E081E597E00E94442140E02A
:102E000050E062E070E081E597E00E943E216BE8CF
:102E100076E081E597E00E94FE2A44E150E06DE310
:102E200070E081E597E00E943E214AE050E0609129
:102E3000200181E597E00E94C32B48E250E060E268
:102E400070E081E597E00E943E21809120018B3067
:102E500030F46EE976E081E597E00E94FE2A8091E9
:102E600020018B50843030F469EA76E081E597E008
:102E70000E94FE2A809120018F3030F067EB76E0CF
:102E800081E597E00E94FE2A81E597E00E944E26A8
:102E900060E08DE00C947728EF92FF920F931F93E0
:102EA000CF93DF930E946A0580910E01813041F437
:102EB000DF91CF911F910F91FF90EF900C947911BA
:102EC000823041F4DF91CF911F910F91FF90EF90ED
:102ED0000C948516833041F4DF91CF911F910F91AF
:102EE000FF90EF900C949114843041F4DF91CF91D6
:102EF0001F910F91FF90EF900C94B808853041F42A
:102F0000DF91CF911F910F91FF90EF900C94110BD7
:102F100082E00E94AD2821E0892B09F420E0209373
:102F20000D0183E00E94AD2821E0892B09F420E007
:102F300020930C0184E00E94AD2821E0892B09F444
:102F400020E020930B0180910D01811113C080912D
:102F50000F01815080930F0160E086E00E94772886
:102F600064E670E080E090E00E94782761E086E00F
:102F70000E94772880910C01811112C080910F016D
:102F800080930E0160E086E00E94772864E670E09E
:102F900080E090E00E94782761E086E00E94772838
:102FA00080910B01811113C080910F018F5F80937D
:102FB0000F0160E086E00E94772864E670E080E020
:102FC00090E00E94782761E086E00E947728809157
:102FD0000F01863018F085E080930F0180910F017A
:102FE000811103C081E080930F0181E597E00E9489
:102FF0009E2461E081E597E00E944421E091510721
:10300000F0915207C685D78581E597E00E9453214C
:1030100040910F012AE0429FA00111244D5F5F4FB4
:10302000EE24E394F12C0AE010E09C0160E070E0F3
:1030300081E597E0FE01099561E070E080910F0164
:10304000811102C060E070E081E597E00E944A21B2
:1030500040E050E060E070E081E597E00E943E21B2
:1030600087EB90E00E949004BC0181E597E00E940C
:10307000FE2A61E070E080910F01813011F460E080
:1030800070E081E597E00E944A214FE050E062E065
:1030900070E081E597E00E943E2181EA90E00E9485
:1030A0009004BC0181E597E00E94FE2A61E070E097
:1030B00080910F01823011F460E070E081E597E0CB
:1030C0000E944A2149E150E062E070E081E597E02A
:1030D0000E943E218DE890E00E949004BC0181E5B1
:1030E00097E00E94FE2A61E070E080910F0183303A
:1030F00011F460E070E081E597E00E944A2143E22C
:1031000050E062E070E081E597E00E943E218BE7AD
:1031100090E00E949004BC0181E597E00E94FE2AA5
:1031200061E070E080910F01843011F460E070E0A4
:1031300081E597E00E944A214DE250E062E070E0B4
:1031400081E597E00E943E2181E790E00E94900493
:10315000BC0181E597E00E94FE2A61E070E0809169
:103160000F01853011F460E070E081E597E00E9486
:103170004A2147E350E062E070E081E597E00E9479
:103180003E2188E690E00E949004BC0181E597E032
:103190000E94FE2A81E597E00E944E2660E08DE0C5
:1031A000DF91CF911F910F91FF90EF900C947728B2
:1031B00064E081E597E00C9485248091B70790E066
:1031C0002091B807821B910908952091B80780913A
:1031D000B707281750F4E22FF0E0E754F84F80814A
:1031E00090E02F5F2093B80708958FEF9FEF089529
:1031F000E091B8078091B707E81730F4F0E0E754A2
:10320000F84F808190E008958FEF9FEF0895089523
:10321000CF92DF92EF92FF920F931F93CF93DF93A2
:103220007C01CB018A0120919307222389F0EB01D5
:103230006B01C40ED51ECC15DD0569F06991D7016F
:10324000ED91FC910190F081E02DC7010995F3CF3C
:10325000642F0E94191AC801DF91CF911F910F911D
:10326000FF90EF90DF90CF900895CF93DF931F9260
:10327000CDB7DEB76983209193072223D1F0209147
:103280009407203240F021E030E0FC0133832283B8
:1032900080E090E015C080919507E82FF0E0EA56B5
:1032A000F84F998190838F5F80939507809394075F
:1032B00005C061E0CE0101960E94191A81E090E0FC
:1032C0000F90DF91CF910895FC011382128248EE96
:1032D00053E060E070E0448355836683778387EC36
:1032E00096E09183808308951092B8071092B707F3
:1032F00010929507109294070C94A41981E0809382
:1033000093076093B607109295071092940708955B
:103310000C947E190F93062F21E04091940766E9E3
:1033200077E08091B6070E94C2191092950710921B
:103330009407109293070F91089561E00C948A19F5
:1033400087E897E00C9464191092460881E0809316
:1033500044081092430861E082E10E94772861E00E
:1033600083E10E947728E9EBF0E080818E7F808303
:1033700080818D7F808388E48093B80085E480938A
:10338000BC0008950F93413208F04AC0909146085E
:103390009111FCCF92E090934608009344089FEF70
:1033A0009093D90710921E0840931D08FB016FE10E
:1033B00078E0DB019A2F961B941718F491919D9356
:1033C000F9CF1092450890914508880F892B80937A
:1033D000450880914308813061F410924308809140
:1033E00045088093BB008091BC0083FDF8CF85EC3D
:1033F00001C085EE8093BC00222321F08091460815
:103400008230E1F38091D9078F3F61F08091D90735
:10341000803251F08091D907803341F483E007C0B6
:1034200081E005C080E003C082E001C084E00F912C
:103430000895613298F420914608243089F460930D
:10344000FB07FC018DEF97E0DC012A2F281B2617D4
:1034500018F421912D93F9CF80E0089581E008952B
:1034600082E0089585ED8093BC008091BC0084FDCE
:10347000FCCF10924608089585EC8093BC00109212
:10348000460808951F920F920FB60F9211242F93A2
:103490003F934F935F936F937F938F939F93AF93DC
:1034A000BF93EF93FF938091B900887F803609F432
:1034B0009EC078F5883209F45DC090F4803109F43B
:1034C00056C038F4882309F4F5C0883009F44FC099
:1034D000F5C0883109F44EC0803209F45FC0EEC0F7
:1034E000803409F46AC058F4803309F457C0883333
:1034F00009F0E4C08093D9070E943C1ADFC08035F0
:1035000009F44FC0883509F45DC0883409F0D6C08D
:10351000D3C0883909F4C4C0A8F4883709F467C057
:1035200038F4883609F463C0803709F460C0C6C037
:10353000883809F4B5C0803909F45FC0803809F0D3
:10354000BDC05BC0803B09F483C038F4803A09F405
:1035500066C0883A09F47CC0B1C0803C09F4A4C0BC
:10356000883C09F4A1C0883B09F487C0A7C08091BA
:10357000450810C090911E0880911D08981770F59D
:10358000E0911E0881E08E0F80931E08F0E0E15E5E
:10359000F74F80818093BB0085EC83C08093D9076F
:1035A0008BC0E0911E0881E08E0F80931E088091F1
:1035B000BB00F0E0E15EF74F808390911E088091A0
:1035C0001D086BC0E0911E0881E08E0F80931E08DD
:1035D0008091BB00F0E0E15EF74F8083809144086A
:1035E00081116AC081E08093430884EA5EC083E071
:1035F000809346081092DA07CFCF8091DA078032A5
:1036000008F04EC0E091DA0781E08E0F8093DA0770
:103610008091BB00F0E0E552F84F8083BDCF0E945F
:103620003C1A8091DA07803230F4E091DA07F0E05A
:10363000E552F84F10826091DA0770E0E0913F08A0
:10364000F09140088BED97E009951092DA0736C0AB
:1036500084E0809346081092FC071092FB07E091EB
:103660004108F091420809958091FB07811105C03E
:1036700081E08093FB071092FD07E091FC0781E059
:103680008E0F8093FC07F0E0E350F84F8081809329
:10369000BB009091FC078091FB07981708F47CCF42
:1036A00085E88093BC000AC085EC8093BC00109232
:1036B000460804C01092D9070E94321AFF91EF9178
:1036C000BF91AF919F918F917F916F915F914F913A
:1036D0003F912F910F900FBE0F901F9018952F9232
:1036E0003F924F925F926F927F928F929F92AF9292
:1036F000BF92CF92DF92EF92FF920F931F93CF93DF
:10370000DF9300D000D0CDB7DEB74C017C836B8354
:103710006A015901C8018701AC014C195D0957FFC5
:1037200003C051954195510995016B817C81261B00
:10373000370B37FF03C0319521953109222423949B
:10374000312C2417350714F0212C312C211431048D
:1037500059F03A2D2B2D5C01832F922F3B812C8128
:10376000DC82CB82C32ED22EAB81BC81AA16BB06D3
:103770005CF43C2D2D2D6C01832F922F3B812C81ED
:10378000BC82AB82A32EB22E2501EB81FC814E1AA6
:103790005F0A3C016C187D0877FE03C07194619448
:1037A0007108720157FE03C0FFEFEF1AFF0AF5948C
:1037B000E794C816D9062CF421E030E03A83298337
:1037C00024C06FEF7FEF7A8369831FC0D401ED912E
:1037D000FC910480F581E02D980121143104D9F089
:1037E0004B815C81B601C4010995E618F708F7FE24
:1037F00006C0E981FA81CE0EDF1EE40CF51C2B8198
:103800003C812F5F3F4F3C832B836B817C81A616CD
:10381000B706E4F604C0A6016B817C81E4CF0F906B
:103820000F900F900F90DF91CF911F910F91FF900C
:10383000EF90DF90CF90BF90AF909F908F907F9050
:103840006F905F904F903F902F9008956F927F926E
:103850008F929F92AF92BF92CF92DF92EF92FF92A0
:103860000F931F93CF93DF93EC015B016A01390142
:103870004801E881F9810284F385E02D87010995EB
:10388000E881F981A601480D591D41505109028472
:10389000F385E02D9301B501CE010995E881F98109
:1038A0000084F185E02D9401A601B501CE010995B2
:1038B000E881F981B501660D771D615071090084B9
:1038C000F185E02D9401A601CE010995DF91CF91FC
:1038D0001F910F91FF90EF90DF90CF90BF90AF902E
:1038E0009F908F907F906F900895EF92FF920F932B
:1038F0001F93DC01ED91FC91240F351F21503109FC
:103900000680F781E02D780189019B0109951F91BF
:103910000F91FF90EF900895EF92FF920F931F93F6
:10392000DC01ED91FC91260F371F215031090680F3
:10393000F781E02D78018A0109951F910F91FF9081
:10394000EF9008956F927F928F929F92AF92BF9265
:10395000CF92DF92EF92FF920F931F93CF93DF935B
:103960005C014A0169013801EB01C60ED71ECC1576
:10397000DD0574F4D501ED91FC910084F185E02D15
:1039800087019301A401BE01C50109952196EFCFDE
:10399000DF91CF911F910F91FF90EF90DF90CF902B
:1039A000BF90AF909F908F907F906F900895EF920F
:1039B000FF920F931F93DC01ED91FC9111971A96E2
:1039C0000D911C911B9718962D913C911997068487
:1039D000F785E02D7B0140E050E060E070E0099564
:1039E0001F910F91FF90EF9008950895FC011382AD
:1039F000128287ED96E09183808375836483578379
:103A000046837187608753874287158A1586148697
:103A10001786168621E0248B8FEF9FEF938B828B86
:103A2000918B808B268B178A118E108E08952F9282
:103A30003F924F925F926F927F928F929F92AF923E
:103A4000BF92CF92DF92EF92FF920F931F93CF938B
:103A5000DF9300D000D000D0CDB7DEB79E838D833A
:103A60006B015A01790166246394712C621A730AFE
:103A700044245524421A530A440C551CDC01ED9190
:103A8000FC91420F531F0480F581E02D98010995A8
:103A9000AD81BE81ED91FC911197A5014E195F0991
:103AA0000480F581E02D9801B601CD010995AD8125
:103AB000BE81ED91FC911197B6016E0D7F1D0480C2
:103AC000F581E02D9801A501CD010995AD81BE815B
:103AD000ED91FC911197B6016E197F090480F58173
:103AE000E02D9801A501CD010995812C912C8E1412
:103AF0009F040CF0A1C077FC08C0B1E0EB1AF108FC
:103B0000E2E04E0E511C640C751CFFEF8F1A9F0AE9
:103B1000C401880F991F0196680E791EC4018C0D8F
:103B20009D1D9C838B83AD81BE81ED91FC9111978E
:103B30000480F581E02D980115012E0C3F1CA10198
:103B4000BC01CD010995F601E819F909FA83E98369
:103B5000AD81BE81ED91FC9111970480F581E02D3E
:103B60009801A10169817A81CD010995AD81BE815C
:103B7000ED91FC9111970480F581E02D98011501DC
:103B80002E183F08A1016B817C81CD010995AD8183
:103B9000BE81ED91FC9111970480F581E02D980193
:103BA000A10169817A81CD01099514012A0C3B1C80
:103BB000AD81BE81ED91FC9111970480F581E02DDE
:103BC0009801A101C6018E0D9F1D9C838B83BC01B2
:103BD000CD010995AD81BE81ED91FC9111970480D5
:103BE000F581E02D9801A101C6018E199F099A83E4
:103BF0008983BC01CD010995150128183908AD81CB
:103C0000BE81ED91FC9111970480F581E02D980122
:103C1000A1016B817C81CD010995AD81BE81ED91C2
:103C2000FC9111970480F581E02D9801A101698133
:103C30007A81CD0109955BCF26960FB6F894DEBF49
:103C40000FBECDBFDF91CF911F910F91FF90EF90ED
:103C5000DF90CF90BF90AF909F908F907F906F90AC
:103C60005F904F903F902F9008952F923F924F92E8
:103C70005F926F927F929F92AF92BF92CF92DF92AC
:103C8000EF92FF920F931F93CF93DF93CDB7DEB7E1
:103C90002A970FB6F894DEBF0FBECDBF5C017C83C0
:103CA0006B835E834D83190127013601C801079696
:103CB00097FD07969C0193E0359527959A95E1F736
:103CC0003A832983C12CD12CE12CF12CE414F50486
:103CD0000CF044C01A8619868D819E818E0D9F1D21
:103CE00098878F83E985FA85E017F1077CF5898548
:103CF0009A8587709927892B11F0990C0EC0E98558
:103D0000FA85F7FD379683E0F595E7958A95E1F713
:103D1000EC0DFD1DE20DF31D949097FE11C0D50131
:103D2000ED91FC910480F581E02D93014F81588540
:103D30006B817C8189859A85680F791FC5010995FA
:103D4000A985BA851196BA87A987CCCFFFEFEF1A5C
:103D5000FF0A29813A81C20ED31EB8CF2A960FB628
:103D6000F894DEBF0FBECDBFDF91CF911F910F91B1
:103D7000FF90EF90DF90CF90BF90AF909F907F909B
:103D80006F905F904F903F902F9008952F923F92A9
:103D90004F925F926F927F928F929F92AF92BF925B
:103DA000CF92DF92EF92FF920F931F93CF93DF9307
:103DB000CDB7DEB76A970FB6F894DEBF0FBECDBFA2
:103DC0001C0158874F831C870B87FA86E986CC82B3
:103DD000DC0158964D915C9159974115510509F0B8
:103DE000A6C018968D919C911997681779070CF0C9
:103DF00056C11A968D919C911B97EF81F885E81713
:103E0000F9070CF04CC1D12CCB013C81F6E03F9F6F
:103E1000800D911D1124181619060CF040C1C60121
:103E200003E0880F991F0A95E1F74F815885840FA9
:103E3000951F181619060CF032C157968C918111F6
:103E400003C0203B08F02F5F7E876D874B011982EE
:103E50001BE6A12E13E0B12EA61AB70A55E0259F46
:103E6000A00CB11C11248981853039F0ED85FE85C7
:103E7000EA0DFB1D94919A8301C01A826F807884A9
:103E80002301A8E0AD83BA81B0FF12C0D101ED914A
:103E9000FC91BC81B13031F40480F581E02D2B859B
:103EA0003C8518C00684F785E02DEB84FC841DC09A
:103EB000E985FA852B853C85E217F307E1F0D1010E
:103EC000ED91FC91BC81B13059F40480F581E02D75
:103ED00029853A85A2016D857E85C10109950BC0B2
:103EE0000684F785E02DE984FA8486019601A30112
:103EF000B401C1010995EA81E695EA83FD81F1509B
:103F0000FD836C0C7D1C2FEF421A520AF111BBCFBE
:103F100039813F5F39838C0C9D1C4D855E854F5FD9
:103F20005F4F5E874D87363009F09DCFB8C0FA01EC
:103F300034963491329785919491231BA7E02A9F60
:103F4000800D911D1124FA0125913491398B288B14
:103F5000FC01459154915A8F498FFC01329654913E
:103F600059873196A491AF873196E491FC0135963B
:103F7000249131968491BC81B23050F0622E772426
:103F800067FC7094E82FFF27E7FDF095FE87ED872B
:103F9000FC81CF2ED12C6C9C40016D9C900C7C9CA4
:103FA000900C1124860E971EA12C1982DE8ACD8AD0
:103FB000AB01420F511D27FD5A955E834D83AF81A2
:103FC000B885A80FB11D87FDBA95B88FAF8B598101
:103FD0008F85581708F063C0852F90E02D853E85AA
:103FE000280F391F2C9DD0012D9DB00D3C9DB00D8B
:103FF0001124EF81F885EA0FFB1FFB83EA836D80B4
:104000007E802401FA2D2D81F21BFA8B4F89588D69
:10401000480F591F5C8B4B8B9A89960D862D2D81ED
:10402000821B39858317B0F5977061F4898D9A8D5D
:104030000196E889F989298D3A8DE20FF31FB49032
:104040009A8F898FB7FE1DC0D101ED91FC91BC8183
:10405000B13059F40480F581E02D2B853C854B89E6
:104060005C89B301C10109950CC00684F785E02D78
:10407000EB84FC84860196014A815B81B201C10117
:104080000995BB0CED89FE894E0E5F1EFFEF6F1A7E
:104090007F0AC2CFA30E49814F5F498398CF6A96AA
:1040A0000FB6F894DEBF0FBECDBFDF91CF911F9149
:1040B0000F91FF90EF90DF90CF90BF90AF909F90C7
:1040C0008F907F906F905F904F903F902F900895CA
:1040D000AF92BF92CF92EF92FF920F931F93CF9325
:1040E000DF93EC01262F888D998D009709F042C04F
:1040F0006A3069F42C898E859F8538E0239F800D76
:10410000911D11249F878E871D861C86ABC06D3044
:1041100009F4A8C08E898823C1F03C898C859D85CF
:1041200046E0349F800D911D1124488559858417E0
:1041300095075CF01D861C868E859F85E8E03E9F76
:10414000800D911D11249F878E87EA88FB8808893E
:1041500019894E855F856C857D85CC88CE010E944E
:10416000C61E2C898C859D85F6E02F9F800D911DA4
:10417000112441C06A3079F41D861C864C89FC01EB
:10418000369684912E853F85489F200D311D112440
:104190003F872E8767C06D3009F464C0AC014C5F67
:1041A0005F4FFA013491631708F45CC03196E491D3
:1041B000E61708F457C0FA014491362F341BFC016E
:1041C0003296A590B490F7E03F9FA00CB11C11244B
:1041D000F5013296A4913196E491AA2311F0E111F0
:1041E0000DC0F5013496A4902C898C859D85A29EE6
:1041F000800D911D11249D878C8734C0F501359663
:10420000E4913E89332309F13C89B0E0AE0FB11D42
:10421000E7FDBA953A9FA0013B9F500D11246C8594
:104220007D85460F571F68857985461757076CF0BF
:104230001D861C86FC01369684914E855F85389FCD
:10424000400D511D11245F874E87EA88FB8808893D
:1042500019894E855F856C857D85CC88CE010E944D
:10426000C61EBFCF81E090E0DF91CF911F910F91EB
:10427000FF90EF90CF90BF90AF900895FC017587AD
:104280006487578746870895611101C061E0FC018A
:10429000648B0895FC01738B628B718B608B089526
:1042A000FC0185890895FC01808591850895FC01B4
:1042B0008285938508950F931F93CF93DF93EC012D
:1042C0008D89823061F08330D9F0813009F0C8C027
:1042D000EC81FD81E41BF50B3197DB0118C08C816B
:1042E0009D81DC01A61BB70BBD018E819F81FC0166
:1042F000E41BF50BAF0141505109621B730BB0C0B9
:10430000AE81BF81A61BB70BA21BB30BFA01F7FD51
:1043100005C18C819D81E817F9070CF0FFC0B7FF3C
:1043200004C02A0F3B1FA0E0B0E08E819F81AD0149
:10433000420F531F841795071CF49C012A1B3B0B4B
:10434000121613060CF0EAC0422F8A2F8695869526
:10435000869590E8899FE00DF11D1124EE5CFE4FDB
:10436000A77069F158E05A1B852F90E0EC01C65DFB
:10437000DE4F6881251760F4DC01A21BB1098FEFC5
:1043800090E00A2E02C0959587950A94E2F768237B
:104390000130110539F048F00230110551F48081E7
:1043A000862706C08081862B03C060958081862386
:1043B0008083451708F4B2C0451BE058FF4F4830D2
:1043C000A0F102301105A9F4DF01842F9C91909592
:1043D0009C93A058BF4F88508830C0F788EF840F57
:1043E000869586958695B0E88B9FE00DF11D11248A
:1043F00019C081E00130110509F080E0982F9195F6
:10440000EF01842F9883C058DF4F88508830D0F751
:1044100088EF840F86958695869590E8899FE00DB4
:10442000F11D1124E058FF4F4770442309F476C072
:10443000A42FB0E0AE5DBE4F9C910130110541F05C
:1044400050F00230110509F069C08081892706C04B
:104450008081892B03C090958081892380835EC0F1
:1044600057FD5CC08E819F81481759070CF056C0DC
:1044700077FF04C0260F371F60E070E08C819D81BC
:10448000FB01E20FF31F8E179F071CF49C01261BF4
:10449000370B121613060CF041C0CA0157FD0796E0
:1044A000E3E095958795EA95E1F79695982F88270B
:1044B000979587958E5C9E4F860F971F477055275F
:1044C00061E070E001C0660F4A95EAF7462F0130BF
:1044D000110541F088F00230110501F5FC01280FAB
:1044E000391F15C0FC01280F391FE217F307B1F07F
:1044F0008081842B8193F9CF6095FC01280F391FAF
:10450000E217F30759F0808186238193F9CFE217F0
:10451000F30721F0808184278193F9CFDF91CF9138
:104520001F910F9108950F931F93CF93DF93FC0179
:104530008589823069F08330E1F0813009F082C0F2
:10454000C481D581C41BD50BC21BD30BDB0117C0A3
:1045500084819581DC01A61BB70BBD0161507109F7
:1045600086819781DC01A41BB50BAD01421B530B67
:1045700069C0A681B781A61BB70B1197EA01B7FDE9
:1045800008C186819781A817B9070CF002C1D7FF2F
:1045900004C02C0F3D1FC0E0D0E084819581AE01A6
:1045A000420F531F841795071CF49C012C1B3D0BD5
:1045B000121613060CF0EDC0CD01B7FD079643E0CF
:1045C000959587954A95E1F79695982F8827979521
:1045D00087958E5C9E4F8C0F9D1FA770BB2741E077
:1045E00050E00A2E01C0440F0A94EAF7642F01300C
:1045F000110549F098F00230110509F0CAC0FC011C
:10460000280F391F17C0FC01280F391FE217F307C5
:1046100009F4BFC08081862B8193F8CF4095FC01BF
:10462000280F391FE217F30709F4B3C080818423F0
:104630008193F8CFE217F30709F4ABC08081862796
:104640008193F8CF77FDA5C084819581681779079C
:104650000CF09FC057FF04C0240F351F40E050E00E
:1046600086819781FA01E20FF31F8E179F071CF4D2
:104670009C01241B350B121613060CF08AC0522F16
:10468000842F869586958695FB01B0E88B9FE00D7B
:10469000F11D1124EE5CFE4F477069F168E0641B68
:1046A000862F90E0EC01C65DDE4F4881261760F44E
:1046B000DC01A21BB1098FEF90E00A2E02C0959594
:1046C00087950A94E2F748230130110539F048F044
:1046D0000230110551F48081842706C08081842B2B
:1046E00003C04095808184238083561708F451C00D
:1046F000561BE058FF4F5830A0F102301105A9F4C5
:10470000DF01852F9C9190959C93A058BF4F8850B6
:104710008830C0F788EF850F869586958695B0E836
:104720008B9FE00DF11D112419C081E001301105AE
:1047300009F080E0982F9195EF01852F9883C0585C
:10474000DF4F88508830D0F788EF850F86958695A3
:10475000869590E8899FE00DF11D1124E058FF4FE8
:1047600057705523B1F0A52FB0E0AE5DBE4F9C91C0
:104770000130110539F048F00230110551F4808103
:10478000892706C08081892B03C090958081892369
:104790008083DF91CF911F910F910895CF92DF9287
:1047A000EF92FF920F931F93CF93DF937C018B01C6
:1047B000EA01690177FDA0C00E945321081719077B
:1047C0000CF09AC0D7FD98C0C7010E945721C817A6
:1047D000D9070CF091C0C7010E945021823009F026
:1047E0007FC0F701848195819C01201B310B8901D9
:1047F0000150110986819781FC01EC1BFD0BEF0133
:1048000021970BC0813049F4F701848195818C1B7D
:104810009D0BE8018C0101501109F1E0CF16D10484
:1048200031F010F132E0C316D104E1F165C0FE01B0
:10483000D7FD379683E0F595E7958A95E1F7F695EC
:10484000FE2FEE27F795E795E00FF11FEE5CFE4F88
:10485000C770DD2781E090E00C2E01C0880F0A941C
:10486000EAF79081982B3AC0FE01D7FD3796A3E076
:10487000F595E795AA95E1F7F695FE2FEE27F795C2
:10488000E795E00FF11FEE5CFE4FC770DD2781E07A
:1048900090E00C2E01C0880F0A94EAF78095908171
:1048A00098231CC0FE01D7FD379663E0F595E79588
:1048B0006A95E1F7F695FE2FEE27F795E795E00F5D
:1048C000F11FEE5CFE4FC770DD2781E090E00C2EFB
:1048D00001C0880F0A94EAF79081982790830CC052
:1048E000833009F08FCFF70186819781801B910B70
:1048F0008E01EC01219791CFDF91CF911F910F9104
:10490000FF90EF90DF90CF9008951F93CF93DF93A8
:10491000EC01162F40E450E060E870E00E94F61CC5
:104920008FEE96E0998388838FEF8C8F88A38E8F8C
:104930008D8F1F8FDF91CF911F91089580E094E0BC
:10494000E2E3F1E0DF019C011D9221503040E1F7EC
:104950000895FC0181A1882339F06EBD00000DB4DB
:1049600007FEFDCF8EB5089588E090E030E8A4A161
:10497000B5A14C9123A5209524232C93A2A1B3A1EA
:1049800022A5432F462321F04C91422B4C9304C087
:104990004C91209524232C93A4A1B5A12C9143A53F
:1049A000242B2C933695019711F708951F93CF93DD
:1049B000DF93EC01162F8C8D8F3F09F1EEA1FFA143
:1049C00080819CA5892B8083E8A5F9A590818DA580
:1049D000809589238083EEA1FFA190818CA580958D
:1049E00089238083CE010E94A924EEA1FFA18081AA
:1049F0009CA5892B8083DF91CF911F9108958A8D8B
:104A0000682F772767FD709587E897E00E948819DF
:104A100060E087E897E00E943519612F87E897E00A
:104A20000E94351987E897E0DF91CF911F910C9490
:104A30009D190F931F93CF93DF93EC01162F022F35
:104A40006B8F4A8F8C8D8F3F09F48CC061E08E8D07
:104A50000E943E2861E088A10E943E2888A19927F3
:104A600087FD9095FC01ED56F74FE491F0E0EE0FD5
:104A7000FF1FEF54F74F259134913FA32EA3FC0164
:104A8000E158F74F84918CA78E8D992787FD9095DB
:104A9000FC01ED56F74FE491F0E0EE0FFF1FEF54ED
:104AA000F74F2591349139A728A7FC01E158F74F1A
:104AB00084918DA789A1811134C061E08C8D0E9401
:104AC0003E2861E08D8D0E943E288D8D992787FDBF
:104AD0009095FC01ED56F74FE491F0E0EE0FFF1FCB
:104AE000EF54F74F259134913DA32CA3FC01E158DD
:104AF000F74F84918BA78C8D992787FD9095FC01AA
:104B0000ED56F74FE491F0E0EE0FFF1FEF54F74F33
:104B1000259134913BA32AA3FC01E158F74F8491DE
:104B20008AA789A1882311F10E94D526809149087E
:104B3000882399F09FB7F89480914908813059F4FF
:104B40008DB3809347082DB38091480880958223C8
:104B50008DBB9FBF02C09093470880E58CBD81E06C
:104B60008DBD04C087E897E00E9474190023F1F01E
:104B70008F8D87FD1BC061E00E943E2861E08F8D14
:104B80000E94772861E070E080E090E00E94782742
:104B900060E08F8D0E9477286AE070E080E090E00E
:104BA0000E94782761E08F8D0E9477286EEACE01FF
:104BB0000E94D62465EDCE010E94D62460E8CE0185
:104BC0000E94D62468EACE010E94D6246FE3CE016B
:104BD0000E94D62463EDCE010E94D62460E0CE016F
:104BE0000E94D62460E4CE010E94D6246DE8CE0156
:104BF0000E94D624113011F460E101C064E1CE01BD
:104C00000E94D62460E2CE010E94D62460E0CE014C
:104C10000E94D62461EACE010E94D62468ECCE011F
:104C20000E94D6246AEDCE010E94D62462E1CE0114
:104C30000E94D62461E8CE010E94D624113011F4DE
:104C40006FE901C06FECCE010E94D62469EDCE0160
:104C50000E94D624113011F462E201C061EFCE014E
:104C60000E94D6246BEDCE010E94D62460E4CE01D2
:104C70000E94D62464EACE010E94D62466EACE01C0
:104C80000E94D6246EE2CE010E94D6246FEACE01A5
:104C9000DF91CF911F910F910C94D624DF92EF9268
:104CA000FF920F931F93CF93DF93EC0161E20E9479
:104CB000D62460E0CE010E94D6246FE7CE010E9488
:104CC000D62462E2CE010E94D62460E0CE010E948A
:104CD000D62467E0CE010E94D6248C8D8F3F31F11F
:104CE000EEA1FFA180819CA5892B8083E8A5F9A571
:104CF00080819DA5892B8083EEA1FFA190818CA549
:104D000080958923808302E311E0F80161918F018E
:104D1000CE010E94A924F5E002331F07B1F7EEA1EE
:104D2000FFA180819CA5892B808337C0D090B800DB
:104D30008CE08093B80002E311E06A8D772767FD6D
:104D4000709587E897E00E948819E0918707F091B5
:104D500088070190F081E02D60E487E897E00995ED
:104D6000E12CF12CF801EE0DFF1D608187E897E042
:104D70000E9435198FEFE81AF80AE0E1EE16F10407
:104D800089F787E897E00E949D19005F1F4FF5E0C3
:104D900002331F0791F6D092B800DF91CF911F9197
:104DA0000F91FF90EF90DF900895CF93CFB7F894D5
:104DB00080914A08811127C0EDE9F8E08491E9E883
:104DC000F8E09491E82FF0E0EE0FFF1FE554F74F65
:104DD000A591B4918C91892321F461E08AE00E942D
:104DE000772861E08AE00E943E288CB580618CBD06
:104DF0008CB580648CBD61E08DE00E943E2861E04E
:104E00008BE00E943E2880914A088F5F80934A0879
:104E1000CFBFCF9108951F920F920FB60F9211241A
:104E20002F933F938F939F93AF93BF9380914C08A1
:104E300090914D08A0914E08B0914F0830914B08C9
:104E400023E0230F2D3720F40196A11DB11D05C0CD
:104E500026E8230F0296A11DB11D20934B088093D5
:104E60004C0890934D08A0934E08B0934F08809142
:104E7000500890915108A0915208B09153080196A2
:104E8000A11DB11D8093500890935108A093520822
:104E9000B0935308BF91AF919F918F913F912F9104
:104EA0000F900FBE0F901F9018953FB7F894809108
:104EB000500890915108A0915208B091530826B51E
:104EC000A89B05C02F3F19F00196A11DB11D3FBF42
:104ED0006627782F892F9A2F620F711D811D911DD2
:104EE00042E0660F771F881F991F4A95D1F70895F2
:104EF0008F929F92AF92BF92CF92DF92EF92FF92EA
:104F00006B017C010E9455274B015C01C114D10447
:104F1000E104F104F1F00E94162D0E945527681952
:104F200079098A099B09683E73408105910570F3F0
:104F300021E0C21AD108E108F10888EE880E83E06A
:104F4000981EA11CB11CC114D104E104F10429F77D
:104F5000DDCFFF90EF90DF90CF90BF90AF909F900C
:104F60008F9008958230910538F0880F991F880F2F
:104F7000991F05970197F1F70895789484B5826099
:104F800084BD84B5816084BD85B5826085BD85B5ED
:104F9000816085BDEEE6F0E0808181608083E1E89C
:104FA000F0E01082808182608083808181608083D4
:104FB000E0E8F0E0808181608083E1EBF0E08081D7
:104FC00084608083E0EBF0E0808181608083EAE7A9
:104FD000F0E0808184608083808182608083808132
:104FE000816080838081806880831092C1000895F1
:104FF0008E3008F08E5087702091320590E4299F02
:1050000090011124822B80937C0080917A0080642F
:1050100080937A0080917A0086FDFCCF80917800A1
:105020002091790090E0922B0895833081F028F44C
:10503000813099F08230A1F008958730A9F088304E
:10504000B9F08430D1F4809180008F7D03C08091CD
:1050500080008F7780938000089584B58F7702C099
:1050600084B58F7D84BD08958091B0008F7703C093
:105070008091B0008F7D8093B0000895CF93DF932F
:1050800090E0FC01E158F74F2491FC01ED56F74FF9
:105090008491882349F190E0880F991FFC01E55421
:1050A000F74FA591B4918F54974FFC01C591D491BE
:1050B0009FB7611108C0F8948C91209582238C933E
:1050C000888182230AC0623051F4F8948C91322F87
:1050D000309583238C938881822B888304C0F89435
:1050E0008C91822B8C939FBFDF91CF9108950F936A
:1050F0001F93CF93DF931F92CDB7DEB7282F30E0F9
:10510000F901E559F74F8491F901E158F74F1491EE
:10511000F901ED56F74F04910023C9F0882321F0DF
:1051200069830E9415286981E02FF0E0EE0FFF1FD0
:10513000EF54F74FA591B4919FB7F8948C916111FA
:1051400003C01095812301C0812B8C939FBF0F90CA
:10515000DF91CF911F910F910895CF93DF93282F67
:1051600030E0F901E559F74F8491F901E158F74F23
:10517000D491F901ED56F74FC491CC2391F08111F0
:105180000E941528EC2FF0E0EE0FFF1FE955F74FB6
:10519000A591B4912C912D2381E090E021F480E041
:1051A00002C080E090E0DF91CF910895FC01818DF5
:1051B000228D90E0805C9F4F821B91098F7399270D
:1051C0000895FC01918D828D981731F0828DE80F42
:1051D000F11D858D90E008958FEF9FEF0895FC01FC
:1051E000918D828D981761F0828DDF01A80FB11D1E
:1051F0005D968C91928D9F5F9F73928F90E0089542
:105200008FEF9FEF089583E79AE2892B49F080E0C2
:1052100090E0892B29F00E94732A81110C940000E0
:105220000895FC01848DDF01A80FB11DA35ABF4F63
:105230002C91848D90E001968F739927848FA68995
:10524000B7892C93A089B1898C9180648C93938DBC
:10525000848D981306C00288F389E02D80818F7DAC
:1052600080830895CF93DF93EC01888D8823C9F064
:10527000EA89FB89808185FD05C0A889B9898C915F
:1052800086FD0FC00FB607FCF5CF808185FFF2CFFA
:10529000A889B9898C9185FFEDCFCE010E94112993
:1052A000E7CFDF91CF910895CF92DF92FF920F93D6
:1052B0001F93CF93DF931F92CDB7DEB76C0181E0D0
:1052C000D60158968C9358975B969C915B975C9609
:1052D0008C915C97981307C05096ED91FC91519773
:1052E000808185FD2EC0F601038D10E00F5F1F4FFA
:1052F0000F731127F02EF601848DF81211C00FB62E
:1053000007FCF9CFD6015096ED91FC915197808121
:1053100085FFF1CFC60169830E9411296981EBCF16
:10532000838DE80FF11DE35AFF4F6083D6015B9632
:105330000C935B975296ED91FC915397808180621C
:105340000CC0D6015696ED91FC915797608350960C
:10535000ED91FC91519780818064808381E090E0A1
:105360000F90DF91CF911F910F91FF90DF90CF9021
:105370000895BF92CF92DF92EF92FF92CF93DF9387
:10538000EC016A017B01B22EE889F98982E0808311
:10539000411581EE580761057105A1F060E079E0E3
:1053A0008DE390E0A70196010E94462F215031091C
:1053B000410951095695479537952795211580E163
:1053C000380798F0E889F989108260E874E88EE17E
:1053D00090E0A70196010E94462F21503109410912
:1053E00051095695479537952795EC85FD8530836E
:1053F000EE85FF852083188EEC89FD89B082EA89CD
:10540000FB89808180618083EA89FB898081886053
:105410008083EA89FB89808180688083EA89FB89AF
:1054200080818F7D8083DF91CF91FF90EF90DF901F
:10543000CF90BF9008951F920F920FB60F92112434
:105440002F938F939F93EF93FF93E0916408F091D4
:1054500065088081E0916A08F0916B0882FD12C0B6
:10546000908180916D088F5F8F7320916E088217F5
:1054700051F0E0916D08F0E0EC5AF74F958F809372
:105480006D0801C08081FF91EF919F918F912F91C5
:105490000F900FBE0F901F9018951F920F920FB68E
:1054A0000F9211242F933F934F935F936F937F93AA
:1054B0008F939F93AF93BF93EF93FF9384E598E00F
:1054C0000E941129FF91EF91BF91AF919F918F9110
:1054D0007F916F915F914F913F912F910F900FBEF0
:1054E0000F901F90189584E598E00E94D62821E03F
:1054F000892B09F420E0822F08951092570810920A
:10550000560888EE93E0A0E0B0E0809358089093AE
:105510005908A0935A08B0935B0887E097E09093EE
:1055200055088093540885EC90E09093610880932F
:10553000600884EC90E0909363088093620880ECAC
:1055400090E0909365088093640881EC90E09093DC
:1055500067088093660882EC90E0909369088093D6
:10556000680886EC90E090936B0880936A0810922C
:105570006D0810926E0810926F08109270080895CE
:10558000CF92DF92EF92FF920F931F93CF93DF930F
:105590007C016A01EB0100E010E00C151D0571F0C3
:1055A0006991D701ED91FC910190F081E02DC70147
:1055B0000995892B19F00F5F1F4FEFCFC801DF91BD
:1055C000CF911F910F91FF90EF90DF90CF900895B2
:1055D0006115710581F0DB010D900020E9F7AD0147
:1055E00041505109461B570BDC01ED91FC910280A3
:1055F000F381E02D099480E090E008950C94E82A6E
:10560000DC01ED91FC910190F081E02D099463E1C2
:1056100077E00C94E82A0F931F93CF93DF93EC016C
:105620000E94E82A8C01CE010E94072B800F911F57
:10563000DF91CF911F910F9108958F929F92AF921A
:10564000BF92DF92EF92FF920F931F93CF93DF935E
:10565000CDB7DEB7A1970FB6F894DEBF0FBECDBFB2
:105660007C01F42FD52ECB0119A2223008F42AE0B8
:105670008E010F5D1F4F822E912CA12CB12C6F2F0C
:105680007D2DA50194010E94462FF22FD32ECA0131
:10569000015011096A3014F4E0E301C0E7E3E60FBA
:1056A000D801EC93232B242B252B49F7B801C701F4
:1056B0000E94E82AA1960FB6F894DEBF0FBECDBFB8
:1056C000DF91CF911F910F91FF90EF90DF90BF90EE
:1056D000AF909F908F900895CF92DF92EF92FF92BC
:1056E0000F931F93CF93DF93EC016A017B01211588
:1056F000310579F4E881F9810190F081E02D642F82
:10570000DF91CF911F910F91FF90EF90DF90CF909D
:1057100009942A303105E9F477FF1AC06DE20E943E
:10572000002B8C0144275527BA014C195D096E09DD
:105730007F092AE0CE010E941D2B800F911FDF916F
:10574000CF911F910F91FF90EF90DF90CF90089530
:105750002AE0B701A601CE01DF91CF911F910F91F1
:10576000FF90EF90DF90CF900C941D2B2115310509
:1057700041F4DC01ED91FC910190F081E02D642F6A
:1057800009940C941D2B9A01462F50E060E070E0C4
:105790000C94B62B9A01AB0160E070E00C94B62B30
:1057A0004F925F926F927F928F929F92AF92BF9231
:1057B000CF92DF92EF92FF920F931F93CF93DF93DD
:1057C000EC016A017B01B22E9A01AB01C701B6015F
:1057D0000E94322F882319F066E177E027C0260166
:1057E0003701E89477F82FEF3FEF4FE75FE7C3010A
:1057F000B2010E94322F81110DC02FEF3FEF4FE712
:105800005FE7C301B2010E947C2D18161CF46AE107
:1058100077E00CC02FEF3FEF4FE75FE4C701B60121
:105820000E94CB2E1816ACF46EE177E0CE01DF912A
:10583000CF911F910F91FF90EF90DF90CF90BF908D
:10584000AF909F908F907F906F905F904F900C944F
:10585000E82A2FEF3FEF4FE75FECC701B6010E9448
:105860007C2D87FDE1CF20E030E0A901C701B60122
:105870000E947C2D87FF0AC06DE2CE010E94002BA2
:105880008C01F7FAF094F7F8F09402C000E010E011
:10589000A12C60E070E080E09FE3AB1441F020E0D9
:1058A00030E040E251E40E94802DA394F6CF9B01AA
:1058B000AC01C701B6010E94182D6B017C010E944A
:1058C000ED2D2B013C010E94192E9B01AC01C7015B
:1058D000B6010E94172D6B017C012AE0B301A201E1
:1058E000CE010E941D2B080F191FBB2039F062E268
:1058F00077E0CE010E94E82A080F191F7B2C772041
:1059000041F120E030E040E251E4C701B6010E94DD
:10591000CF2E6B017C010E94E82D4B01AA2497FC3D
:10592000A094BA2C2AE030E0B501A401CE010E9477
:105930006C2B080F191FC501B4010E941B2E9B017F
:10594000AC01C701B6010E94172D6B017C017A944E
:10595000D6CFC801DF91CF911F910F91FF90EF90AB
:10596000DF90CF90BF90AF909F908F907F906F907F
:105970005F904F9008950C94D02B4F925F926F924E
:105980007F92AF92BF92CF92DF92EF92FF920F93EE
:105990001F93CF93DF93CDB7DEB729013A01621B86
:1059A000730B840B950B29893A894B895C892A19D9
:1059B0003B094C095D09298B3A8B4B8B5C8B9B0116
:1059C000AC0169897A898B899C890E94362FE418F9
:1059D000F50806091709A80197010E94682F2A0DEA
:1059E0003B1D4C1D5D1DCA01B901DF91CF911F9177
:1059F0000F91FF90EF90DF90CF90BF90AF907F908E
:105A00006F905F904F9008950E94A72F08950E9475
:105A1000BD270E94062D0E945513C3E0D9E20E94C3
:105A20004C172097E1F30E940329F9CF08955058AD
:105A3000BB27AA270ED075C166D130F06BD120F0FC
:105A400031F49F3F11F41EF45BC10EF4E095E7FBC7
:105A500051C1E92F77D180F3BA1762077307840722
:105A6000950718F071F49EF58FC10EF4E0950B2E9A
:105A7000BA2FA02D0B01B90190010C01CA01A001A0
:105A80001124FF27591B99F0593F50F4503E68F1FB
:105A90001A16F040A22F232F342F4427585FF3CF3C
:105AA000469537952795A795F0405395C9F77EF40D
:105AB0001F16BA0B620B730B840BBAF09150A1F056
:105AC000FF0FBB1F661F771F881FC2F70EC0BA0FDC
:105AD000621F731F841F48F4879577956795B79564
