:100000000C942D090C9455090C9455090C94550920
:100010000C9455090C9455090C9455090C945509E8
:100020000C9455090C9455090C9455090C945509D8
:100030000C9455090C9455090C9455090C945509C8
:100040000C94B5180C9455090C9455090C94550949
:100050000C9455090C9455090C9455090C945509A8
:100060000C94BD0E0C9455090000000024002700DC
:100070002A00010204081020408001020408102018
:1000800001020408102000000000250028002B00B9
:10009000040404040404040402020202020203032E
:1000A0000303030300000000000000000000000044
:1000B0000000000000000000000000000000000040
:1000C000C00C000000000000000000000000000064
:1000D000C10F000000000000000000000000000050
:1000E000C10F000000000000000000000000000040
:1000F000E11E00001FFFF83FFF01FE000FE0000FB0
:10010000F37000001FFFF83FFFC0FE000FE0001F6C
:10011000F03080001FFFF83FFFF0FE000FE00020EE
:10012000F22040001FFFF83FFFF87F001FC00000D3
:100130007F6020001FFFF83FFFFC7F001F80000052
:100140007BE010001FC0003F03FC7F003F00004029
:100150003FF007FE1FC0003F01FC3F807F00003CD6
:10016000FFF01E001FC0003F01FC1F807F38007C95
:10017000FFF01E001FC0003F00FC1F807F1E07F025
:10018000FFE1FF041FC0003F00FC1FC0FE01FF8015
:100190007FFFFE081FC0003F01FC0FC0FE007F0074
:1001A000FFFFE0101FC0003F03FC0FE0FC007C7F5E
:1001B000FFF000401FFFF03FFFFC07E1F8007FFF6A
:1001C000FFF600001FFFF03FFFF807E1F8007FFE99
:1001D000FFF600001FFFF03FFFF007F1F800FF04FB
:1001E0008FF700001FFFF03FFFE003F3F0007C00FB
:1001F00047C700001FFFF03FFF8003F7F0007000CB
:1002000079C600001FC0003F000001FFF000600041
:1002100000EE00001FC0003F000001FFE000C02012
:1002200000EC00001FC0003F000001FFE000804024
:1002300000FC00001FC0003F000000FFC0003E00A7
:1002400001FC00001FC0003F000000FF8000000014
:100250003FFE00001FC0003F0000007F8000000044
:100260007FFF00001FC0003F0000007F80000003F0
:10027000FFFF80001FC0003F0000003F00000003A0
:10028000C07EC0001FC0003F0000003F0000000013
:10029000007EE0001FC0003F0000001E00000000C4
:1002A000003E3A001FC0003F0000001E000000009A
:1002B000001E1E0000000000000000000000000002
:1002C00000040B800000000000000000000000009F
:1002D000000011C00000000000000000000000004D
:1002E00000004000000000000000000000000000CE
:1002F0000000000001F800000000000E00000000F7
:10030000000000001FFF87FFFFF006E3800FFFF0F3
:100310000FFFF8003FFFC7FFFFF00518000FFFF8C1
:100320000FFFF8003FFFC7FFFFF02B67000FFFFC38
:100330000FFFF8007FFFC7FFFFF040B0100FFFFE78
:100340000FFFF8007E01C007E0001D00680FC0FE2F
:100350000FC000007C00C007E0003B07600FC07EBC
:100360000FC00000FC000007E0010000680FC07F24
:100370000FC000007E000007E0010800060FC07FEC
:100380000FC000007F800007E00118004A0FC07E08
:100390000FC000007FE00007E00280002A0FC0FECF
:1003A0000FC000003FFC0007E0020000140FFFFC3C
:1003B0000FFFF0003FFE0007E0026000160FFFFC99
:1003C0000FFFF0001FFF8007E0012000060FFFF085
:1003D0000FFFF00007FFC007E0014000110FFFF022
:1003E0000FFFF00003FFC007E0014000010FFFF81E
:1003F0000FC00000007FE007E0028000080FC3F894
:100400000FC00000000FE007E0001800460FC1FC1D
:100410000FC000000007E007E0011000060FC0FC5D
:100420000FC000004007E007E0009000040FC0FE8E
:100430000FC000007007E007E0001706A00FC07FA4
:100440000FC000007807E007E0009007E00FC07FD2
:100450000FC000007FFFC007E0004068100FC07FA2
:100460000FFFF8007FFFC007E0000716A00FC03F96
:100470008FFFF8007FFF8007E00000E4200FC03FFF
:100480008FFFF8001FFF0007E0000E3B000FC03F8A
:100490008FFFF80003F80000000001C0000000001A
:1004A000000000000000000000000000000000004C
:1004B00000000000000CDC00000000000000000C48
:1004C0009C003FF8FFC7C03E007FB0003FF8FFE34D
:1004D000E03E00EC62003FF8FFF3E03C000FE1007B
:1004E0003FF8FFF9F07C4007E0FE3C00F0F8F07FB9
:1004F00000EFE0E03C00F078F07987CFE7E23C00E5
:10050000F0F8F0F01E0FFF003C00F0F8F8F01CFFD0
:10051000F9083FF0FFF079F01FEFF8003FF0FFE03F
:100520007DE03C29EC003FF8FFC03FE01027C80009
:100530003C00F0003FC0308178403C00F0003FC0FC
:10054000200078003C00F0001F800007F8003C000D
:10055000F0000F80001FFE003C00F0000F80001F25
:100560003F203C00F0000F00000039C03C00F000CC
:100570000700000038C00000000000000000003844
:1005800000000000000000001E000F8000000600B8
:10059000000000007FF7FFE07681FFE3FF807FF738
:1005A000FFE1FB01FFE3FF8078F7FFE0E8E1F3E321
:1005B000FF80F0103C048161F0F3E00078003C041F
:1005C0008071F0F3E0007E003C028069F1E3E0001E
:1005D0007F803C020031FFE3FF003FE03C070071F9
:1005E000FFE3FF000FF03C040019FFC3E0000FF031
:1005F0003C060039F7E3E00000F03C040031F1E391
:10060000E00000F03C028011F1E3E00070F03C02F9
:1006100083C1F0F3E0007FF03C0077C1F0FBFFC046
:100620007FE03C001AC1F0FBFFC03F803C0033017B
:10063000F07BFFC0E916D516C116AD1699168516C2
:1006400071165D16651678168B169E16B116C416B1
:10065000D716EA164916351621160D16FD1611176E
:10066000251739176C1680169416A816BC16D016C6
:10067000E416F8161A163F1664168916AE16D31627
:10068000F8161D17F21417153C1561158615AB15D4
:10069000D015F5150000000000000000000000006B
:1006A000000000000000000000000000000000004A
:1006B0000000000000000003000000000000000334
:1006C000FFFFF00000000003B00000000000000188
:1006D0008000000000000003C000000000000003D4
:1006E000C000000000000003C00000000000000384
:1006F000C000000000000003C00000000000000374
:10070000C000000000000003C00000000000000363
:10071000C000000000000003C0000000000000074F
:10072000C0000000000003FFFFC00000000003FF46
:10073000FFC000000000020FE04000000000027F48
:10074000FC4000000000027FFE4020000004027F09
:10075000FE402000000007FFFFC000000007FFBFB1
:10076000FFFFE0000007FFFFFBFFE000000F3DFF81
:10077000F7BDF000000F18FFFF18F000001F18FF72
:10078000FF18F000001FBDFFFFBDF800001FFFFFB6
:10079000FFFFF800001F83FFFFC3F800001F38FEB3
:1007A000FF18F800001EFE7D7E7E7800001DFF7E93
:1007B0007CFF3800001D01AFED00B800001911A743
:1007C000ED01B800001BFFBFFDFFB800001911A725
:1007D000ED99B800001901A7ED00B800001DFF7CDD
:1007E0003CFF3800001EFE7DBE7E7800001F38FDF5
:1007F000BF3CF800001F83FDFF81F800001FFFFCD5
:100800007FFFF800001FD3FC7FDBF800001FDFFF35
:10081000FFDBF800001FFFFFFFFFF800001FFF8055
:1008200021FFF800001F9F0001F9F800001F1F00C2
:1008300001F8F000001F370001E8F000000F23006E
:1008400001CCF000000F230001C5F000000FFF00F5
:1008500001FFE0000007FF0001FFE0000003FFBF11
:10086000FDFFC0000001FFFFFFFF000000001DFFB3
:10087000FF20000000000000000000000000000059
:100880000000000000000000000000000000000068
:100890000000000020202020202020204241434B47
:1008A0002020002020202020202053434F5045208E
:1008B0000020205345542046494C544552204C209A
:1008C0004D20480020202020202020534541524325
:1008D00048200020202020202000FFFFFFFFFFFFF6
:1008E000FFFFFFFFFFFFFFFFFFFFF7FFFFEFFF7FB0
:1008F000BF7BDEFDFEFFF7FFFFEFF8F9F9F3F73FEF
:100900003F719CF8FCCFCF9F9F1FFC1C7C71F11F97
:100910001F218CB8F88F8E3E383FE6000C38700EE1
:1009200006000810701E18380067F0000008180252
:100930000200000060181060001FFC0000000000B2
:100940000000000000000000003FFF000000000069
:10095000000000000000000000FFF1C000000000E7
:10096000000000000000000003CFFC0000000000B9
:100970000000000000000000003FFF000000000039
:10098000000000000000000000FFFFC000000000A9
:10099000000000000000000003FFF1F00000000074
:1009A00000000000000000000F8FFC0800000000A5
:1009B0000000000000000000303FFF0000000000C9
:1009C000000000000000000000FFFFC00000000069
:1009D000000000000000000007FFF8000000000019
:1009E00000000000000000000007FFC00000000041
:1009F0000000000000000000003FFFFC00000000BD
:100A0000000000000000000000FFE0000000000007
:100A1000000000000000000003FFFC0000000000D8
:100A20000000000000000000007FFFC00000000088
:100A300000000000000000003FFFFFFC000000007D
:100A40000000000000000000000FFF000000000098
:100A5000000000000000000007FFFE000000000092
:100A60000000000000000000003FF0000000000057
:100A70000000000000000000003FFF8000000000B8
:100A8000000000000000000000FFFF000000000068
:100A90000000000000000000001FFF8000000000B8
:100AA00000000000000000000FFFFC00000000003C
:100AB0000000000000000000000FFF000000000028
:100AC0000000000000000000007FF00000000000B7
:100AD00000000000000000000007FFF80000000018
:100AE000000000000000000007FFFFF00000000011
:100AF0000000000000000003FFFFF80000000000FD
:100B0000000000000000000001FFFFF000000000F6
:100B10000000000000000000003FFF000000000097
:100B20000000000000000000001FFE0000000000A8
:100B30000000000000000000007FF0000000000046
:100B40000000000000000000000FC30000000000D3
:100B500000000000000000001FC3FF800000000034
:100B6000000000000000000003FFFFF00000000094
:100B70000000000000000000000FFF8000000000E7
:100B8000000000000000000007FFFF000000000060
:100B9000000000000000000000FFFF000000000057
:100BA0000000000000000000000FFF000000000037
:100BB00000000000000000000FFFFC00000000002B
:100BC000000000000000000001FFFFF00000000036
:100BD0000000000000000000007FFFC000000000D7
:100BE0000000000000000000000FFF0000000000F7
:100BF0000000000000000000007FFC00000000007A
:100C00000000000000000000303FF1F00000000094
:100C100000000000000000000F8FFFC00000000077
:100C2000000000000000000003FFFF0000000000C3
:100C3000000000000000000000FFFC0000000000B9
:100C40000000000000000000003FF0000000000075
:100C50000000000000000000038FFF000000000003
:100C6000000000000000000000FFFC000000000485
:100C70000000000020000000003FF8000600180EF1
:100C80000800001070001000001FE6001C00701E1D
:100C900008100810780018000067FC1C7C01F11F88
:100CA0001C318C38F88C0E36383FF8F9F873F3BFE6
:100CB0003C799C38FDCF8F9F9F1FF7FFFFEFFFFF11
:100CC000BD7BDEBDFFFFF7FFFFEFFFFFFFFFFFFF75
:100CD000FFFFFFFFFFFFFFFFFFFF052A9B29912971
:100CE00087291D29132909299F2803290C29162939
:100CF0001F29892992299C29052A95288B28812832
:100D000017280F2A192A832A8D2A062910291A2919
:100D100084298E299829022A0C2A1D288F28022925
:100D20001429872999290C2A1E2A09261C268E2671
:100D300001271327862798270B2800000000003E74
:100D40005B4F5B3E3E6B4F6B3E1C3E7C3E1C183C3B
:100D50007E3C181C577D571C1C5E7F5E1C00183C97
:100D60001800FFE7C3E7FF0018241800FFE7DBE7E0
:100D7000FF30483A060E2629792926407F050507C7
:100D8000407F05253F5A3CE73C5A7F3E1C1C080823
:100D90001C1C3E7F14227F22145F5F005F5F0609E8
:100DA0007F017F006689956A606060606094A2FF41
:100DB000A29408047E040810207E201008082A1C33
:100DC00008081C2A08081E101010100C1E0C1E0CFF
:100DD00030383E3830060E3E0E060000000000009F
:100DE000005F00000007000700147F147F14242A0E
:100DF0007F2A1223130864623649562050000807E0
:100E00000300001C2241000041221C002A1C7F1C00
:100E10002A08083E08080080703000080808080802
:100E2000000060600020100804023E5149453E0069
:100E3000427F400072494949462141494D331814C7
:100E4000127F1027454545393C4A49493141211116
:100E500009073649494936464949291E0000140008
:100E6000000040340000000814224114141414142B
:100E7000004122140802015909063E415D594E7C89
:100E80001211127C7F494949363E414141227F413E
:100E900041413E7F494949417F090909013E41419C
:100EA00051737F0808087F00417F41002040413F87
:100EB000017F081422417F404040407F021C027F96
:100EC0007F0408107F3E4141413E7F090909063EEB
:100ED0004151215E7F0919294626494949320301BA
:100EE0007F01033F4040403F1F2040201F3F4038CC
:100EF000403F631408146303047804036159494DA7
:100F000043007F4141410204081020004141417FDC
:100F10000402010204404040404000030708002052
:100F2000545478407F284444383844444428384452
:100F300044287F385454541800087E090218A4A489
:100F40009C787F0804047800447D40002040403DA8
:100F5000007F1028440000417F40007C0478047822
:100F60007C080404783844444438FC1824241818B5
:100F7000242418FC7C080404084854545424040411
:100F80003F44243C4040207C1C2040201C3C4030FE
:100F9000403C44281028444C9090907C4464544C2D
:100FA0004400083641000000770000004136080088
:100FB00002010204023C2623263C1EA1A161123A32
:100FC0004040207A3854545559215555794122547E
:100FD000547842215554784020545579400C1E5283
:100FE0007212395555555939545454593955545428
:100FF000580000457C410002457D420001457C408F
:101000007D1211127DF0282528F07C5455450020D2
:1010100054547C547C0A097F4932494949323A4444
:1010200044443A324A4848303A4141217A3A4240AF
:101030002078009DA0A07D3D4242423D3D40404081
:101040003D3C24FF2424487E4943662B2FFC2F2B54
:10105000FF0929F620C0887E0903205454794100F5
:1010600000447D413048484A32384040227A007A74
:101070000A0A727D0D19317D2629292F2826292952
:10108000292630484D402038080808080808080874
:10109000382F10C8ACBA2F102834FA00007B00009B
:1010A00008142A142222142A14085500550055AA9F
:1010B00055AA55AAFF55FF55FF000000FF0010106C
:1010C00010FF00141414FF001010FF00FF1010F0A8
:1010D00010F0141414FC001414F700FF0000FF00BB
:1010E000FF1414F404FC141417101F10101F101F09
:1010F0001414141F00101010F0000000001F101036
:1011000010101F10101010F010000000FF10101031
:10111000101010101010FF10000000FF140000FF4E
:1011200000FF00001F10170000FC04F41414171037
:10113000171414F404F40000FF00F714141414142A
:101140001414F700F7141414171410101F101F14A0
:101150001414F4141010F010F000001F101F000001
:10116000001F14000000FC140000F010F01010FF2D
:1011700010FF141414FF141010101F00000000F0D2
:1011800010FFFFFFFFFFF0F0F0F0F0FFFFFF0000A7
:10119000000000FFFF0F0F0F0F0F3844443844FCCE
:1011A0004A4A4A347E02020606027E027E026355E5
:1011B0004941633844443C04407E201E2006027EA0
:1011C000020299A5E7A5991C2A492A1C4C720172B2
:1011D0004C304A4D4D303048784830BC625A463D1C
:1011E0003E494949007E0101017E2A2A2A2A2A44D1
:1011F000445F444440514A444040444A5140000006
:10120000FF0103E080FF000008086B6B0836123610
:101210002436060F090F06000018180000001010F1
:10122000003040FF0101001F01011E00191D1712AF
:10123000003C3C3C3C00000000000000000023009B
:101240002600290000000008000201000003040736
:101250000000000000000000272A11241FBECFEF6D
:10126000D8E0DEBFCDBF27E0A8E8B6E001C01D9200
:10127000AE39B207E1F716E0A0E0B1E0EAE5FAE541
:1012800002C005900D92A838B107D9F719E0CDE258
:10129000D9E004C02197FE010E94642ACC32D10714
:1012A000C9F70E94171D0C942B2D0C9400006F920F
:1012B0007F928F929F92AF92BF92CF92DF92EF92E6
:1012C000FF920F931F93CF93DF93EC014B015A01D1
:1012D00069013801E881F9810680F781E02D0995DF
:1012E000E881F9810684F785E02D87019601A50143
:1012F000B401CE010995E881F981A501460D571D7C
:10130000415051090684F785E02D9601B401CE01C4
:101310000995E881F9810484F585E02D9301A50103
:10132000B401CE010995E881F981C80CD91CB60138
:10133000615071090484F585E02D9301A501CE016A
:101340000995E881F9810288F389E02DCE01DF91CA
:10135000CF911F910F91FF90EF90DF90CF90BF90B2
:10136000AF909F908F907F906F900994AF92BF92B3
:10137000CF92DF92EF92FF920F931F93CF93DF9361
:1013800000D000D0CDB7DEB75C016901DC01ED9182
:10139000FC916217730781F4008CF18DE02D041726
:1013A00015071CF0CA01980102C09A01C801281B48
:1013B000390B2F5F3F4F14C04017510719F59B01A0
:1013C0006C157D050CF49601CB01C616D7060CF4FE
:1013D000C601281B390B2F5F3F4F028CF38DE02D88
:1013E0008701C50109950F900F900F900F90DF9125
:1013F000CF911F910F91FF90EF90DF90CF90BF9012
:10140000AF9008950680F781E02D4B835C8369835C
:101410007A830995D501ED91FC910088F189E02D41
:1014200096014B815C8169817A81C5010995D5015D
:10143000ED91FC910288F389E02DC5010F900F908A
:101440000F900F90DF91CF911F910F91FF90EF9030
:10145000DF90CF90BF90AF900994EF92FF920F93DF
:101460001F93DC01ED91FC9111971A960D911C913F
:101470001B9718962D913C911997048CF58DE02DB2
:101480007B0140E050E060E070E009951F910F9112
:10149000FF90EF9008954F925F926F927F928F929C
:1014A0009F92AF92BF92CF92DF92EF92FF920F93F3
:1014B0001F93CF93DF9300D0CDB7DEB76C015A01F5
:1014C00039014801DC01ED91FC910680F781E02DA6
:1014D00069837A8309956981462E7A81572E640C37
:1014E000751CD601ED91FC91461457046CF40484EC
:1014F000F585E02D87019401A501B201C60109958A
:10150000BFEF4B1A5B0AEDCF0288F389E02DC601CD
:101510000F900F90DF91CF911F910F91FF90EF905F
:10152000DF90CF90BF90AF909F908F907F906F9003
:101530005F904F900994AF92BF92CF92DF92EF925B
:10154000FF920F931F93CF93DF9300D000D0CDB7BE
:10155000DEB75C016901DC01ED91FC910680F78149
:10156000E02D4B835C8369837A830995D501ED91E6
:10157000FC9169817A819B012C0D3D1D215031091F
:101580000088F189E02D78014B815C818A01C501D9
:101590000995D501ED91FC910288F389E02DC501F3
:1015A0000F900F900F900F90DF91CF911F910F919F
:1015B000FF90EF90DF90CF90BF90AF900994AF92E3
:1015C000BF92CF92DF92EF92FF920F931F93CF9330
:1015D000DF9300D000D0CDB7DEB75C016901DC013C
:1015E000ED91FC910680F781E02D4B835C8369834C
:1015F0007A830995D501ED91FC914B815C81C40EF4
:10160000D51EB1E0CB1AD1080088F189E02D780110
:10161000860169817A819B01C5010995D501ED910A
:10162000FC910288F389E02DC5010F900F900F9077
:101630000F90DF91CF911F910F91FF90EF90DF906E
:10164000CF90BF90AF9009940895EF92FF920F93BF
:101650001F93DC01ED91FC91048CF58DE02D099533
:101660001F910F91FF90EF9008950F931F93DC014E
:10167000ED91FC91028CF38DE02D09951F910F9156
:1016800008950F931F93DC01ED91FC91008CF18D77
:10169000E02D09951F910F910895DC01ED91FC91CA
:1016A0000480F581E02D099408952F923F924F9286
:1016B0005F926F927F928F929F92AF92BF92CF92E2
:1016C000DF92EF92FF920F931F93CF93DF9300D09F
:1016D0001F92CDB7DEB74C017B836A836A01590143
:1016E00017019801241B350B37FF03C03195219555
:1016F0003109C5014A815B81841B950B97FF03C0AB
:1017000091958195910951E059838217930714F0BF
:1017100019820BC09A2D8B2D5801092F182F9A81F1
:101720008B81DB82CA82C92ED82E8A819B81A81622
:10173000B9065CF49C2D8D2D6801092F182F9A8114
:101740008B81BB82AA82A92EB82E2501AA81BB81DA
:101750004A1A5B0A38016C187D0877FE03C0719441
:1017600061947108720157FE03C0BFEFEB1AFB0AC8
:10177000F594E794C016D1061CF00FEF1FEF1FC0C1
:1017800001E010E01CC0D401ED91FC91B98100840E
:10179000F185E02D9101BB23C1F04A815B81B60147
:1017A000C4010995E618F708F7FE04C0C00ED11E63
:1017B000E40CF51CEA81FB813196FB83EA834A81C4
:1017C0005B81A416B506FCF604C0A6016A817B8184
:1017D000E7CF0F900F900F90DF91CF911F910F9156
:1017E000FF90EF90DF90CF90BF90AF909F908F9041
:1017F0007F906F905F904F903F902F90089585ED70
:101800008093BC008091BC0084FDFCCF10923F0708
:1018100008954091EB06262F30E0240F311D213230
:101820003105DCF420913F072430C9F4FC0180E04D
:1018300090E0861758F43091EB062191DC01A75314
:10184000B94FA30FB11D2C930196F3CF8091EB06F6
:10185000680F6093EB0680E0089581E0089582E0D0
:101860000895089581E090E03091890620918806DE
:10187000321710F480E090E09195819591090895D8
:101880008091890690918806891730F48F5F809344
:10189000890680E090E008958FEF9FEF0895809192
:1018A000880690E020918906821B91090895CF92C5
:1018B000DF92EF92FF920F931F93CF93DF937C0100
:1018C000262F972F8A0180914007882391F0C62FF9
:1018D000D72F6E01C40ED51ECC15DD0571F06991B0
:1018E000D701ED91FC910190F081E02DC7010995A0
:1018F000F3CF642F822F0E94090CC801DF91CF9192
:101900001F910F91FF90EF90DF90CF900895CF93AC
:10191000DF931F92CDB7DEB7698320914007222362
:10192000D1F020916207203240F021E030E0FC014C
:101930003383228380E090E015C080914107E82F37
:10194000F0E0EE5BF84F998190838F5F80934107C1
:101950008093620705C061E0CE0101960E94090CE8
:1019600081E090E00F90DF91CF91089561E08BE0EE
:101970000C94F81760E08CE00E94F81760E08AE0B1
:101980000E94F81761E08CE00E94F81760E08CE09C
:101990000C94F81760E08CE00E94F81761E08AE090
:1019A0000E94F81761E08CE00E94F81760E08CE07C
:1019B0000C94F8172F923F924F925F926F927F9202
:1019C0008F929F92AF92BF92CF92DF92EF92FF924F
:1019D0000F931F93CF93DF93CDB7DEB76C970FB6FE
:1019E000F894DEBF0FBECDBF9C8F8B8F1B012A01E9
:1019F00018870F83FE82ED82CA82DC0158964D91D2
:101A00005C9159974115510509F0B2C018968D9116
:101A10009C911997681779070CF096C11A968D91C9
:101A20009C911B97481659060CF08EC1AC2CB12C1A
:101A3000CB01B6E0CB9E800D911D1124181619061E
:101A40000CF082C1C50133E0880F991F3A95E1F788
:101A5000840D951D181619060CF076C1AB8DBC8D42
:101A600057968C91811103C0203B08F02F5FAB8DFE
:101A7000BC8DED91FC9111970680F781E02DCD0191
:101A80002A8F09952A8DB5E02B9F900111246101C1
:101A900041011B82F901E219F309FA87E9879201F2
:101AA000285F3F4F3C872B873B81353049F0E985E4
:101AB000FA85E80DF91DE65CF24F4491498301C0B7
:101AC000198232011201598150FF13C0AB8DBC8DB8
:101AD000ED91FC91BA81B13031F40084F185E02DB3
:101AE0002F81388519C00284F385E02DEF80F884BA
:101AF0001EC0ED81FE812F813885E217F307F1F0DA
:101B0000AB8DBC8DED91FC91BA81B13059F400845C
:101B1000F185E02D2D813E81A301B4018B8D9C8D3B
:101B200009950CC00284F385E02DED80FE808501CF
:101B30009501A101B6018B8D9C8D0995E981E695F2
:101B4000E983FFEF6F1A7F0A2A0C3B1C2B853C852B
:101B50006216730609F0B7CF3B813F5F3B834FEFBF
:101B6000841A940ACA0CDB1C363009F09DCFCAC017
:101B7000FA0134969491329765917491291BCB01A7
:101B8000B7E02B9F800D911D1124FA01259134910E
:101B90003A8B298BFC0165907490FC01329634914C
:101BA0003D83319644914B873296C490319614917F
:101BB0005A81523058F08C2C0C2C000C9908812F33
:101BC000012E000C990B9C838B8304C01C821B820A
:101BD000812C912CAB8DBC8DED91FC9111970680E1
:101BE000F781E02DCD010995BA81AB2EB12C8A9CED
:101BF000C0018B9C900D9A9C900D1124FC01E20D6C
:101C0000F31DF88BEF871982912C812CEC2DCC0CD5
:101C1000FF0B91012E0F3F1F3A87298761013D81FC
:101C2000C30ED11CA6014E0F5F1F5F8B4E8BC201EE
:101C3000810F911D17FD9A95998F888F5B85851669
:101C400008F060C0882D90E04B815C81480F591FDF
:101C50004A9D90014B9D300D5A9D300D1124D901A4
:101C6000A40DB51DBE87AD87C984DA842F8438885A
:101C7000B981E985BE1BBB8B288D398D280F391F93
:101C80003D8B2C8B8B898C0D2E893F89C216D306F8
:101C900099F1877041F4C3010196E989FA89E60D4B
:101CA000F71D94903C0197FE20C0AB8DBC8DED914B
:101CB000FC91BA81B13061F40084F185E02D2F816F
:101CC00038854C895D89B6018B8D9C8D09950DC039
:101CD0000284F385E02DEF80F884850195014D8520
:101CE0005E85B1018B8D9C8D0995990CEFEFCE1A15
:101CF000DE0A2A0C3B1CC6CF39814D81340F398353
:101D000083949CCFAB8DBC8DED91FC911197028893
:101D1000F389E02DCD016C960FB6F894DEBF0FBEAF
:101D2000CDBFDF91CF911F910F91FF90EF90DF908A
:101D3000CF90BF90AF909F908F907F906F905F906B
:101D40004F903F902F9009946C960FB6F894DEBF99
:101D50000FBECDBFDF91CF911F910F91FF90EF90FC
:101D6000DF90CF90BF90AF909F908F907F906F90BB
:101D70005F904F903F902F9008951F920F920FB653
:101D80000F9211242F933F934F935F936F937F9301
:101D90008F939F93AF93BF93EF93FF938091B9007D
:101DA000887F803609F49CC068F5883209F45BC0EE
:101DB00090F4803109F454C038F4882309F4F6C053
:101DC000883009F44DC0F6C0883109F44CC0803227
:101DD00009F45DC0EFC0803409F468C048F4803372
:101DE00009F455C0883309F0E5C080933D07D8C099
:101DF000803509F44FC0883509F45DC0883409F096
:101E0000D9C0D6C0883909F4C7C0A8F4883709F406
:101E100067C038F4883609F463C0803709F460C0BD
:101E2000C9C0883809F4B8C0803909F45FC0803867
:101E300009F0C0C05BC0803B09F486C038F4803A2A
:101E400009F466C0883A09F47FC0B4C0803C09F444
:101E5000A7C0883C09F4A4C0883B09F48AC0AAC082
:101E600080911A0710C090913C0780913B0798170A
:101E700070F5E0913C0781E08E0F80933C07F0E025
:101E8000E55EF84F80818093BB0085EC86C080932F
:101E90003D078EC0E0913C0781E08E0F80933C07A8
:101EA0008091BB00F0E0E55EF84F808390913C07A5
:101EB00080913B076EC0E0913C0781E08E0F8093DC
:101EC0003C078091BB00F0E0E55EF84F8083809195
:101ED0003E0781116DC081E08093190784EA61C0DB
:101EE00083E080933F0710920F07CFCF80910F07B9
:101EF000803208F051C0E0910F0781E08E0F80938F
:101F00000F078091BB00F0E0E151F94F8083BDCF16
:101F100085EC8093BC0010923F0780910F078032C0
:101F200030F4E0910F07F0E0E151F94F1082609139
:101F30000F0770E0E091ED06F091EE068FEE96E06F
:101F4000099510920F0736C084E080933F071092E6
:101F5000EC061092EB06E091E906F091EA0609958D
:101F60008091EB06811105C081E08093EB06109211
:101F7000C906E091EC0681E08E0F8093EC06F0E05C
:101F8000E753F94F80818093BB009091EC068091DC
:101F9000EB06981708F479CF85E88093BC000AC057
:101FA00085EC8093BC0010923F0704C010923D075F
:101FB0000E94FF0BFF91EF91BF91AF919F918F9185
:101FC0007F916F915F914F913F912F910F900FBE35
:101FD0000F901F9018950C94BA2C0C94B22C4F9221
:101FE0005F926F927F928F929F92AF92BF92CF92A9
:101FF000DF92EF92FF9284E10E946418BC01990F76
:10200000880B990B0E94862B60939A0670939B060F
:1020100080939C0690939D0669E170E080E090E0DB
:102020000E947B1885E10E9464186C01990FEE08EC
:10203000FF08C701B6010E94862B2B013C0180904E
:102040009A0690909B06A0909C06B0909D062091C9
:102050001301309114014091150150911601C501F1
:10206000B4010E94362C181644F480921301909209
:102070001401A0921501B092160120910F01309128
:1020800010014091110150911201C301B2010E944F
:10209000362C181644F440920F01509210016092B1
:1020A00011017092120120910B0130910C014091AD
:1020B0000D0150910E01C501B4010E94D72A87FF7E
:1020C00008C080920B0190920C01A0920D01B09279
:1020D0000E012091070130910801409109015091B2
:1020E0000A01C301B2010E94D72A87FF08C04092AB
:1020F0000701509208016092090170920A016091F3
:1021000013017091140180911501909116010E94A4
:102110004E2B2B013C01C501B4010E944E2B9B01AB
:10212000AC012419350946095709A0EDBFEF0E94FB
:10213000F52C4B015C0160910B0170910C018091B9
:102140000D0190910E010E944E2B9B01AC012419B0
:10215000350946095709C501B4010E94C82CCA01B6
:10216000B9016E5C7F4F8F4F9F4F0E94862B60930B
:102170009A0670939B0680939C0690939D066091AF
:102180000F017091100180911101909112010E9434
:102190004E2B4B015C01A7019601261B370B480B08
:1021A000590BA0EDBFEF0E94F52C6B017C016091F3
:1021B0000701709108018091090190910A010E9424
:1021C0004E2B9B01AC01281939094A095B09C7014B
:1021D000B6010E94C82CCA01B9016E5C7F4F8F4FB7
:1021E0009F4F0E94862B609396067093970680936C
:1021F000980690939906FF90EF90DF90CF90BF9054
:10220000AF909F908F907F906F905F904F900895C8
:102210008F929F92AF92BF92CF92DF92EF92FF92F6
:1022200080918C0690918D06019690938D068093F7
:102230008C0680918A0690918B06019690938B066E
:1022400080938A0684E10E946418BC01990F880B70
:10225000990B0E94862B60939A0670939B0680933D
:102260009C0690939D0669E170E080E090E00E94FA
:102270007B1885E10E946418BC01990F880B990BAB
:102280000E94862B6B017C016093960670939706E3
:10229000809398069093990680909A0690909B065A
:1022A000A0909C06B0909D062091130130911401DE
:1022B0004091150150911601C501B4010E94362CC0
:1022C000181644F48092130190921401A092150103
:1022D000B092160120910F0130911001409111012F
:1022E00050911201C701B6010E94362C181644F411
:1022F000C0920F01D0921001E0921101F0921201F0
:1023000020910B0130910C0140910D0150910E0173
:10231000C501B4010E94D72A87FF08C080920B0133
:1023200090920C01A0920D01B0920E012091070134
:10233000309108014091090150910A01C701B6018D
:102340000E94D72A87FF08C0C0920701D0920801D7
:10235000E0920901F0920A01A7019601C501B401BA
:102360000E94362C181624F410928B0610928A06BE
:10237000A7019601C501B4010E94D72A87FF04C0B6
:1023800010928D0610928C068091010190E02091B0
:102390008C0630918D068217930718F41092C806A8
:1023A0000AC020918A0630918B068217930718F491
:1023B00081E08093C8068091C80681113CC060E02E
:1023C0008FE00E94F8176AE070E080E090E00E94E1
:1023D0007B1861E08EE00E94F81760E08DE00E94BB
:1023E000F81788E490E090937C0780937B0788E25D
:1023F00090E090937E0780937D078091050188236C
:10240000C1F0809103018430A1F481E696E00E943E
:102410006F1A8BE490E090937C0780937B078AE3AC
:1024200090E090937E0780937D0789E696E00E9476
:102430006F1A0E94ED198091C806813009F044C0DE
:1024400060E08EE00E94F8176AE070E080E090E0C3
:102450000E947B1861E08FE00E94F81761E08DE038
:102460000E94F81788E490E090937C0780937B07A4
:1024700088E290E090937E0780937D07809105012C
:102480008823C1F0809103018430A1F48EE696E0A8
:102490000E946F1A82E690E090937C0780937B07FE
:1024A0008AE390E090937E0780937D0786E796E02D
:1024B0000E946F1AFF90EF90DF90CF90BF90AF9087
:1024C0009F908F900C94ED19FF90EF90DF90CF903C
:1024D000BF90AF909F908F9008951F93CF93DF93FD
:1024E00060910001603319F4E091950626C06133D4
:1024F00019F4E091940621C0623319F4E091930637
:102500001CC0633319F4E091920617C0643319F4C8
:10251000E091910612C0653319F4E09190060DC068
:10252000663319F4E0918F0608C0673319F4E0911F
:102530008E0603C0603340F4E62FF0E0EE0FFF1F7D
:10254000E652F34FC591D49181E090E00E94EB0FE9
:102550000E94B60C60E08BE00E94F8170E94BA0C53
:102560000E94BA0C0E94BA0C0E94CA0C0E94BA0CBB
:1025700014E10E94BA0C1150E1F70E94B60C62E01F
:1025800070E080E090E00E947B1860E08BE00E94A9
:10259000F8170E94B60C60E08BE00E94F8170E94CA
:1025A000CA0C0E94BA0C0E94BA0C0E94BA0C0E947B
:1025B000CA0C10E1C0FF03C00E94CA0C02C00E94F6
:1025C000BA0CD695C7951150A9F70E94BA0C0E9473
:1025D000BA0C0E94BA0C0E94BA0C0E94B60C60E0C1
:1025E0008BE00E94F81760E08CE00E94F81760E032
:1025F0008AE0DF91CF911F910C94F817FC01AAEAB1
:10260000B6E090E02491222331F09E3121F02D9309
:1026100031969F5FF7CFE92FF0E0E655F94F208321
:102620008AEA96E00895CF92DF92EF92FF920F939D
:102630001F93CF93DF936C017A018B01C0E0D0E050
:10264000CE15DF0589F0D8016D918D01D601ED9190
:10265000FC910190F081E02DC6010995892B11F4C0
:102660007E0102C02196ECCFC701DF91CF911F916F
:102670000F91FF90EF90DF90CF900895833081F01D
:1026800028F4813099F08230A1F008958730A9F0C4
:102690008830B9F08430D1F4809180008F7D03C000
:1026A000809180008F7780938000089584B58F7724
:1026B00002C084B58F7D84BD08958091B0008F776E
:1026C00003C08091B0008F7D8093B00008953FB724
:1026D000F8948091150790911607A0911707B09173
:1026E000180726B5A89B05C02F3F19F00196A11D1C
:1026F000B11D3FBFBA2FA92F982F8827820F911D98
:10270000A11DB11DBC01CD0142E0660F771F881FDE
:10271000991F4A95D1F708950F931F93CF93DF9395
:10272000DC0155968C915597823071F0833009F118
:10273000813009F08CC01496ED91FC911597E41B43
:10274000F50BE21BF30B20C01496ED91FC9115974D
:10275000CF01861B970BBC01615071091696ED9154
:10276000FC911797CF01841B950BAC01421B530BB7
:102770006EC01696ED91FC911797CF01861B970BB3
:10278000BC0161507109FA0177FD1BC116968D914C
:102790009C911797681779070CF013C1F7FF04C0D5
:1027A0002E0F3F1FE0E0F0E014968D919C9115975D
:1027B000AF01420F531F841795071CF49C012E1B79
:1027C0003F0B121613060CF0FCC0CB0177FD0796E9
:1027D00043E0959587954A95E1F79695982F882738
:1027E00097958795E80FF91FE95EFE4F6770772789
:1027F00081E090E001C0880F6A95EAF7482F013028
:10280000110541F088F00230110509F0DAC02E0FF1
:102810003F1F15C02E0F3F1FE217F30709F4D1C069
:102820008081842B8193F8CF80952E0F3F1FE21774
:10283000F30709F4C6C0908198239193F8CFE2176B
:10284000F30709F4BEC0808184278193F8CF77FD18
:10285000B8C014968D919C911597681779070CF064
:10286000B0C057FF04C0240F351F40E050E016965B
:102870008D919C911797FA01E20FF31F8E179F0716
:102880001CF49C01241B350B121613060CF099C086
:10289000A22F842F86958695869590E8899F600D56
:1028A000711D1124FB01E95EFE4F4770A9F198E00C
:1028B000941B492F50E0EA01CD5DDA4F888129173A
:1028C00090F4421B51092FEF30E002C03595279557
:1028D0004A95E2F782230130110541F068F0023099
:1028E000110589F06EC00130110519F42081822B89
:1028F0000CC00130110520F480952081822305C091
:102900000230110531F4208182278083A91708F451
:1029100058C0A91BE058FF4FA83048F102301105FC
:1029200059F4EF018A2F988190959883C058DF4F12
:1029300088508830C0F730C081E00130110509F0BF
:1029400080E08195EF019A2F8883C058DF4F98501F
:102950009830D0F788EF8A0F86958695869590E80F
:10296000899FE00DF11D1124E058FF4FA770AA23A5
:1029700041F1B0E0A55EBA4F8C910130110529F00C
:1029800038F002301105D1F01CC09081892B18C09D
:1029900080959081892314C088EF8A0F869586954B
:1029A000869590E8899FE00DF11D1124E058FF4FB6
:1029B000A77039F0B0E0A55EBA4F8C91908189275D
:1029C0008083DF91CF911F910F9108950F931F93F3
:1029D000CF93DF93DC01FB0155968C9155978230A4
:1029E00081F0833019F1813051F514968D919C91CD
:1029F0001597BC01641B750BAB0141505109BF0118
:102A000081C014966D917C911597CB018E1B9F0B05
:102A1000FC0116968D919C911797BC01641B750B58
:102A2000AB0141505109E21BF30B09C016966D91A1
:102A30007C9117976E1B7F0B621B730B63C057FD56
:102A40001CC116968D919C911797481759070CF049
:102A500014C1F7FF04C02E0F3F1FE0E0F0E0149612
:102A60008D919C911597BF01620F731F8617970771
:102A70001CF49C012E1B3F0B121613060CF0FDC01C
:102A8000CA0157FD079663E0959587956A95E1F72A
:102A90009695982F882797958795E80FF91FE95EF7
:102AA000FE4F4770552781E090E001C0880F4A959E
:102AB000EAF7482F0130110541F088F00230110586
:102AC00009F0DBC02E0F3F1F15C02E0F3F1FE2176E
:102AD000F30709F4D2C08081842B8193F8CF8095CD
:102AE0002E0F3F1FE217F30709F4C7C09081982308
:102AF0009193F8CFE217F30709F4BFC080818427D0
:102B00008193F8CF57FDB9C014968D919C9115977C
:102B1000481759070CF0B1C077FF04C0260F371FC4
:102B200060E070E016968D919C911797FB01E20F83
:102B3000F31F8E179F071CF49C01261B370B1216E0
:102B400013060CF09AC0A22F862F8695869586953F
:102B500090E8899F400D511D1124FA01E95EFE4F56
:102B60006770A9F198E0961B492F50E0EA01CD5D0E
:102B7000DA4F8881291790F4421B51092FEF30E07A
:102B800002C0359527954A95E2F782230130110559
:102B900041F068F00230110589F06FC00130110575
:102BA00019F42081822B0CC00130110520F480958E
:102BB0002081822305C00230110531F42081822753
:102BC0008083A91708F459C0A91BE058FF4FA8300B
:102BD00048F10230110559F4EF018A2F9881909540
:102BE0009883C058DF4F88508830C0F731C081E0EB
:102BF0000130110509F080E08195EF019A2F88835B
:102C0000C058DF4F98509830D0F788EF8A0F8695DC
:102C10008695869560E8869FE00DF11D1124E058A9
:102C2000FF4FA770AA2349F1B0E0A55EBA4F8C917F
:102C30000130110529F038F002301105D9F01DC01E
:102C40009081892B03C0809590818923808315C052
:102C500088EF8A0F86958695869570E8879FE00DA8
:102C6000F11D1124E058FF4FA77039F0B0E0A55EC8
:102C7000BA4F8C9190818927E9CFDF91CF911F9135
:102C80000F910895FC0177FD9AC0808591856817A2
:102C900079070CF094C057FD92C082859385481740
:102CA00059070CF08CC08589823009F07CC0848182
:102CB0009581DC01A61BB70BBD01615071098681AE
:102CC0009781FC01E41BF50BAF01415051090AC08B
:102CD000813041F484819581841B950BAB01BC014B
:102CE000615071092130310529F008F12230310598
:102CF000E1F10895FA0157FD3796A3E0F595E795C0
:102D0000AA95E1F7F695FE2FEE27F795E7956E0F5A
:102D10007F1FFB01E95EFE4F4770552781E090E081
:102D200001C0880F4A95EAF79081892B3AC0FA01D1
:102D300057FD379623E0F595E7952A95E1F7F69547
:102D4000FE2FEE27F795E7956E0F7F1FFB01E95EDB
:102D5000FE4F4770552781E090E001C0880F4A95EB
:102D6000EAF78095908189231CC0FA0157FD3796B8
:102D700083E0F595E7958A95E1F7F695FE2FEE2726
:102D8000F795E7956E0F7F1FFB01E95EFE4F4770D9
:102D9000552781E090E001C0880F4A95EAF79081BD
:102DA000892780830895833009F092CF86819781A7
:102DB000861B970BBA01AC014150510993CF08957E
:102DC0000895FC016370658B84819581268137812C
:102DD000613039F0633029F091878087338722870B
:102DE0000895318720879387828708950E94AD2CAC
:102DF000AF92BF92CF92EF92FF920F931F93CF9318
:102E0000DF93EC01262F888D998D009709F042C041
:102E10006A3069F42C898E859F8538E0239F800D68
:102E2000911D11249F878E871D861C86ACC06D3036
:102E300009F4A9C08E898823C1F03C898C859D85C1
:102E400046E0349F800D911D1124488559858417D3
:102E500095075CF01D861C868E859F85E8E03E9F69
:102E6000800D911D11249F878E87EA88FB88088931
:102E700019894E855F856C857D85CC88CE010E9441
:102E8000DA0C2C898C859D85F6E02F9F800D911D95
:102E9000112441C06A3079F41D861C862C89FC01FE
:102EA0003696E4918E859F852E9F800D911D11246D
:102EB0009F878E8768C06D3009F465C0AC014C5F98
:102EC0005F4FFA013491631708F45DC03196E491C5
:102ED000E61708F458C0FA014491362F341BFC0160
:102EE0003296A590B490F7E03F9FA00CB11C11243E
:102EF000F501329634913196E491332311F0E111CA
:102F00000DC0F5013496E4912C898C859D85E29F56
:102F1000800D911D11249D878C8735C0F501359654
:102F200044915E89552311F16C89E32FF0E0E40FA1
:102F3000F11D47FDFA956E9FD0016F9FB00D1124D2
:102F40004C855D854A0F5B1FE885F9854E175F0745
:102F50006CF01D861C86FC013696E4918E859F855B
:102F60006E9F800D911D11249F878E87EA88FB88B4
:102F7000088919894E855F856C857D85CC88CE0151
:102F80000E94DA0CBECF81E090E0DF91CF911F91DB
:102F90000F91FF90EF90CF90BF90AF900895CF9397
:102FA000DF93282F30E0F901EC5BFD4E8491F901AD
:102FB000EE58FF4FD491F901E057FF4FC491CC2355
:102FC00091F081110E943E13EC2FF0E0EE0FFF1FF5
:102FD000E65CFD4EA591B491EC91ED2381E090E08B
:102FE00021F480E002C080E090E0DF91CF9108956D
:102FF0001F93CF93DF93282F30E0F901EC5BFD4E58
:103000008491F901EE58FF4FD491F901E057FF4F39
:10301000C491CC23C9F0162F81110E943E13EC2FCE
:10302000F0E0EE0FFF1FEA57FF4FA591B4918FB765
:10303000F894111105C09C91ED2FE095E92302C091
:10304000EC91ED2BEC938FBFDF91CF911F91089501
:10305000CF93DF9390E0FC01EE58FF4F2491FC01E9
:10306000E057FF4F8491882361F190E0880F991F0A
:10307000FC01E859FF4FC591D491FC01EA57FF4F7D
:10308000A591B491611109C09FB7F89488812095EA
:1030900082238883EC912E230BC0623061F49FB7AA
:1030A000F8943881822F809583238883EC912E2B8E
:1030B0002C939FBF06C08FB7F894E8812E2B2883EE
:1030C0008FBFDF91CF9108958E3008F08E508770BA
:1030D000806480937C0080917A00806480937A0081
:1030E00080917A0086FDFCCF809178002091790054
:1030F00090E0922B08958F929F92AF92BF92CF92C1
:10310000DF92EF92FF926B017C010E9467134B01EB
:103110005C01C114D104E104F104F1F00E946713D1
:10312000DC01CB0188199909AA09BB09883E9340A3
:10313000A105B10570F321E0C21AD108E108F10838
:1031400088EE880E83E0981EA11CB11CC114D10426
:10315000E104F10419F7DDCFFF90EF90DF90CF90FD
:10316000BF90AF909F908F9008951F920F920FB6CF
:103170000F9211242F933F938F939F93AF93BF93FD
:103180008091110790911207A0911307B091140735
:103190003091100723E0230F2D3720F40196A11D55
:1031A000B11D05C026E8230F0296A11DB11D209375
:1031B00010078093110790931207A0931307B09301
:1031C00014078091150790911607A0911707B091E9
:1031D00018070196A11DB11D80931507909316073E
:1031E000A0931707B0931807BF91AF919F918F914C
:1031F0003F912F910F900FBE0F901F901895209127
:10320000620790919D07213208F04AC080913F07E4
:103210008111FCCF32E030933F0731E030933E071D
:103220003FEF30933D0710923C0720933B07A2E409
:10323000B7E04BE157E0FA013E2F341B321718F488
:103240003D913193F9CF10921A0720911A07990FE7
:10325000922B90931A0790911907913061F4109274
:10326000190790911A079093BB009091BC0093FDB1
:10327000F8CF95EC01C095EE9093BC0090913F077C
:103280009230E1F390913D079F3F79F080913D07A7
:10329000803241F080913D07803331F084E005C0F9
:1032A00081E003C082E001C083E0109241071092E8
:1032B000620710924007089590919007992339F082
:1032C0008EBD00000DB407FEFDCF8EB5089528E039
:1032D00030E040E8E0919307F0919407508190919D
:1032E0009A07909595239083E0919107F09192072A
:1032F00090919907542F582319F05081952B03C0B2
:103300005081909595239083E0919307F0919407D5
:10331000508190919A07952B9083469521503109C1
:10332000C9F60895009769F0FC0101900020E9F7C3
:103330003197AF01481B590BBC018FE697E00C9405
:10334000131380E090E00895CF93C82F80918B07EE
:103350008F3F59F1E0919507F09196078081909108
:103360009B07982B9083E0919707F0919807208115
:1033700090919C07909592239083E0919507F0910E
:103380009607208190919B079095922390838C2F94
:103390000E945C19E0919507F091960790818091C9
:1033A0009B07892B8083CF9108958091890791E0B5
:1033B0009093400780939D071092410710926207F7
:1033C00060E083E697E00E94870C6C2F83E697E02D
:1033D0000E94870CCF910C94FF18EF92FF920F93ED
:1033E0001F93CF93DF9381E20E94A41980E00E9493
:1033F000A4198FE70E94A41982E20E94A41980E018
:103400000E94A41987E00E94A41980918B078F3F26
:1034100079F1E0919507F0919607908180919B0753
:10342000892B8083E0919707F09198079081809194
:103430009C07892B8083E0919507F09196079081F6
:1034400080919B07809589238083C7E1D1E0899192
:103450000E945C1985E0C731D807C9F7E09195074C
:10346000F0919607908180919B07892B808330C0D3
:10347000F090B8008CE08093B800C7E1D1E0EE2472
:10348000E39480918907E092400780939D07109212
:1034900041071092620760E483E697E00E94870C80
:1034A00000E010E0FE01E00FF11F608183E697E08D
:1034B0000E94870C0F5F1F4F0031110599F70E9482
:1034C000FF18609685E0C731D807D9F6F092B800AA
:1034D000DF91CF911F910F91FF90EF9008950C9481
:1034E00092198F929F92AF92BF920F931F93CF9397
:1034F000DF93CDB7DEB7A1970FB6F894DEBF0FBE4E
:10350000CDBF19A2423008F44AE08E010F5D1F4F73
:10351000842E912CA12CB12CA50194010E94FA2C8F
:10352000E62FB901CA0101501109EA3014F4E05D37
:1035300001C0E95CD801EC93232B242B252B61F7E8
:10354000C8010E949219A1960FB6F894DEBF0FBE73
:10355000CDBFDF91CF911F910F91BF90AF909F9002
:103560008F90089580E094E0E7E1F1E0DF019C01B5
:103570001D9221503040E1F708953F924F925F92A3
:103580006F927F928F929F92AF92BF92CF92DF9273
:10359000EF92FF920F931F93CF93DF9300D000D051
:1035A00000D0CDB7DEB73C016B015A01790128018B
:1035B000C901079697FD07969C0193E035952795DD
:1035C0009A95E1F73A832983812C912C312C00E0E4
:1035D00010E0041515050CF03DC01E821D82F80197
:1035E000EC0DFD1DFC83EB832D813E812E153F05E7
:1035F00054F58D819E8187709927892B11F0330CAA
:103600000EC0ED81FE81F7FD379683E0F595E795D5
:103610008A95E1F7E80DF91DEA0DFB1D349037FEA0
:103620000CC021E030E04B815C816D817E81660DB4
:10363000771D8FE697E00E944D0B8D819E8101964C
:103640009E838D83D1CF0F5F1F4F89819A81880E12
:10365000991EBFCF26960FB6F894DEBF0FBECDBF22
:10366000DF91CF911F910F91FF90EF90DF90CF905E
:10367000BF90AF909F908F907F906F905F904F9092
:103680003F9008954F925F926F927F928F929F9298
:10369000AF92BF92CF92DF92EF92FF926B017C01CB
:1036A000B42E9B01AC010E94A82C882319F08BE753
:1036B00096E027C026013701E89477F82FEF3FEF17
:1036C0004FE75FE7C301B2010E94A82C81110DC032
:1036D0002FEF3FEF4FE75FE7C301B2010E94D72A08
:1036E00018161CF48FE796E00CC02FEF3FEF4FE762
:1036F0005FE4C701B6010E94362C181684F483E8F3
:1037000096E0FF90EF90DF90CF90BF90AF909F90AA
:103710008F907F906F905F904F900C9492192FEF45
:103720003FEF4FE75FECC701B6010E94D72A87FD44
:10373000E6CF20E030E0A901C701B6010E94D72AF8
:1037400087FF11C0E0916F07F09170070190F08141
:10375000E02D6DE28FE697E009954C01F7FAF094C1
:10376000F7F8F09402C0812C912CA12C60E070E05D
:1037700080E09FE3AB1441F020E030E040E251E410
:103780000E94DC2AA394F6CF9B01AC01C701B601CD
:103790000E946B2A2B013C010E94552B6B017C017E
:1037A0000E94842B9B01AC01C301B2010E946A2AD2
:1037B0002B013C014AE0C701B6010E94711A7C014D
:1037C000E80CF91CBB2069F0E0916F07F0917007DD
:1037D0000190F081E02D6EE28FE697E00995E80E0A
:1037E000F91EDB2CDD2021F120E030E040E251E445
:1037F000C301B2010E943B2C2B013C010E94552BBE
:103800004B01A12CB12C4AE0C501B4010E94711AF0
:10381000E80EF91EC501B4010E94842B9B01AC0186
:10382000C301B2010E946A2A2B013C01DA94DACF6B
:10383000C701FF90EF90DF90CF90BF90AF909F9027
:103840008F907F906F905F904F9008952F923F924E
:103850004F925F926F927F928F929F92AF92BF92A0
:10386000CF92DF92EF92FF920F931F93CF93DF934C
:1038700000D000D0CDB7DEB78C017B015C834B83D9
:1038800081E090E05C01A41AB50ACA019195819586
:1038900091091C01220C331C460F571F21E030E018
:1038A000B8018FE697E00E944D0BA7012B813C8168
:1038B000421B530B21E030E0B8018FE697E00E94F5
:1038C0004D0B6B817C81600F711F21E030E0A701FF
:1038D0008FE697E00E944D0BB8018B819C81681B9D
:1038E000790B21E030E0A7018FE697E00E944D0BB5
:1038F000C12CD12CE1E0F0E0FA83E9832B813C81FB
:10390000C216D3060CF076C0B7FC0BC02B813C81ED
:10391000215031093C832B8332E0230E311CA20C51
:10392000B31C8FEFC81AD80AE981FA813296FA835C
:10393000E983AE0EBF1E3601600E711E21E030E03D
:103940008B809C808E0C9F1CA401B3018FE697E0B6
:103950000E944D0B28014C185D0821E030E0A401C5
:10396000B2018FE697E00E944D0B21E030E0470165
:103970008B819C81881A990AA401B3018FE697E094
:103980000E944D0B21E030E0A401B2018FE697E0E8
:103990000E944D0B46018E0C9F1C21E030E0A401DB
:1039A0006B807C80600E711EB3018FE697E00E94F1
:1039B0004D0B21E030E0A4012801EB81FC814E1A7F
:1039C0005F0AB2018FE697E00E944D0B47018C1809
:1039D0009D0821E030E0A401B3018FE697E00E944A
:1039E0004D0B21E030E0A401B2018FE697E00E9488
:1039F0004D0B84CF0F900F900F900F90DF91CF91D0
:103A00001F910F91FF90EF90DF90CF90BF90AF90FC
:103A10009F908F907F906F905F904F903F902F90EE
:103A20000895BC0180E090E04AE00C94711ACF93B5
:103A3000DF9300D000D0CDB7DEB7789484B5826034
:103A400084BD84B5816084BD85B5826085BD85B542
:103A5000816085BD80916E00816080936E001092C0
:103A6000810080918100826080938100809181003B
:103A700081608093810080918000816080938000CC
:103A80008091B10084608093B1008091B00081602A
:103A90008093B00080917A00846080937A00809156
:103AA0007A00826080937A0080917A0081608093AE
:103AB0007A0080917A00806880937A001092C10029
:103AC00061E08DE00E94281861E08EE00E942818D5
:103AD00061E08FE00E94281860E082E00E942818D0
:103AE00062E082E00E94F81760E083E00E942818FC
:103AF00062E083E00E94F81760E084E00E942818EA
:103B000062E084E00E94F81782E00E94CF1721E073
:103B1000892B09F420E02093060183E00E94CF174F
:103B200021E0892B09F420E02093050184E00E9424
:103B3000CF1721E0892B09F420E02093040183E0D2
:103B400090E00E94ED0FB82E8093950684E090E0FF
:103B50000E94ED0FC82E8093940685E090E00E94AD
:103B6000ED0FD82E8093930686E090E00E94ED0F33
:103B7000082F8093920687E090E00E94ED0F182FA7
:103B80008093910688E090E00E94ED0F982E80933C
:103B9000900689E090E00E94ED0FA82E80938F069A
:103BA0008AE090E00E94ED0F982F80938E0687E3C5
:103BB0008B1518F488E180939506A7E3AC1518F4EB
:103BC0008FE180939406B7E3BD1518F488E18093E4
:103BD0009306083318F08FE180939206183318F09B
:103BE00088E180939106E7E3E91518F48FE180936B
:103BF0009006F7E3FA1518F488E180938F0698335E
:103C000018F08FE180938E0661E08BE00E94281807
:103C100061E08AE00E94281861E08CE00E94281888
:103C200061E08DE00E94F81782E080938A078CE3C0
:103C30008093890780918B078F3F09F4BDC061E0B5
:103C400080918D070E94281861E080918F070E9463
:103C5000281880918F07082E000C990BFC01E05763
:103C6000FF4FE491F0E0EE0FFF1FEA57FF4F259161
:103C700034913093960720939507FC01EE58FF4F3F
:103C8000E491E0939B0780918D07082E000C990B1F
:103C9000FC01E057FF4FE491F0E0EE0FFF1FEA5701
:103CA000FF4F259134913093980720939707FC019B
:103CB000EE58FF4FE491E0939C07809190078111AB
:103CC0003EC061E080918B070E94281861E08091DE
:103CD0008C070E94281880918C07082E000C990BE5
:103CE000FC01E057FF4FE491F0E0EE0FFF1FEA57B1
:103CF000FF4F259134913093940720939307FC0153
:103D0000EE58FF4FE491E0939A0780918B07082EBD
:103D1000000C990BFC01E057FF4FE491F0E0EE0F2F
:103D2000FF1FEA57FF4F259134913093920720935C
:103D30009107FC01EE58FF4FE491E09399078091C1
:103D40009007882309F45FC01FB7F89480919E06FE
:103D5000811127C0EAE9F0E08491ECE7F0E094916A
:103D6000E82FF0E0EE0FFF1FE859FF4FA591B49147
:103D7000EC91E92321F461E08AE00E94F81761E008
:103D80008AE00E9428188CB580618CBD8CB5806457
:103D90008CBD61E08DE00E94281861E08BE00E94FC
:103DA000281880919E068F5F80939E061FBF80E536
:103DB0008CBD81E08DBD27C01092890610928806C7
:103DC000109241071092620710923F0781E08093A2
:103DD0003E071092190761E082E10E94F81761E046
:103DE00083E10E94F8178091B9008E7F8093B9001B
:103DF0008091B9008D7F8093B90088E48093B800EA
:103E000085E48093BC0080918E0787FD1EC061E031
:103E10000E94281861E080918E070E94F81761E0E7
:103E200070E080E090E00E947B1860E080918E0757
:103E30000E94F8176AE070E080E090E00E947B1832
:103E400061E080918E070E94F8178EEA0E94A41903
:103E500085ED0E94A41980E80E94A41988EA0E94B6
:103E6000A4198FE30E94A41983ED0E94A41980E095
:103E70000E94A41980E40E94A4198DE80E94A4194C
:103E800084E10E94A41980E20E94A41980E00E94AB
:103E9000A41981EA0E94A41988EC0E94A4198AED51
:103EA0000E94A41982E10E94A41981E80E94A41929
:103EB0008FEC0E94A41989ED0E94A41981EF0E9441
:103EC000A4198BED0E94A41980E40E94A41984EA2D
:103ED0000E94A41986EA0E94A4198EE20E94A419E5
:103EE0008FEA0E94A4190E94B21A00E410E020E8B0
:103EF00030E044EA50E060E070E080E090E00E9452
:103F0000BD1A0E94ED1960ED77E080E090E00E941C
:103F10007B180E94B21A81E090E090938207809310
:103F200081079093800780937F0711E010938307A8
:103F30008AE090E090937C0780937B0784E190E097
:103F400090937E0780937D0783E695E00E946F1A29
:103F50008CE090E090937C0780937B0788E290E070
:103F600090937E0780937D0784E795E00E946F1A07
:103F70000E94ED19109383076CED75E080E090E0EE
:103F80000E947B180E94B21A61E08DE00E94F8172F
:103F900064E170E080E090E00E947B1881E090E0B6
:103FA0000E94ED0F8093000182E090E00E94ED0FEF
:103FB000809301016AE070E080E090E00E947B184D
:103FC00061E08EE00E94F81760E08FE00E94F81731
:103FD00064E670E080E090E00E947B180E946D1221
:103FE0006AE070E080E090E00E947B1882E0C82EDA
:103FF000D12C9DE2A92EB12C25E3822E912C00E537
:10400000202E312C8091A8069091A9068536910525
:1040100008F43EC00E9408110E94B21A08E210E0A3
:1040200020E530E044EA54E060E070E080E090E0B9
:104030000E94BD1A89E690E09093A9068093A80695
:1040400082E00E94CF1701E0892B09F400E0009381
:10405000060183E00E94CF1711E0892B09F410E0DC
:104060001093050184E00E94CF1721E0892B09F409
:1040700020E020930401002329F0112319F02111DD
:104080000C941D2A1092A9061092A8060C941D2AC1
:104090000E9408118091A8069091A906019690931C
:1040A000A9068093A80680910301813009F0AFC171
:1040B0008091A7068111A7C182E00E94CF1711E06D
:1040C000892B09F410E01093060183E00E94CF17BA
:1040D00021E0892B09F420E02093050184E00E946F
:1040E000CF1701E0892B09F400E0009304010E943E
:1040F000EF0F11111AC0011118C00E94B21A82E20A
:1041000090E090937C0780937B0780E290E090930F
:104110007E0780937D0784E895E00E946F1A0E94D5
:10412000ED1984E0809303016EC140909A0650908F
:104130009B0660909C0670909D0620E030E048E46D
:1041400052E4C301B2010E94362C181684F020E01C
:1041500030E048E452E460919606709197068091B1
:104160009806909199060E94362C18161CF481E04E
:104170008093A70664E170E080E090E00E947B18E5
:10418000B0927C07A0927B0790927E0780927D0779
:1041900042E0C301B2010E94421B60919A067091F5
:1041A0009B0680919C0690919D060E944E2B20912B
:1041B000790730917A0737FF02C02F5F3F4F35955F
:1041C0002795AB01B90189E190E00E94261C20E00F
:1041D00030E040E05FE360919A0670919B06809129
:1041E0009C0690919D060E943B2C0E944E2B209194
:1041F000790730917A0737FF02C02F5F3F4F35951F
:104200002795AB01B90189E190E00E94261C20E0CE
:1042100030E040EA50E460919A0670919B068091EC
:104220009C0690919D060E94DC2A0E944E2B2091B4
:10423000790730917A0737FF02C02F5F3F4F3595DE
:104240002795AB01B90189E190E00E94261C0E94EC
:10425000ED196FE070E080E090E00E947B180E9412
:10426000B21AB0927C07A0927B0790927E07809250
:104270007D0760919A0670919B0680919C069091B3
:104280009D0642E00E94421B60919606709197063F
:1042900080919806909199060E944E2B2091790763
:1042A00030917A0737FF02C02F5F3F4F3595279532
:1042B000AB01B90186E690E00E94261C20E030E0C8
:1042C00040E05FE3609196067091970680919806B2
:1042D000909199060E943B2C0E944E2B20917907C9
:1042E00030917A0737FF02C02F5F3F4F35952795F2
:1042F000AB01B90186E690E00E94261C20E030E088
:1043000040EA50E460919606709197068091980675
:10431000909199060E94DC2A0E944E2B20917907E9
:1043200030917A0737FF02C02F5F3F4F35952795B1
:10433000AB01B90186E690E00E94261C0E94ED19AF
:104340006FE070E080E090E00E947B180E94B21A5B
:10435000B0927C07A0927B0790927E0780927D07A7
:1043600060919A0670919B0680919C0690919D06A3
:1043700042E00E94421B20919606309197064091A0
:1043800098065091990660919A0670919B068091CB
:104390009C0690919D060E946A2A0E944E2BEE2454
:1043A000E394F12C06E010E025E030E0AB0167E19A
:1043B00070E08FE697E00E944B0A20919A063091B8
:1043C0009B0640919C0650919D06609196067091C7
:1043D000970680919806909199060E946A2A0E94F9
:1043E0004E2B25E030E0AB0164E670E08FE697E00D
:1043F0000E944B0A0E94ED196FE070E080E090E0AF
:104400000E947B1855CE1092A7060C941D2A82306C
:1044100009F09DC00E94CF1777247394892B09F46B
:10442000712C7092060183E00E94CF1701E0892B66
:1044300009F400E00093050184E00E94CF1711E029
:10444000892B09F410E01093040171100BC08091C6
:10445000010181508093010164E670E080E090E00A
:104460000E947B18011108C01092030164E670E0FD
:1044700080E090E00E947B1811110BC08091010137
:104480008F5F8093010164E670E080E090E00E941D
:104490007B18809101018A3118F085E08093010139
:1044A00080910101853018F485E0809301016091CD
:1044B000010182E090E00E94EB0F0E94B21A81E0BD
:1044C00080938307D0927C07C0927B0710927E076F
:1044D00010927D078EE895E00E946F1AADE3B0E080
:1044E000B0937C07A0937B07E4E1F0E0F0937E07B4
:1044F000E0937D076091010170E080E090E04AE088
:104500000E94711A80E290E090937C0780937B0771
:1045100088E290E090937E0780937D07809101016F
:104520008B3020F481EA95E00E946F1A809101019E
:104530008B50843020F48CEA95E00E946F1A8091B1
:1045400001018F3008F473C78AEB95E06EC78330A2
:1045500009F0B2C00E94B21A1092A60624E0722E90
:104560008091A6068F3608F068C78F5F8093A606F5
:104570000E94EF0FEE24E394F12C02E010E02CE710
:1045800030E04EE350E060E070E08FE697E00E949C
:104590004B0A0FE310E021E030E040E050E061E042
:1045A00070E08FE697E00E944B0A60919A06709146
:1045B0009B0680919C0690919D060E944E2B0AE0DE
:1045C00010E02AE030E0AB0162E070E08FE697E0B7
:1045D0000E944B0A0FE310E021E030E040E050E0A1
:1045E0006CE070E08FE697E00E944B0A21E030E03B
:1045F00040E050E060E770E08FE697E00E944B0AF1
:104600006091960670919706809198069091990610
:104610000E944E2B0AE010E02AE030E0AB0161E797
:1046200070E08FE697E00E944B0A0FE310E021E074
:1046300030E040E050E06BE770E08FE697E00E94EA
:104640004B0A1091A6061C3060F160919A06709199
:104650009B0680919C0690919D060E944E2BE12F17
:10466000F0E001E010E021E030E0AB01BF018FE6B7
:1046700097E00E944B0A6091960670919706809190
:104680009806909199060E944E2B2091A606E22F43
:10469000F0E023E030E0AB01BF018FE697E00E943D
:1046A0004B0A0E94ED197092030165E070E080E012
:1046B00090E00E947B1854CF843009F0CBC40E9454
:1046C000B21A82E00E94CF1711E0892B09F410E0A2
:1046D0001093060183E00E94CF1701E0892B09F4B3
:1046E00000E00093050184E00E94CF1721E0892BB0
:1046F00009F420E02093040101111092A506111184
:104700003AC0809100018F5F873308F087E3809380
:1047100000010E94B21A84E08093830710927C0704
:1047200010927B0784E190E090937E0780937D0751
:1047300086EC95E00E946F1A0E94ED1968EC70E01B
:1047400080E090E00E947B1811E0109383070E94A4
:104750006D128FE590E09093A4068093A3061093CA
:10476000A2061092A9061092A8066AE070E080E006
:1047700090E00E947B188091040181113CC08091DF
:104780000001815019F08093000102C010920001D5
:104790000E94B21A84E08093830710927C071092E3
:1047A0007B07A4E1B0E0B0937E07A0937D078EEC79
:1047B00095E00E946F1A0E94ED1968EC70E080E0AD
:1047C00090E00E947B1881E0809383070E946D1225
:1047D0008FE590E09093A4068093A30682E08093F7
:1047E000A2061092A9061092A8066AE070E080E086
:1047F00090E00E947B18809105018111BFC18091DA
:10480000A5068F5F8093A5061092A6061092A906B2
:104810001092A8064091A6064A30D8F44F5F409304
:10482000A60650E0440F551F6091790770917A07F2
:1048300077FF02C06F5F7F4F759567958FE390E0BC
:104840000E94261C0E94ED1961E08DE00E94F8177D
:10485000E1CF8091A506863010F01092A506109148
:10486000A506113009F068C00E94B21A82E0809358
:10487000830710927C0710927B07E4E1F0E0F0934D
:104880007E07E0937D0787ED95E00E946F1A0E94F6
:10489000ED1968E572E080E090E00E947B181093CB
:1048A00083070E94B21A64E670E080E090E00E9404
:1048B0007B1883E00E94CF1721E0892B09F420E0C8
:1048C00020930501222309F4B8C51092A5060E9481
:1048D000B21A82E08093830710927C0710927B07C4
:1048E00084E190E090937E0780937D0780EE95E0D1
:1048F0000E946F1A0E94ED1980910001885F8F322B
:1049000008F08FE2809300010E946D123092A4069D
:104910002092A30660E471E080E090E00E947B18A2
:1049200081E0809383070E94B21A60E471E080E026
:1049300090E00E947B1881C5123009F065C00E948A
:10494000B21A1093830710927C0710927B07A4E1A0
:10495000B0E0B0937E07A0937D0785EE95E00E94BE
:104960006F1A0E94ED1968E572E080E090E00E9405
:104970007B1881E0809383070E94B21A83E00E9433
:10498000CF1721E0892B09F420E020930501222391
:1049900009F453C51092A5060E94B21A82E08093D2
:1049A000830710927C0710927B07E4E1F0E0F0931C
:1049B0007E07E0937D0780EE95E00E946F1A0E94CB
:1049C000ED1980910001885019F08093000102C018
:1049D000109200010E946D123092A4062092A3064C
:1049E00060E471E080E090E00E947B1881E08093B9
:1049F00083070E94B21A60E471E080E090E00E94B8
:104A00007B181092A10619C5133009F054C00E94FA
:104A1000B21A82E08093830710927C0710927B0782
:104A200084E190E090937E0780937D078EEE95E081
:104A30000E946F1A0E94ED1968E572E080E090E034
:104A40000E947B180E94B21A83E00E94CF1721E0D7
:104A5000892B09F420E020930501222309F4EDC4F9
:104A60001092A5060E94B21A82E0809383071092EA
:104A70007C0710927B07A4E1B0E0B0937E07A0937F
:104A80007D0780EE95E00E946F1A0E94ED1960E4A8
:104A900071E080E090E00E947B1881E080938307C2
:104AA0000E94B21A60E471E080E090E00E947B18FE
:104AB00085E0809303018091A506843009F053C0FE
:104AC0000E94B21A82E08093830710927C071092B2
:104AD0007B07E4E1F0E0F0937E07E0937D0786EF4B
:104AE00095E00E946F1A0E94ED1968E572E080E07F
:104AF00090E00E947B180E94B21A83E00E94CF17B8
:104B000021E0892B09F420E020930501222309F4F8
:104B100094C41092A5060E94B21A82E08093830783
:104B200010927C0710927B0784E190E090937E07BF
:104B300080937D0780EE95E00E946F1A0E94ED1928
:104B400060E471E080E090E00E947B1881E0809357
:104B500083070E94B21A60E471E080E090E00E9456
:104B60007B181092030181E0809383070E94B21AA0
:104B700060E471E080E090E00E947B1864E170E006
:104B800080E090E00E947B180E94EF0F6090A306E7
:104B90007090A4069FEF691A790A7092A406609239
:104BA000A3060E94B21AA8E26A167104D0F500E4C6
:104BB00010E020E430E044E956E061E070E081E09C
:104BC00090E00E94BD1A20E030E040E85EE3609192
:104BD00096067091970680919806909199060E948A
:104BE0003B2C0E944E2BAB0166E070E084E390E02A
:104BF0000E94261C20E030E040E85EE360919A06C7
:104C000070919B0680919C0690919D060E943B2C82
:104C10000E944E2BAB0166E070E084E390E00E94BE
:104C2000261C8091A3069091A4068997C697D0F47C
:104C30008AE090E090937C0780937B0785E090E08A
:104C400090937E0780937D0788E08093830760912F
:104C5000A00670E080E090E04AE00E94711A81E0D6
:104C6000809383078091A3069091A40680369105D6
:104C700008F4B0C08AE090E090937C0780937B07B3
:104C800090937E0780937D0782E0809383078091D5
:104C90000001803359F4E0919506F0E0EE0FFF1F1C
:104CA000EC5CF94F859194910E94111D8091000157
:104CB000813359F4E0919406F0E0EE0FFF1FEC5CB5
:104CC000F94F859194910E94111D809100018233CA
:104CD00059F4E0919306F0E0EE0FFF1FEC5CF94F02
:104CE000859194910E94111D80910001833359F4A4
:104CF000E0919206F0E0EE0FFF1FEC5CF94F85911A
:104D000094910E94111D80910001843359F4E09127
:104D10009106F0E0EE0FFF1FEC5CF94F8591949146
:104D20000E94111D80910001853359F4E091900695
:104D3000F0E0EE0FFF1FEC5CF94F859194910E941B
:104D4000111D80910001863359F4E0918F06F0E047
:104D5000EE0FFF1FEC5CF94F859194910E94111D9D
:104D600080910001873359F4E0918E06F0E0EE0F58
:104D7000FF1FEC5CF94F859194910E94111DE09109
:104D80000001E03348F4F0E0EE0FFF1FEC5CF94F58
:104D9000859194910E94111D8AE090E090937C0788
:104DA00080937B07E3E2F0E0F0937E07E0937D07DA
:104DB0008DEF95E00E946F1A81E0809383078091C8
:104DC000A3069091A4068437910520F01092A406C2
:104DD0001092A30680919A0690919B06A0919C0642
:104DE000B0919D0689839A83AB83BC8320E030E039
:104DF00040EA51E4BC01CD010E94D72A87FD12C0D0
:104E0000409096065090970660909806709099068C
:104E100020E030E040EA51E4C301B2010E94D72A09
:104E200087FF0FC0A7E4B0E0B0937C07A0937B0797
:104E3000EDE0F0E0F0937E07E0937D0781E096E0FF
:104E400024C020E030E04CE052E469817A818B811B
:104E50009C810E94362C181604F520E030E04CE0CE
:104E600052E4C301B2010E94362C1816B4F487E450
:104E700090E090937C0780937B07ADE0B0E0B09327
:104E80007E07A0937D078BE096E00E946F1A6AE090
:104E900070E080E090E00E947B1881E090E09093C9
:104EA0008207809381079093800780937F07809388
:104EB0008307D0927C07C0927B0710927E071092E6
:104EC0007D0785E196E00E946F1A6091A00670E070
:104ED00080E090E04AE00E94711A87E296E00E942A
:104EE0006F1A6AE070E080E090E00E947B18EE2488
:104EF000E394F12C02E010E027E330E04BE150E0D6
:104F000068E470E08FE697E00E944B0A60919A0691
:104F100070919B0680919C0690919D060E944E2B5D
:104F20009B014DE150E068E470E08FE697E00E945D
:104F30004B0A609196067091970680919806909121
:104F400099060E944E2B9B0142E250E068E470E01B
:104F50008FE697E00E944B0A27E330E044E250E0FE
:104F600068E470E08FE697E00E944B0A20918C067F
:104F700030918D06E12CF12C03E010E04DE150E082
:104F800068E470E08FE697E00E944B0A20918A0661
:104F900030918B0642E250E068E470E08FE697E0E3
:104FA0000E944B0A88E490E090937C0780937B07F3
:104FB000E0E3F0E0F0937E07E0937D07809100014D
:104FC000803330F08F528093A0068AE296E02AC0A8
:104FD000883230F087528093A00680E396E022C0AA
:104FE000803230F08F518093A00686E396E01AC09D
:104FF000883130F087518093A0068DE396E012C08F
:10500000803130F08F508093A00687E496E00AC08C
:10501000883030F087508093A00689E496E002C083
:105020008BE496E00E946F1A0E94ED196AE070E02E
:1050300080E090E00E947B1880910001883310F09E
:1050400010920001809100018111F7C187E38093E4
:105050000001F3C1853009F0DFC082E00E94CF1764
:1050600001E0892B09F400E00093060183E00E942F
:10507000CF1711E0892B09F410E01093050184E0AB
:105080000E94CF1721E0892B09F420E0209304012E
:1050900001110BC080919F06815080939F0664E6AA
:1050A00070E080E090E00E947B18111172C084E0F3
:1050B0008093030180919F06813029F48091000143
:1050C0008093950630C0823029F48091000180934E
:1050D000940629C0833029F48091000180939306BF
:1050E00022C0843029F480910001809392061BC075
:1050F000853029F4809100018093910614C0863098
:1051000029F480910001809390060DC0873029F426
:105110008091000180938F0606C0883021F4809131
:10512000000180938E0664E670E080E090E00E94CB
:105130007B186091950683E090E00E94EB0F6091F0
:10514000940684E090E00E94EB0F6091930685E066
:1051500090E00E94EB0F6091920686E090E00E9442
:10516000EB0F6091910687E090E00E94EB0F609159
:10517000900688E090E00E94EB0F60918F0689E036
:1051800090E00E94EB0F60918E068AE090E00E9412
:10519000EB0F8091040181110BC080919F068F5FFE
:1051A00080939F0664E670E080E090E00E947B18A8
:1051B00080919F06893018F081E080939F0680914E
:1051C0009F06811103C088E080939F060E94B21A57
:1051D00081E080938307D0927C07C0927B07109276
:1051E0007E0710927D078DE496E00E946F1A8DE392
:1051F00090E090937C0780937B07A4E1B0E0B093AC
:105200007E07A0937D0760919F0670E080E090E0AC
:105210004AE00E94711A0BC182E00E94CF1701E0A0
:10522000892B09F400E00093060183E00E94CF1768
:1052300011E0892B09F410E01093050184E00E942D
:10524000CF1721E0892B09F420E0209304010111FC
:1052500009C0809102018150809302011092A90639
:105260001092A80680910201111106C080930301DB
:105270001092A9061092A806211107C08F5F809393
:1052800002011092A9061092A806809102018530B1
:1052900018F081E08093020180910201811103C026
:1052A00081E0809302010E94B21A00E410E020E83D
:1052B00030E04AED58E060E070E080E090E00E946D
:1052C000BD1A81E08093830740910201BAE04B9FB1
:1052D000A00111244D5F5F4FEE24E394F12C0AE00E
:1052E00010E028E730E063E070E08FE697E00E948E
:1052F0004B0A81E090E020910201211102C080E080
:1053000090E0909382078093810790938007809329
:105310007F0710927C0710927B0781E090E09093CA
:105320007E0780937D0783ED98E00E94FE120E9425
:105330006F1A81E090E020910201213011F480E0A9
:1053400090E09093820780938107909380078093E9
:105350007F07D0927C07C0927B07EFE0F0E0F093EC
:105360007E07E0937D0784EC98E00E94FE120E9485
:105370006F1A81E090E020910201223011F480E068
:1053800090E09093820780938107909380078093A9
:105390007F07D0927C07C0927B0789E190E09093D1
:1053A0007E0780937D0781EB98E00E94FE120E94A9
:1053B0006F1A81E090E020910201233011F480E027
:1053C00090E0909382078093810790938007809369
:1053D0007F07D0927C07C0927B07A3E2B0E0B09336
:1053E0007E07A0937D0783EA98E00E94FE120E9448
:1053F0006F1A81E090E020910201243011F480E0E6
:1054000090E0909382078093810790938007809328
:105410007F07D0927C07C0927B07B0927E07A09254
:105420007D0784E998E00E94FE120E946F1A0E9494
:10543000ED1960E08DE00E94F81780E090E0892B84
:1054400011F40C9402200E9400000C94FF1FE3E66C
:10545000F7E01382128288EE93E0A0E0B0E084834C
:105460009583A683B7838FE295E091838083EFE6EF
:10547000F7E01382128220E830E03583248380E451
:1054800090E0978386833187208793878287158A68
:10549000158614861786168681E0848B2FEF3FEFE2
:1054A000338B228B318B208B868B178A118E108E3B
:1054B0008FE395E0918380838FEF848F80A3868F25
:1054C000858F84E0878F0895EE0FFF1F0590F4917C
:1054D000E02D09945058BB27AA270E94822A0C94D9
:1054E000FC2B0E94EE2B38F00E94F52B20F039F4B3
:1054F0009F3F19F426F40C94EB2B0EF4E095E7FB98
:105500000C94E52BE92F0E940D2C58F3BA17620773
:1055100073078407950720F079F4A6F50C942F2CD7
:105520000EF4E0950B2EBA2FA02D0B01B9019001BE
:105530000C01CA01A0011124FF27591B99F0593F02
:1055400050F4503E68F11A16F040A22F232F342F4A
:105550004427585FF3CF469537952795A795F04098
:105560005395C9F77EF41F16BA0B620B730B840BAD
:10557000BAF09150A1F0FF0FBB1F661F771F881F65
:10558000C2F70EC0BA0F621F731F841F48F48795BD
:1055900077956795B795F7959E3F08F0B0CF9395AF
:1055A000880F08F09927EE0F9795879508950E9428
:1055B000C12B08F481E008950E94F02A0C94FC2B82
:1055C0000E94F52B58F00E94EE2B40F029F45F3F2B
:1055D00029F00C94E52B51110C94302C0C94EB2BEE
:1055E0000E940D2C68F39923B1F3552391F3951B79
:1055F000550BBB27AA2762177307840738F09F5FF4
:105600005F4F220F331F441FAA1FA9F335D00E2E60
:105610003AF0E0E832D091505040E695001CCAF7CD
:105620002BD0FE2F29D0660F771F881FBB1F261790
:1056300037074807AB07B0E809F0BB0B802DBF0167
:10564000FF2793585F4F3AF09E3F510578F00C9436
:10565000E52B0C94302C5F3FE4F3983ED4F3869511
:1056600077956795B795F7959F5FC9F7880F911D57
:105670009695879597F90895E1E0660F771F881F43
:10568000BB1F621773078407BA0720F0621B730BF6
:10569000840BBA0BEE1F88F7E09508950E94552BF6
:1056A0006894B1110C94302C08950E94152C88F048
:1056B0009F5798F0B92F9927B751B0F0E1F0660FD6
:1056C000771F881F991F1AF0BA95C9F714C0B13017
:1056D00091F00E942F2CB1E008950C942F2C672F8D
:1056E000782F8827B85F39F0B93FCCF38695779546
:1056F0006795B395D9F73EF490958095709561952F
:105700007F4F8F4F9F4F0895E89409C097FB3EF459
:1057100090958095709561957F4F8F4F9F4F9923FE
:10572000A9F0F92F96E9BB279395F695879577957C
:105730006795B795F111F8CFFAF4BB0F11F460FF3C
:105740001BC06F5F7F4F8F4F9F4F16C0882311F094
:1057500096E911C0772321F09EE8872F762F05C0A8
:10576000662371F096E8862F70E060E02AF09A9543
:10577000660F771F881FDAF7880F9695879597F938
:105780000895990F0008550FAA0BE0E8FEEF1616D2
:105790001706E807F907C0F012161306E407F50725
:1057A00098F0621B730B840B950B39F40A2661F099
:1057B000232B242B252B21F408950A2609F4A1403C
:1057C000A6958FEF811D811D089597F99F6780E849
:1057D00070E060E008959FEF80EC089500240A9443
:1057E0001616170618060906089500240A941216BC
:1057F0001306140605060895092E0394000C11F4EF
:10580000882352F0BB0F40F4BF2B11F460FF04C09B
:105810006F5F7F4F8F4F9F4F089557FD9058440FF4
:10582000551F59F05F3F71F04795880F97FB991FFF
:1058300061F09F3F79F087950895121613061406BC
:10584000551FF2CF4695F1DF08C016161706180649
:10585000991FF1CF86957105610508940895E89424
:10586000BB2766277727CB0197F908950E94C12BA4
:1058700008F48FEF08950E944E2C0C94FC2B0E948C
:10588000EE2B38F00E94F52B20F0952311F00C94AC
:10589000E52B0C94EB2B11240C94302C0E940D2C36
:1058A00070F3959FC1F3950F50E0551F629FF00173
:1058B000729FBB27F00DB11D639FAA27F00DB11D8C
:1058C000AA1F649F6627B00DA11D661F829F222715
:1058D000B00DA11D621F739FB00DA11D621F839F9C
:1058E000A00D611D221F749F3327A00D611D231F72
:1058F000849F600D211D822F762F6A2F11249F57C0
:1059000050409AF0F1F088234AF0EE0FFF1FBB1FC2
:10591000661F771F881F91505040A9F79E3F510581
:1059200080F00C94E52B0C94302C5F3FE4F3983E10
:10593000D4F3869577956795B795F795E7959F5F2B
:10594000C1F7FE2B880F911D9695879597F90895BD
:105950000E94C12B880B990B089581E090E0F89488
:105960000C942B2DF999FECF92BD81BDF89A992701
:1059700080B50895262FF999FECF1FBA92BD81BD3B
:1059800020BD0FB6F894FA9AF99A0FBE01960895C1
:10599000052E97FB1EF400940E94DF2C57FD07D0C4
:1059A0000E94FA2C07FC03D04EF40C94DF2C509587
:1059B0004095309521953F4F4F4F5F4F08959095FB
:1059C0008095709561957F4F8F4F9F4F08950E94EE
:1059D0001C2DA59F900DB49F900DA49F800D911D2F
:1059E00011240895B7FF0C94E72C0E94E72C821B2A
:1059F000930B0895A1E21A2EAA1BBB1BFD010DC03B
:105A0000AA1FBB1FEE1FFF1FA217B307E407F5076E
:105A100020F0A21BB30BE40BF50B661F771F881F4A
:105A2000991F1A9469F760957095809590959B01E0
:105A3000AC01BD01CF010895A29FB001B39FC00189
:105A4000A39F700D811D1124911DB29F700D811DAA
:0A5A50001124911D0895F894FFCF72
:105A5A00180A01040101010000A0420000A042004E
:105A6A00009643000096430000000000000000007A
:105A7A00000000000000000000000000000000001C
:105A8A00000000000000000000000000000000000C
:105A9A0000000000000000000000000000000000FC
:105AAA00000000000000808080000000000000006C
:105ABA0000000000000000008080C0C0000000005C
:105ACA0000000000000000000000000000000000CC
